:100000000C9454060C949B060C949B060C949B0633
:100010000C94AE310C949B060C949B060C949B069E
:100020000C949B060C949B060C94CC160C949C1B75
:100030000C9478290C949B060C949B060C949B06BC
:100040000C949B060C949B060C949B060C949B06AC
:100050000C949B060C94A5170C949B060C949B0681
:100060000C949B060C949B060C949B060C949B068C
:100070000C949B060C949B060C949B060C949B067C
:100080000C949B060C949B060C949B060C949B066C
:100090000C949B060C949B060C949B060C949B065C
:1000A0000C949B060C949B060C949B0629001E0046
:1000B0001F002000210022002F002B0014001A0036
:1000C0000800150017002D00AA5D040016000700A7
:1000D00009000A003500E1001D001B0006001900A0
:1000E0000500A800E000E200E3002B04A85D2C005E
:1000F00028002A00270026002500240023003000C5
:100100003100130012000C0018001C002E003400F7
:1001100033000F000E000D000B004C0028003800CB
:100120003700360010001100C35C4F005200510030
:100130005000A95D2C002800000000000000000015
:1001400000000000000000000000000000000000AF
:10015000000000000000000000000000000000009F
:10016000000000000000000000000000000000008F
:10017000000000000000000000000000000000007F
:10018000000000000000000000000000000000006F
:10019000000000000000000000000000000000005F
:1001A000000000000000000000000000000000004F
:1001B000000000000000000000000000000000003F
:1001C0000000000001003A003B003C003D003E0002
:1001D000010054005F006000610053000100010055
:1001E00039005C005D005E00530001000100010069
:1001F00059005A005B00010001000100010062008B
:100200006300580001000100010044004300420067
:10021000410040003F0001004500610060005F00B8
:1002200054000100010053005E005D005C0001000D
:100230000100010001005B005A00590001000100AB
:10024000010001005800630062000100010001008C
:1002500001003A003B003C003D003E00010054001C
:100260005F006000610053000100010039005C0084
:100270005D005E00530001000100010059005A00BA
:100280005B000100010001000100620063005800F2
:100290000100010001004400430042004100400011
:1002A0003F0001004500610060005F005400010054
:1002B000010053005E005D005C00010001000100D0
:1002C00001005B005A00590001000100010001001B
:1002D00058006300620001000100010001003A00C3
:1002E0003B003C003D003E00010001000100010018
:1002F00001000100010001000100010001000100F6
:1003000001000100010001000100010001000100E5
:1003100001000100010001000100010001000100D5
:100320000100440043004200410040003F00010042
:100330004500010001000100DF5C01000100010037
:10034000010001000100C35C01000100CA5CC85C3F
:10035000C65CCC5CC45C01000100CB5CC95CC75CC2
:10036000CD5CC55C0100010000DA1281FFD9F1DB30
:1003700020A4A62EAF00A0C000A1C800AED580A8C2
:100380003FD300408D14200000047F3F1F643214CF
:10039000643214783C1E1E140A054350534C4B0023
:1003A0000A0A00556E6465660041646A0A004C6F73
:1003B00077657200526169736500426173650A0076
:1003C0004C41594552000A0A00556E646566004367
:1003D0006C6D6B00517772740057494E004D41436C
:1003E00000004D4F4445000A0A00808182838485C5
:1003F000868788898A8B8C8D8E8F9091929394A01A
:10040000A1A2A3A4A5A6A7A8A9AAABACADAEAFB064
:10041000B1B2B3B4C0C1C2C3C4C5C6C7C8C9CACBD0
:10042000CCCDCECFD0D1D2D3D40000010101010177
:10043000010101010202020202020202020303039D
:10044000030303030304040404040404050505056D
:10045000050606060606070707070708080808092D
:100460000909090A0A0A0B0B0B0C0C0C0D0D0D0ED9
:100470000E0E0F0F0F10101111111212131314146E
:10048000151516161717181819191A1A1B1B1C1DE3
:100490001D1E1E1F2020212222232424252626273C
:1004A0002829292A2B2C2D2D2E2F3031323233346E
:1004B00035363738393A3B3C3D3E3F404142434474
:1004C00045464748494A4C4D4E4F50515354555656
:1004D00058595A5B5D5E5F616264656668696B6C02
:1004E0006D6F7072737577787A7B7D7E808283857D
:1004F00087888A8C8E8F91939596989A9C9EA0A2BD
:10050000A3A5A7A9ABADAFB1B3B5B7BABCBEC0C2C6
:10051000C4C6C9CBCDCFD1D4D6D8DBDDDFE2E4E78A
:10052000E9EBEEF0F3F5F8FAFDFFFFAA7F55402264
:1005300023252628292A2C2D2F3032333536383AD8
:100540003B3D3E4042434547494A4C4E505153552E
:1005500057595A5C5E6062646668696B6D6F71734F
:100560007577797B7D7F81838587898A8C8E909250
:100570009496989A9C9E9FA1A3A5A7A8AAACAEAF5B
:10058000B1B3B4B6B8B9BBBCBEBFC1C2C3C5C6C7A0
:10059000C9CACBCCCDCED0D1D2D2D3D4D5D6D7D751
:1005A000D8D9D9DADADBDBDBDCDCDCDCDCDDDDDD99
:1005B000DDDCDCDCDCDCDBDBDBDADAD9D9D8D7D795
:1005C000D6D5D4D3D2D2D1D0CECDCCCBCAC9C7C642
:1005D000C5C3C2C1BFBEBCBBB9B8B6B4B3B1AFAE80
:1005E000ACAAA8A7A5A3A19F9E9C9A989694929026
:1005F0008E8C8A89878583817F7D7B7977757371FE
:100600006F6D6B6968666462605E5C5A59575553DA
:1006100051504E4C4A4947454342403E3D3B3A3893
:1006200036353332302F2D2C2A2928262523220730
:10063000087F0807003E5B4F5B3E003E6B4F6B3E02
:10064000001C3E7C3E1C00183C7E3C18001C577D64
:10065000571C001C5E7F5E1C0000183C180000FF49
:10066000E7C3E7FF00001824180000FFE7DBE7FFFF
:100670000030483A060E00262979292600407F05D9
:10068000050700407F05253F005A3CE73C5A007FA4
:100690003E1C1C0800081C1C3E7F0014227F2214F4
:1006A000005F5F005F5F0006097F017F00006689D1
:1006B000956A0060606060600094A2FFA2940008E8
:1006C000047E04080010207E20100008082A1C0860
:1006D00000081C2A0808001E10101010000C1E0C28
:1006E0001E0C0030383E383000060E3E0E0600006C
:1006F000000000000000005F00000000070007008D
:1007000000147F147F1400242A7F2A120023130868
:1007100064620036495620500000080703000000BC
:100720001C224100000041221C00002A1C7F1C2AC0
:100730000008083E08080000807030000008080823
:100740000808000000606000002010080402003E5D
:100750005149453E0000427F4000007249494946E8
:10076000002141494D33001814127F1000274545E0
:100770004539003C4A4949310041211109070036F9
:100780004949493600464949291E00000014000025
:10079000000040340000000008142241001414142A
:1007A0001414000041221408000201590906003EF9
:1007B000415D594E007C1211127C007F4949493637
:1007C000003E41414122007F4141413E007F494975
:1007D0004941007F09090901003E41415173007FF1
:1007E0000808087F0000417F4100002040413F0190
:1007F000007F08142241007F40404040007F021CDF
:10080000027F007F0408107F003E4141413E007F8F
:1008100009090906003E4151215E007F0919294658
:100820000026494949320003017F0103003F40404F
:10083000403F001F2040201F003F4038403F0063E2
:1008400014081463000304780403006159494D43FC
:1008500000007F4141410002040810200000414196
:10086000417F00040201020400404040404000007B
:1008700003070800002054547840007F284444387F
:1008800000384444442800384444287F00385454F5
:1008900054180000087E09020018A4A49C78007F68
:1008A000080404780000447D4000002040403D00E2
:1008B000007F102844000000417F4000007C047845
:1008C0000478007C0804047800384444443800FC70
:1008D000182424180018242418FC007C0804040898
:1008E0000048545454240004043F4424003C404035
:1008F000207C001C2040201C003C4030403C004438
:1009000028102844004C9090907C004464544C443F
:10091000000008364100000000770000000041366A
:100920000800000201020402003C2623263C0000CD
:100930000000000000404040F0F8F8FF38FFF8F8F1
:100940003FF8F8FF38FFF8F8F040404000000000A2
:10095000000080C0C0C0800000C0C08000000080D7
:10096000C0C000C0C0000080C0C00000000000C0C7
:10097000C0C0C0C000C0C0000000000000000000F7
:100980000000000000000000000000000000000067
:100990000000000000000000000000000000000057
:1009A0000000000000000000000000000000C0F097
:1009B000F8FC3E1E06010000007F4141417F007FA0
:1009C0004141417F000080C0E07E5B4F5BFEC00084
:1009D00000C000DCD7DEDEDED7DC00C00000000097
:1009E0000000000000000000000000000000000007
:1009F0000000000000494949FFFFFFFFE0DFBFBFE3
:100A000000BFBFDFE0FFFFFFFF49494900000000D2
:100A1000001F3F6060E0BF1F007F7F071E381E077A
:100A20007F7F007F7F0E1F3B716000000000007F12
:100A30007F0C0C0C007E7E007F7E0303007F7E0314
:100A4000037E7E03037F7E000F3E703C063C703EBB
:100A50000F00327B49493F7E007F7E0303001E3F2B
:100A600069696F2600000000000000000000030F0D
:100A70001F3F3C7870600000007F4141417F007F54
:100A80004141417F00307B7F7830202030787F3BB0
:100A90000003000F7F0F0F0F7F0F00030000000007
:100AA0000000000000000000000000000000000046
:100AB0000000000000010101070F0F7F0F7F0F0FE3
:100AC0007E0F0F7F0F7F0F0F070101010000000055
:100AD0000000000000000101000000000000000014
:100AE0000000000000000000000000000000000006
:100AF00000000000000000000000000000000000F6
:100B000000000000000000000000000000000000E5
:100B100000000000000000000000000000000000D5
:100B200000000000000000000000000000000000C5
:100B300000000000000000000000000000000000B5
:100B400000000000000000000000000000000000A5
:100B50000000000000000000000000000000000095
:100B60000000000000000000000000000000000085
:100B7000AF00AE05010902A10185020901A100052E
:100B8000091901290815002501950875018102053B
:100B900001093009311581257F9502750881060903
:100BA000381581257F950175088106050C0A3802E4
:100BB0001581257F950175088106C0C00501098052
:100BC000A101850319012AB700150126B700950177
:100BD00075108100C0050C0901A101850419012AC5
:100BE000A002150126A002950175108100C0050123
:100BF0000906A101050719E029E715002501950857
:100C0000750181029501750881010507190029FF09
:100C1000150026FF009506750881000508190129B1
:100C200005950575019102950175039101C00902B1
:100C30003B00020100A0FA090400000103010100C9
:100C40000921110100012240000705810308000A63
:100C50000904010001030000000921110100012223
:100C60007B000705820320000A1201000200000039
:100C70000801F902F901000102000110035A006F96
:100C80000064006900610072006B00000014034101
:100C9000006C00650062006C0061007A0065007203
:100CA000000000040309040011241FBECFEFDAE0A6
:100CB000DEBFCDBF04B603FE27C080913C089091F3
:100CC0003D08A0913E08B0913F088730904BA74067
:100CD000B04BD1F410923C0810923D0810923E089F
:100CE00010923F0814BE84B7877F84BF0FB6F89474
:100CF000A8958091600088618093600010926000E8
:100D00000FBEE0E0F8E3099511E0A0E0B1E0EAEB06
:100D1000F8E602C005900D92A03FB107D9F728E090
:100D2000A0EFB1E001C01D92AC33B207E1F70E9421
:100D30009F290C9437340C940000E8EDF0E080819A
:100D40008E7F80831092E2001092DA001092E10010
:100D5000A0EEB0E08C9181608C9380818F7780834E
:100D600019BCA7EDB0E08C918E7F8C9380818F7E33
:100D7000808310921E0808952091E4003091E500D0
:100D800095E6A9012091EC00822F817020FF06C01A
:100D90008091E80080FF06C080E008952091E8007F
:100DA00022FD1AC080912B08882389F0853089F0B4
:100DB0008091EB0085FD0FC02091E4003091E500AB
:100DC00042175307F9F29150E1F684E0089582E06A
:100DD000089583E0089581E00895EF92FF920F93C4
:100DE0001F93CF937C018B010E94BC06C82F8111F9
:100DF00017C08091E80085FD0BC08091E8008E77D8
:100E00008093E8000E94BC06882399F3C82F08C08D
:100E1000F70181917F018093F1000150110949F799
:100E20008C2FCF911F910F91FF90EF90089580919B
:100E30002D0887FF13C08091E80082FF06C08091D3
:100E4000E8008B778093E80004C080912B08811123
:100E5000F2CF089580912B088823D9F38091E80080
:100E600080FFF8CF8091E8008E77ECCF982F909399
:100E7000E900242F762F50E0891731F07091EC00B3
:100E80002091ED005091F00021FD07C09F5F973049
:100E900071F78093E90081E008953091EB003E7F87
:100EA0003093EB003091ED003D7F3093ED003091B9
:100EB000EB0031603093EB007093EC002093ED0079
:100EC0005093F0002091EE0027FDE0CF80E00895E0
:100ED000CF92DF92EF92FF920F931F93CF93DF9306
:100EE000C8EDD0E088818F7E8883E7EDF0E08081D7
:100EF0008160808384E082BF81E080931E088881C6
:100F00008E7F888302EE10E0F80110821092DA00E2
:100F100081EEC82ED12CF601108288818F778883CC
:100F200088818068888388818F7D888319BC10922E
:100F30002B0810922C0810922A081092290890EE83
:100F4000E92EF12CF70180818B7F8083888181607D
:100F5000888342E060E080E00E943607F6018081ED
:100F60008E7F8083F80180818160808380818860AA
:100F70008083F70180818E7F808388818061888370
:100F8000DF91CF911F910F91FF90EF90DF90CF9065
:100F90000895FC01809133089091340886179707D3
:100FA000A0F06115710529F49091E8009E77909367
:100FB000E80090E06115710551F4911108C080912D
:100FC000E80082FF34C080E00895BC01F2CF809138
:100FD0002B088823C1F18530C1F18091E80083FDA1
:100FE00030C08091E80082FDEACF8091E80080FF68
:100FF000E1CF8091F3002091F200382F6115710547
:1010000019F02830310558F091E02830310509F009
:1010100090E02091E8002E772093E800CBCF8191DB
:101020008093F100615071092F5F3F4FE7CF8091AE
:101030002B08882341F0853041F08091E80083FF40
:10104000BECF81E0089582E0089583E00895089579
:1010500080912008089587E797E79093010880938F
:10106000000888E19AE00FB6F894A8958093600094
:101070000FBE90936000FFCF2FB7F89460911708D0
:10108000709118088091190890911A082FBF08953F
:101090009C01FC0132969FEF80E04191461751F090
:1010A0009F3F19F4411101C0982F8F5F8630A9F737
:1010B0009F3F09F40895290F311D97FD3A95F901D5
:1010C0006283089520911408309115082817390774
:1010D00071F09093150880931408E0911208F09134
:1010E0001308309721F00084F185E02D09940895CC
:1010F00020911008309111082817390771F090934A
:10110000110880931008E0911208F09113083097AD
:1011100021F00680F781E02D09940895FC01680F05
:10112000791F8FEF91E32191822728E030E087FF3C
:1011300009C0880F892721503109C9F7E617F70739
:1011400091F70895880FF7CFFA01811101C0FB01D3
:1011500009940895E8E2F3E0118282818460828339
:1011600008958091FA03982F9E7F61F481708260C8
:101170008093FA038091FD038B3A18F08AEA8093FA
:10118000FD0308958A34B0F381708864F1CFAF9283
:10119000BF92DF92EF92FF920F931F93CF93DF9353
:1011A000082F162FE901E42FF0E0E65DFB4F6111F7
:1011B00010C0E4915E2F4E2F4983E8835A83DF915C
:1011C000CF911F910F91FF90EF90DF90BF90AF9064
:1011D0000895E62EF12C4491D42EE42FF0E026E081
:1011E000829FC00111242FEF30E0B9010E94283303
:1011F000802F90E0880F991F55E5569FD001579F8B
:10120000B00D11248A1B9B0B982F990F890F590140
:10121000AE18BF08AE9ED001AF9EB00DBE9EB00D01
:1012200011245B2F189F80011124012F11275901D0
:10123000A01AB10AAE9E8001AF9E100DBE9E100D89
:1012400011245901A81AB108AE9CC001AF9C900DA1
:10125000BE9C900D1124892F9927281B390B2E9F96
:10126000C0012F9F900D3E9F900D1124E92F6230F9
:101270007105A1F050F46115710509F49DCF61303D
:10128000710581F0EB2F512F97CF6430710569F014
:1012900080F06630710509F48FCFF4CFE42F4B2F27
:1012A000592F8ACFE42F412F87CFEB2F542F492F6F
:1012B00083CF4B2F5D2DE12F7FCF40911E038D3EBD
:1012C00059F480911F0387FF0DC010921F03411135
:1012D0000BC01092160308C08E3E81F480911F034C
:1012E00018169CF3442381F08091200390912103F0
:1012F000892B09F05AC01092150308958F3E49F4C6
:1013000047FFF0CF10921E0380911F038111ECCF95
:10131000E0CF803F19F41416ACF3E4CF9091200392
:10132000893F29F41916F4F610922003DBCF8A3F87
:1013300019F497FFD7CFF8CF909121038B3F29F471
:1013400097FFD0CF10922103CDCF8C3F19F41916FF
:10135000CCF3C8CF9FE0980F983090F4815F990B41
:1013600021E030E0B90102C0660F771F8A95E2F7ED
:10137000CB01809590911D03892380931D03B2CFEB
:101380008D3F31F4809117038E7F80931703AACF8E
:101390008E3F21F4809117038D7FF7CF8F3F09F0A7
:1013A000A1CF809117038B7FF0CF08958091170311
:1013B00080FD16C081FD16C082FD16C08091150308
:1013C0008823A1F0883280F428E0829FC001112494
:1013D00068E270E00E945633862F672B39F008953B
:1013E00082E0089584E0089588E0089581E00895FA
:1013F0008091170380FD14C081FD14C082FD16C0CA
:1014000080911603882381F0843180F422E3829F47
:10141000C001112464E170E00E945633862F0895C4
:101420008CE0089589E1089585E0089582E30895A8
:101430008D3E31F40E94F809819580931F03089531
:101440008E3E19F40E94F809F8CF8F3E31F40E94C5
:10145000F809819580931E030895803F19F40E9436
:10146000F809F8CF893F29F40E94D6098093200318
:1014700008958A3F21F40E94D6098195F7CF8B3FCA
:1014800031F40E94D60981958093210308958C3F01
:1014900019F40E94D609F8CF9FE0980F983070F4A5
:1014A000815F990B21E030E001C0220F8A95EAF7B5
:1014B00080911D03822B80931D0308958D3F31F48D
:1014C0008091170381608093170308958E3F21F464
:1014D000809117038260F7CF8F3FB9F78091170390
:1014E0008460F1CF80E0089578940895F894E82F0F
:1014F000E295EF70F0E031A1282F2F7081E090E0AD
:1015000001C0880F2A95EAF7982F9095932391A30D
:1015100092A1892B82A30C94740A9091C30292FF2A
:1015200006C0282F28712830F9F4877F846093FF44
:1015300006C0282F28712831F1F4877E846120911C
:10154000C40220FF06C0382F38713830D9F4877FA5
:10155000816021FF06C0282F28712831D1F4877EB1
:10156000816194FD877E0895282F24712430F9F637
:101570008B7F8860DCCF282F2471243101F78B7E8C
:101580008861DDCF382F3171313019F78E7F886057
:10159000E0CF282F2171213121F78E7E8861E1CFA4
:1015A000CF93DF93EC0182389105A9F1D8F581330F
:1015B000910509F496C048F58932910509F48AC06D
:1015C0008A9709F495C0C11521E5D20708F0BCC07F
:1015D000C11530E5D30708F014C1C83ED10508F0A5
:1015E0009CC0C03ED10560F5C83AD10508F087C05F
:1015F000C53AD10508F0FDC0C130D10509F12097E9
:10160000F9F0C430D105E0F440C08533910509F408
:101610005AC0C997C1F68091C302837089F0C0EEA9
:10162000D0E00EC0833E910599F170F4803E9105A3
:1016300001F1823E910539F68091C30282FD21C0FD
:10164000CE01DF91CF910895863E910561F1873EED
:10165000910571F1843E910509F0B5CF8091C402E6
:1016600081FFEECF8091C302C7EED0E084FD0DC0B4
:10167000E7CF8091C30280FD12C19091C40290FF18
:10168000DFCFC3EED0E084FFDBCFD0E0C0E0D8CF27
:101690008091C30282FD06C19091C40290FDBFCF2C
:1016A00084FFCECFF2CF8091C30283FDDDCFC8CFC0
:1016B0008091C30283FDF9C09091C40291FFF0CFE5
:1016C000C4EED0E0BDCF8091C30285FFB9CFC9E29F
:1016D000D0E0B6CF8091C30285FFB2CFC5E3D0E0A2
:1016E000AFCF8091C30286FFABCFCAE2D0E0A8CFD4
:1016F0008091C30286FFA4CFC1E3D0E0A1CFCF3B4E
:10170000D10518F6C85AD0E0CC0FDD1FC759DE4FFF
:101710000990D881C02DD46493CFC11540E2D4077D
:1017200058F4C11581E0D80708F08ACFCD3ED10525
:1017300008F4ABCFD06584CFC11590E4D90708F485
:10174000A4CFDF70D06A7CCFC11525E5D20700F5A4
:10175000C11534E5D30708F08AC0C11543E5D407A5
:1017600008F071C0C11582E5D80708F467C0CE0142
:101770008370992721E030E002C0220F331F8A9541
:10178000E2F7C695C69580E2C89FE001112452C0D9
:10179000C11599E5D907A8F4C11528E5D20708F0C5
:1017A0006BC0C11536E5D30708F06FCF8C2F0E94B0
:1017B0008D0AC82FD0E0DC2FCC27CC27DF71D06278
:1017C0003FCFC1154AE5D40708F45BC0CE0190565F
:1017D0008115904208F059CF8D2F8F710E948D0A8C
:1017E00090E0982F882788279F719C012C2BE90176
:1017F000E6CFC55AD0E0CA59DE4FC881D0E0D064E8
:101800001FCFCE01E4E096958795EA95E1F78370C6
:101810002C2F26952695237040E2249F90011124B9
:10182000382B8C2F8370C1E0D0E002C0CC0FDD1FBD
:101830008A95E2F7C22BD32BDC6802CFDC2FCC27B2
:10184000C16FD06AFDCECE018370992721E030E0D0
:1018500002C0220F331F8A95E2F7C695C69590E223
:10186000C99FE0011124C22BD32BDA68E9CEDC2F0B
:10187000CC27C46FD06AE4CEDC2FCC27C06FD06AEF
:10188000DFCE8C2F8F700E948D0A34E0D695C795DD
:101890003A95E1F7CF709C2FEC01D069D1CEC9E326
:1018A000D0E0CECEC2EED0E0CBCEC6EED0E0C8CEF9
:1018B0000C943C0880916502811110926502089594
:1018C000809590916402982390936402089580918A
:1018D000640290916302892B90916202892B80931C
:1018E000F20190916502992391F0892B8093F20186
:1018F00020E084EF91E0FC013191CF0131112F5FA5
:10190000F1E08A3F9F07B9F721110E945A0CE0913C
:101910001208F0911308309731F00280F381E02D26
:1019200082EF91E0099408958091600290912F02D6
:10193000981301C008958F5F8770FACFAF92BF925E
:10194000CF92DF92EF92FF920F931F93CF93DF938B
:10195000C0903808D0903908E0903A08F0903B08E1
:101960004091BF025091C0026091C1027091C202C9
:10197000C42AD52AE62AF72ACFE1D0E0082F10E0C2
:1019800027E0929F000D111D112496E4A92EBC2E74
:10199000D701C6010C2E04C0B695A79597958795DB
:1019A0000A94D2F780FD0FC0219788F7B12C8B2DB8
:1019B000DF91CF911F910F91FF90EF90DF90CF902B
:1019C000BF90AF900895AC9EF001AD9EF00D112434
:1019D000E00FF11FEE0FFF1FE455FF4F859194912B
:1019E0000E94D00A019701F3E2CFCF93DF93EC017D
:1019F0000E949E0CEC2FF0E097E0D99FE00DF11DC6
:101A0000112496E4899FE00DF11D1124EE0FFF1FB4
:101A1000E455FF4F85919491DF91CF910C94D00ABA
:101A200027E0929F800D1124982F977086958695B8
:101A3000869525E0829FF0011124E450FE4F50E08E
:101A400040E080E0219130E0092E02C036952795D4
:101A50000A94E2F721703327042E01C0220F0A9462
:101A6000EAF7822B4F5F5F4F4530510559F70895D4
:101A700027E0929F800D1124982F977041E001C0BC
:101A8000440F9A95EAF786958695869595E0899F05
:101A9000F0011124E450FE4F90E080E070E051919D
:101AA000DF0111979B01082E02C0369527950A94F5
:101AB000E2F7217021952527242325272C930196D1
:101AC0008530910561F70895FC01808191810E9424
:101AD000F50C292F2F7092959F7092509E3078F4BC
:101AE000E92FF0E0E75CFB4C0C948C33803F19F05D
:101AF00020F4883E20F481E00895843FE1F380E003
:101B00000895883EC0F3813FD1F7F5CF822F8695A7
:101B1000869586950895882321F00E94600C0C9488
:101B2000670C0895882339F090916402982B909364
:101B300064020C94670C0895CF92DF92EF92FF92AB
:101B40006C01EE24FF2420E0C114D104E104F1046F
:101B500019F0C701B60120E1C72ED82EE92EFF24C7
:101B6000C114D104E104F10419F0285FC701B601E2
:101B70006B017C0154E0F694E794D794C7945A958E
:101B8000D1F7C114D104E104F10419F02C5FC701AD
:101B9000B6016B017C0142E0F694E794D794C794B8
:101BA0004A95D1F7C114D104E104F10419F02E5F74
:101BB000C701B6019695879577956795672B682B32
:101BC000692B09F02F5F822FFF90EF90DF90CF906D
:101BD0000895CF92DF92EF92FF920F931F93CF93CE
:101BE000DF936C017B0164E670E088E70E940530BA
:101BF000EC0197FD12C010E000E0F601E00FF11FCC
:101C0000849164E670E00E947F30EC01892B29F416
:101C10000F5F1F4F0E151F0581F70E940231CE0185
:101C2000DF91CF911F910F91FF90EF90DF90CF90B8
:101C3000089580910E0890910F08911103C091E0D2
:101C400089270895882369F062E070E081E79BE0CE
:101C50000E94E90D892B19F080910E0808951092C9
:101C60000E0880910E08EBCFCF93C0910E088091A3
:101C70000F088823D1F00E943C086058754E894FA8
:101C80009F4F60930A0870930B0880930C08909301
:101C90000D08C11108C062E070E08FE69BE00E9471
:101CA000E90D892B29F0C0910E088C2FCF91089552
:101CB00081E080930E08F7CF80931B0870931D0876
:101CC00060931C0880912B08843001F582E080939A
:101CD000E9008FEF9091E800815095FD06C095EDE9
:101CE0009A95F1F700008111F5CF8091E80085FF0A
:101CF0000DC050E040E063E070E08BE198E00E94AE
:101D0000ED068091E8008E778093E8000895BC018D
:101D100084E00C945C0EBC0183E00C945C0E9C018E
:101D200082E08093E9009FEF8091E800915085FD6B
:101D300006C085ED8A95F1F700009111F5CF8091ED
:101D4000E80085FF0CC050E040E066E070E0C901AB
:101D50000E94ED068091E8008E778093E800089558
:101D6000CF93DF93EC0181E08093E9008FEF9091B6
:101D7000E800815095FD06C095ED9A95F1F70000B9
:101D80008111F5CF8091E80085FF14C050E040E05C
:101D900068E070E0CE010E94ED068091E8008E7749
:101DA0008093E80088E0FE01A1E2B8E001900D9286
:101DB0008A95E1F7DF91CF9108956091610180915B
:101DC000FA0380FF20C08091600143E0849FC0013E
:101DD0001124825D9C4F259A25B12F7D35B130624B
:101DE0005FB7F894FC01649FE00DF11D1124BF0161
:101DF00068177907D1F45FBF8FE594E00197F1F799
:101E000000C000000895809162019091630123E079
:101E1000829FF0011124E25DFC4F8917A0F6118228
:101E2000108212828F5F3396F8CFFC014191CF016F
:101E3000E8E035B9000000C047FF25B9440F0000B5
:101E400000C000C000C025B900C0EA9591F7D0CF0E
:101E50000F931F93CF93DF93EC0110E000E090917C
:101E600064019017110609F06CF40E94DD0E8C815C
:101E700090E00196817099278C83DF91CF911F911B
:101E80000F91089520916201A801420F511D9A01FE
:101E9000220F331F240F351F225D3C4F4C81609170
:101EA000FC038091FB0396959017110669F064F08E
:101EB000442361F04091FD034B3A08F04AEA0E9446
:101EC000C7080F5F1F4FCBCF4423A1F340E0F7CFEC
:101ED0008F929F92AF92BF92CF92DF92EF92FF923A
:101EE0000F931F93CF93DF93EC014C81042F10E0ED
:101EF0009801D8010E949A339B01AC010E94B03333
:101F00004B015C01E0E2F0E0E01BF10BA5E5B0E085
:101F1000AC019B010E94B0336B017C019F01DF018A
:101F20000E9492339B01AC010E94BB339B01AC0128
:101F3000280D391D4A1D5B1DC701B6010E946A3379
:101F4000F22E822F90E039E23F1560F143E0249FAA
:101F50009001112435952795122F109500E085E505
:101F6000E82EEF1880916401081758F10E94DD0EE9
:101F70009C8181E0992319F0903219F48FEF8093BE
:101F80005F0180915F01890F8C83DF91CF911F9159
:101F90000F91FF90EF90DF90CF90BF90AF909F9008
:101FA0008F90089525E530E0B901681B790B9B01FE
:101FB000220F331F260F371F37FFCCCF2F5F3F4F26
:101FC000C9CF8E2D01FD8F2D20916201622F600FF0
:101FD0007727771F9B01220F331F260F371F225DA4
:101FE0003C4F412F1B3A08F04AEA6091FC030E94E3
:101FF000C7080F5FB7CFEF92FF920F931F93CF9356
:10200000DF93EC018C81811109C081E08C831092F7
:102010002C0392E090935E0180935D0180916201B8
:102020009091630123E0829FF0011124E25DFC4F57
:10203000891768F110E003E060916401161768F1F8
:102040000E94DD0E80915D0120912C03280F2093CA
:102050002C0390915E01980F90935E01191654F431
:10206000022E000C330B409164014150550B241794
:10207000350734F0819580935D01813009F41C822D
:10208000DF91CF911F910F91FF90EF9008951182F2
:10209000108212828F5F3396CBCFE12EF12C70E04D
:1020A000C7010E94563320916201820F482F50E0F1
:1020B00020912C03022E000C330BE216F306D4F011
:1020C00020915E01022E000C330B2E153F0594F07B
:1020D000809F90011124225D3C4F4091FD034B3ABB
:1020E00008F04AEA6091FC038091FB030E94C70854
:1020F0001F5FA2CFFA01EE0FFF1FE40FF51FE25D95
:10210000FC4F118210821282F3CF8F929F92AF9276
:10211000BF92CF92DF92EF92FF920F931F93CF93D4
:10212000DF93EC018A81BB24BA9480FD02C0BB24FA
:10213000B394A09064018C81811109C081E0B81230
:1021400028C08FEF8A0D80932B0381E08C83F12CC4
:10215000E12C44E4842EEA14F8F00E94DD0E809114
:102160002B0391E0B91262C081115BC080916401C0
:10217000815080932B031C82DF91CF911F910F918F
:10218000FF90EF90DF90CF90BF90AF909F908F9097
:10219000089510922B03D9CF009162010E0D1F2DCF
:1021A000111DC801880F991F080F191F025D1C4FD0
:1021B000F80111821082128234E0C32ED12C912CAE
:1021C00080912B03890D853444F1682D0E9448339A
:1021D000892F082E000C990B8E159F05A9F480916C
:1021E000FD038C9DA0018D9D500D112455954795A3
:1021F000559547954B3A08F04AEA98016091FC03DF
:102200008091FB030E94C7089B0CF1E0CF1AD10814
:10221000B9F68FEFE81AF80A9ECF87FFDACF8A0D5A
:10222000D8CF815080932B03BC82A6CF90E001963B
:102230006091640170E00E94563380932B038C837D
:102240009BCFEF92FF921F93CF93DF93EC0110E0AF
:10225000EE24EA94F12C60916401161770F00E944C
:10226000DD0E9A818C8190FF2AC08F5F8C83DF9175
:10227000CF911F91FF90EF90089520916201422F1E
:10228000410F5527551FCA019A01220F331F280FEE
:10229000391F225D3C4F4091FD034B3A08F04AEA5A
:1022A00070E0C7010E945633962F8C816091FC0329
:1022B000199F800D11240E94C7081F5FCCCF815049
:1022C000D5CF9091FA0390FF14C0909162012091B4
:1022D000630133E0939FF0011124E25DFC4F9217FC
:1022E00010F00C94DD0E8183608342839F5F3396F0
:1022F000F6CF08950F931F93CF93DF9300D00F92E3
:10230000CDB7DEB78C0180912D0381110AC09E01EB
:102310002F5F3F4F4AEA6FEF0E94C7088A81809380
:102320002D03F8016481613069F080912D0340E054
:10233000662361F040E0623011F440912D0380E0AB
:1023400060E004C060912D0340E080E00E946111D4
:10235000F801848190E0019663E070E00E945633BA
:1023600084830F900F900F90DF91CF911F910F9169
:102370000895CF93DF9300D00F92CDB7DEB7909141
:10238000FA0390FF0DC04B3A08F04AEA9E012F5F16
:102390003F4F0E94C7084B8169818A810E94611169
:1023A0000F900F900F90DF91CF910895CF93DF930F
:1023B000EC01EAEFF3E0438162818C810E94B91164
:1023C0008C818F5F8C83DF91CF910895CF93DF93C2
:1023D000EC01EC81F0E0E15DFA4F4491EAEFF3E0CB
:1023E000628181810E94B9118C818F5F8C83DF9122
:1023F000CF9108959F92AF92BF92CF92DF92EF92CA
:10240000FF920F931F93CF93DF937C015B016A01CF
:1024100080919A0201E010E08A3010F40AE010E0A6
:10242000C1E0D0E0F894B501C701F6010995982EF6
:102430000E94740A911004C021960C171D076CF4B9
:10244000892DDF91CF911F910F91FF90EF90DF9039
:10245000CF90BF90AF909F900895CC9F9001CD9F5B
:10246000300D300D112490E080E045E34A95F1F7FE
:102470000000019682179307C1F7D4CF80917002B4
:10248000811110C08091D80080618093D8008AE1CA
:102490008A95F1F700C08091D90080FF0AC081E0E1
:1024A0008093700281E090917002913009F080E099
:1024B000089582E0809370020E949D0610922B087E
:1024C000F1CF0E943E12882351F0E0911208F09162
:1024D0001308309721F00190F081E02D099480E0FD
:1024E00008950F931F930E943E12882321F01F919D
:1024F0000F910C943C080E943C0800919B021091A3
:102500009C0220919D0230919E02600F711F821FDC
:10251000931F1F910F9108951F93CF93DF93162F51
:102520008A3031F481E0DF91CF911F910C94311307
:102530008D3011F480E0F7CFC0910808D0910908E0
:1025400096E0FE01A2E0B8E001900D929A95E1F7C5
:10255000803EA8F186E0FE0111928A95E9F7C091CC
:102560000808D0910908111136C046E050E0BE01BC
:1025700082E098E00E94D9339E0122503440892B9A
:10258000A9F52A5F3F4F4091FF03642F70E0C90116
:102590000E942833481B463010F4240F311D2115AA
:1025A00074E0370710F030E020E02E5F3B4F3093AF
:1025B000090820930808DF91CF911F910895F6E054
:1025C0008F9FB0011124615D794F46E050E0CE014C
:1025D0000E94C333C4CF9E012A5F3F4FFE012E17D6
:1025E0003F0719F2808180958193F9CFC90146E0B8
:1025F000969587954A95E1F741E050E0BA0102C00F
:10260000660F771F8A95E2F7CB0160910004709105
:102610000104862B972BB9016B5F7F4FE6E076951F
:102620006795EA95E1F702C0440F551F6A95E2F7F6
:10263000842B952B9093010480930004A2CF1F93C9
:10264000CF93DF93EC01162FFE018491811104C01A
:10265000DF91CF911F910895612F0E948C122196D6
:10266000F3CFCF93382FE0910808F0910908E2509A
:10267000F4402091FF03622F70E0CF010E942833C5
:10268000281B822F332369F066E00E943C33C82F59
:10269000C15010F4CF91089560E080E20E948C1246
:1026A000F7CF9F01280F311D2115344018F080E02D
:1026B000F0E0E0E08E0F9F2F911D8E5F9B4F909377
:1026C000090880930808E6CF0E941F1381E00C944C
:1026D0003113CF92DF92EF92FF926B017C010E9447
:1026E000B108B701A60188E090E0FF90EF90DF907D
:1026F000CF900C941534AF92BF92CF92DF92EF92AD
:10270000FF920F931F93CF93DF9300D00F92CDB71B
:10271000DEB7082FF62E142FE22E9091FA0390FFC9
:102720003FC0E92FE695AE2FB0E0A653BE4F8C9187
:10273000809328039E7F923009F040C04B3A08F006
:102740004AEA9E012F5F3F4F6F2D802F0E94C708DE
:102750004B8169818A810E9461118091FB03801302
:1027600008C08091FC038F1104C08091FD03811784
:1027700029F080912A03826080932A030093FB034F
:10278000F092FC031093FD03EE2051F06091FA03E8
:102790007091FB038091FC039091FD030E946913EB
:1027A0000F900F900F90DF91CF911F910F91FF909D
:1027B000EF90DF90CF90BF90AF900895823019F4E2
:1027C0001091FD03CACF863019F40091FB03C5CFE9
:1027D0008930D9F3893109F6E9518E2F8170D82ECD
:1027E000E695F0E0E65DFA4FA590B490C12CBB24CD
:1027F00060916401C61618F00E94DD0EAECF2C2D3C
:1028000030E0A29EC001A39E900DB29E900D1124B7
:1028100070E00E942833802FD11016C0860F40919F
:102820006201420F532F511D9A01220F331F240FB3
:10283000351F225D3C4F412F1B3A08F04AEA6F2DAD
:102840000E94C708C394D4CF861BE9CFEAEFF3E018
:10285000438128E0421B08F440E021E0628181814D
:102860000C947B13EAEFF3E0438128E0420F08F475
:102870004FEF21E0628181810C947B13EAEFF3E05A
:10288000628128E0621B08F460E021E043818181DD
:102890000C947B13EAEFF3E0628128E0620F08F406
:1028A0006FEF21E0438181810C947B13EAEFF3E029
:1028B000818121E04381628188500C947B13EAEF8F
:1028C000F3E0818121E043816281885F0C947B1376
:1028D0008091FE03882319F081508093FE0360915C
:1028E000FA037091FB038091FC039091FD030C941B
:1028F00069138091FE03833018F48F5F8093FE0389
:102900006091FA037091FB038091FC039091FD03A9
:102910000C946913EAEFF3E083E0808311828FEF78
:1029200082838AEA83831482A8E2B3E012968C91B0
:102930001297836012968C9360817181828193815A
:102940000C946913CF9384E090E00E94EF33C82F7A
:1029500082E290E00E94EF33982F8C2FCF91089560
:10296000CF93DF93CDB7DEB728970FB6F894DEBFCD
:102970000FBECDBF85E0EAEFF3E0DE0111960190D6
:102980000D928A95E1F78091280390912903A091F7
:102990002A038E839F83A8872885409196025091B1
:1029A000970260919802709199023FB7F8948091D4
:1029B000170890911808A0911908B0911A083FBF04
:1029C000841B950BA60BB70B84369105A105B105A9
:1029D00010F4222319F180913501909136018E5720
:1029E0009D4F4091340150E04930510510F048E0CE
:1029F00050E0BE016F5F7F4F0E94E63385E090E0BC
:102A00000E947432892BB1F40E943C0860939602B4
:102A100070939702809398029093990210922A03E0
:102A200081E028960FB6F894DEBF0FBECDBFDF91D0
:102A3000CF91089580E0F5CFCF93DF9300D000D001
:102A4000CDB7DEB740917E0250917F026091800247
:102A5000709181022FB7F89480911708909118080F
:102A6000A0911908B0911A082FBF841B950BA60BD3
:102A7000B70B84369105A105B10568F10E9471126A
:102A80006E5F7F4F8F4F9F4F69837A838B839C83C9
:102A900080912B0190912C018E579D4F40912A01DE
:102AA00050E04530510510F044E050E0BE016F5F4A
:102AB0007F4F0E94E63384E090E00E947432892BBD
:102AC00061F40E943C0860937E0270937F028093C1
:102AD00080029093810281E001C080E00F900F900E
:102AE0000F900F90DF91CF9108956F927F928F9208
:102AF0009F92AF92BF92CF92DF92EF92FF920F938D
:102B00001F93CF93DF930F92CDB7DEB7862E5A0176
:102B10006901682E880F7708C3010E947432892BDF
:102B200009F088C08AE0869DF001879DF00D112490
:102B3000E050FF4F458150E04115510511F041E053
:102B400050E08AE0869DF001879DF00D1124E05051
:102B5000FF4F668177816E577D4FCE0101960E94AF
:102B6000E633F50140815181628173812FB7F8947A
:102B70008091170890911808A0911908B0911A082F
:102B80002FBF841B950BA60BB70B84369105A105AF
:102B9000B10540F4B701C8010E948E0899818917D8
:102BA00009F44FC0082C000C9908C4010E9474322B
:102BB000892B91F0B12C8B2D0F90DF91CF911F912C
:102BC0000F91FF90EF90DF90CF90BF90AF909F90CC
:102BD0008F907F906F9008958AE0889DF001899D85
:102BE000F00D1124E050FF4F458150E0E416F5064A
:102BF00008F4A7018AE0889DF001899DF00D112459
:102C0000E050FF4F668177816E577D4FC6010E946D
:102C1000E633B701C8010E948E0899818913CACF93
:102C20000E943C08F5016083718382839383BB24F7
:102C3000B394C1CFB12CA701B801C6010E94E633FD
:102C4000BACFBB24B394F7CFCF92DF92EF92FF922B
:102C50000F931F93CF93DF9300D000D00F92CDB787
:102C6000DEB76B0185E0E82EF12C03E812E09E014F
:102C70002F5F3F4F46E752E061E080E00E9475150C
:102C8000882349F095E0FE013196A1E7B2E001907A
:102C90000D929A95E1F795E0E1E7F2E0D601019017
:102CA0000D929A95E1F70F900F900F900F900F9063
:102CB000DF91CF911F910F91FF90EF90DF90CF9018
:102CC000089569EE7EEF90E080E00E94213460E09C
:102CD00082E090E00E94033460E083E090E00E9494
:102CE00003341092BF021092C0021092C1021092DF
:102CF000C20260E084E090E00E94033460E082E27F
:102D000090E00E94033460E085E090E00E9403348C
:102D100060E086E090E00E9403346FEF87E090E08F
:102D20000E94033440E050E0BA0188E090E00E9445
:102D3000153460E08DE090E00E94033440E050E004
:102D4000BA0188E190E00E94153460E087E190E0EC
:102D50000E94033440E050E0BA018CE190E00E9410
:102D6000153470E060E080E290E00E94213440E0A1
:102D700050E0BA0188E190E00E94153440E050E054
:102D8000BA018FE090E00E94153440E050E0BA01B3
:102D900083E190E00C9415341F920F920FB60F92BE
:102DA00011242F933F934F935F936F937F938F9350
:102DB0009F93AF93BF93EF93FF938091E10082FFC6
:102DC00009C08091E20082FF05C08091E1008B7F05
:102DD0008093E1008091DA0080FF24C08091D800C8
:102DE00080FF20C08091DA008E7F8093DA0080918E
:102DF000D90080FF9DC080E189BD82E189BD09B411
:102E000000FEFDCF81E080932B0880911E08811188
:102E100009C00E949D060E9468078091E2008460BC
:102E20008093E2008091E10080FF17C08091E20072
:102E300080FF13C08091E2008E7F8093E20080913A
:102E4000E20080618093E2008091D80080628093EC
:102E5000D80019BC85E080932B088091E10084FFA5
:102E60002BC08091E20084FF27C080E189BD82E110
:102E700089BD89B5982F917080FFFBCF8091D800D4
:102E80008F7D8093D8008091E1008F7E8093E10058
:102E90008091E2008F7E8093E2008091E200816069
:102EA0008093E20080912C08882309F447C084E0D5
:102EB00080932B0880912B088091E10083FF27C02D
:102EC0008091E20083FF23C08091E100877F80939F
:102ED000E10082E080932B0810922C088091E100A1
:102EE0008E7F8093E1008091E2008E7F8093E200EC
:102EF0008091E20080618093E20042E060E080E047
:102F00000E9436078091F00088608093F000FF9166
:102F1000EF91BF91AF919F918F917F916F915F9151
:102F20004F913F912F910F900FBE0F901F901895CA
:102F300019BC10922B0810921E0874CF8091E300E8
:102F400087FD93E090932B08B5CF78941F921FB61E
:102F50001F9211248F939F93AF93BF938091170873
:102F600090911808A0911908B0911A080196A11D16
:102F7000B11D8093170890931808A0931908B09377
:102F80001A08BF91AF919F918F911F901FBE1F9004
:102F900018959C014FB7F8948091170890911808E4
:102FA000A0911908B0911A084FBF821B930B089586
:102FB0002FB7F8948091170890911808A0911908DC
:102FC000B0911A082FBF08950E94D8179C019091C4
:102FD0001E0380911F03982B21F030931B03209335
:102FE0001A039091200380912103982B21F03093B4
:102FF000190320931803E0911208F09113083097F9
:1030000049F082E080931C030480F581E02D8CE17F
:1030100093E00994089590E080E00E94780890E0A1
:1030200080E00E94620810926302109262020E9485
:10303000670C86E0ECE1F3E0DF011D928A95E9F789
:103040001092160310921503109217030C94E417B4
:10305000609338087093390880933A0890933B083E
:103060000C940B180F931F936091380870913908D6
:1030700080913A0890913B088B019C010C701127BC
:10308000222733270C3011052105310529F4606111
:103090001F910F910C9428186F7EFACF0F931F93F6
:1030A00041E050E060E070E004C0440F551F661F2F
:1030B000771F8A95D2F7CB01BA01609570958095FC
:1030C0009095009138081091390820913A08309174
:1030D0003B0860237123822393231F910F910C944B
:1030E0002818909161028095892380936102282F8E
:1030F000277091F4282F082E000C330B921713061B
:1031000059F09091C40292FD07C0859585958595EB
:103110000E944E18109261020895CF93C091C4028C
:10312000C2FB992790F9981799F080FBC2F9C093D8
:10313000C4026091C30284E090E00E9403346C2FCB
:1031400082E290E00E94033482E0CF910C947118E7
:10315000CF9108950F931F9341E050E060E070E03D
:1031600004C0440F551F661F771F8A95D2F78091C0
:10317000380890913908A0913A08B0913B088A012B
:103180009B01082B192B2A2B3B2BC901B8011F913E
:103190000F910C9428186093BF027093C002809323
:1031A000C1029093C2020C940B1810926402E4EFD7
:1031B000F1E086E0DF011D928A95E9F70C940B1887
:1031C0001F93CF93DF93CDB7DEB7AA970FB6F894CE
:1031D000DEBF0FBECDBF8DE298E02091F100FC0173
:1031E0002193CF01F8E085339F07B9F780912E082E
:1031F000833009F470C0B8F4813009F447C08230DC
:1032000009F4B1C08091E80083FF7EC280912D084F
:1032100090912E089A3008F077C2E92FF0E0E95B30
:10322000FB4C0C948C338A3009F48CC08B3009F43D
:103230006FC0893039F780912D08813219F780915C
:103240003108909132080297E8F68091E800877F74
:103250008093E8008091E80082FF38C09091F300ED
:103260008091F200029731F48091F100813011F0E9
:10327000863021F48091F100809320088091E8004D
:103280008B778093E8000E941707BCCF80912D08B0
:10329000813A09F0B7CF8091E800877F8093E800FA
:1032A0008091310890913208892B61F468E081E2C5
:1032B00098E070E00E94C9078091E8008B778093C6
:1032C000E800A0CF60E090E080E0F3CF80912B0891
:1032D0008111C0CF97CF80912D08813A09F092CF0C
:1032E0008091310890913208892B09F08BCF809121
:1032F000E800877F8093E8008091E80080FFFCCFA2
:10330000809165018093F1008091E8008E77B9CFBC
:1033100080912D08813209F075CF8091310890910C
:103320003208892B09F06ECF8091E800877F809367
:10333000E8000E94170780912F08809365010E9482
:10334000D51860CF80912D08813209F05BCF809134
:10335000E800877F8093E8000E941707809130087B
:1033600080931F084FCF80912D08813A09F04ACFF2
:103370008091E800877F8093E8008091E80080FFDB
:10338000FCCF80911F08BECF803899F0823809F0B9
:10339000BBC1809131088F70873008F0B5C1809330
:1033A000E9008091EB0085FB882780F91092E90005
:1033B00006C08091290890912A089111826090910D
:1033C000E800977F9093E8008093F1001092F1005D
:1033D0008091E8008E7794C1882309F482C18230FD
:1033E00009F092C180912F08811185C18091310827
:1033F0008F702FEF280F263008F086C18093E900E8
:103400002091EB0020FF77C1933031F48091EB00E5
:1034100080628093EB006FC19091EB00906190937C
:10342000EB0021E030E001C0220F8A95EAF72093FB
:10343000EA001092EA008091EB008860EACF8111E7
:1034400063C110912F081F778091E3008078812B52
:103450008093E3008091E800877F8093E8000E94DA
:1034600017078091E80080FFFCCF8091E30080681F
:103470008093E30082E0111183E080932B0844C124
:103480008058823008F040C180912F089091300818
:103490008C3D23E09207A1F583E08A838AE2898349
:1034A0004FB7F894DE01139620E03EE051E2E32F9F
:1034B000F0E050935700E49120FF03C0E295EF70D5
:1034C0003F5FEF708E2F90E0EA30C0F0C7968D938B
:1034D0009D932F5F243159F74FBF8091E800877F7C
:1034E0008093E8006AE270E0CE0101960E94C9076D
:1034F0008091E8008B778093E80006C1C096E7CF03
:103500004091310850913208292F3327233031055B
:1035100009F444C078F52130310509F46FC08BE31C
:1035200090E0EEE2FCE02230310509F0EDC02091A0
:10353000E800277F2093E800209133083091340879
:103540008217930708F49C0140E02115310509F02A
:1035500064C0411162C08091E80082FDC9CF8091B2
:103560002B08882329F2853019F28091E80083FF27
:10357000F2CFBECF21323105A9F12232310509F057
:10358000C3C04115510509F443C04130510509F04C
:10359000BBC08BE790E0E3E7FBE0C9CF9927813020
:1035A0009105C1F0009759F0029709F0ADC0EBE723
:1035B000FCE0E4918E2F90E0EBE7FCE007C0E3EA4B
:1035C000FCE0E4918E2F90E0E3EAFCE0009709F440
:1035D0009BC0ADCFEDE8FCE0E4918E2F90E0EDE8EC
:1035E000FCE0F4CF4115510571F04130510509F06F
:1035F0008BC089E090E0E9E5FCE099CF82E190E0C2
:10360000E9E6FCE094CF89E090E0E0E4FCE08FCFD5
:1036100080E490E0EEEEFBE08ACF80912B088823D7
:1036200009F466CF853009F463CF8091E80083FD0B
:103630005FCF8091E80082FD8ECF8091E80080FF0F
:1036400084CF9091F3008091F2002115310519F09B
:103650008830910550F041E0089709F040E08091F2
:10366000E8008E778093E80070CF44914093F1009A
:103670003196215031090196E8CF803809F044C0D5
:103680008091E800877F8093E80080912C088093E8
:10369000F1009ECE811138C010912F081230A0F594
:1036A0008091E800877F8093E80010932C080E94A7
:1036B0001707112311F084E005C08091E30087FD16
:1036C000FACF81E080932B0842E061EC81E00E9418
:1036D000360742E261EC82E00E94360780912B08B7
:1036E00013C080912F08813079F481E0933009F084
:1036F00080E080932A081092E9008091E800877F9B
:103700008093E8000E9417078091E80083FF0AC0B9
:103710008091E800877F8093E8008091EB008062D1
:103720008093EB00AA960FB6F894DEBF0FBECDBF14
:10373000DF91CF911F9108951F920F920FB60F92B4
:1037400011242F933F934F935F936F937F938F93A6
:103750009F93AF93BF93CF93DF93EF93FF93D0915A
:10376000E900DF708091EC00C82FC17080FDC0E8D7
:103770001092E9008091F000877F8093F0007894A8
:103780000E94E0181092E9008091F0008860809318
:10379000F000CD2BCF70C093E900FF91EF91DF9146
:1037A000CF91BF91AF919F918F917F916F915F91D9
:1037B0004F913F912F910F900FBE0F901F90189532
:1037C0008823B1F19CEF980F913A70F4E4EFF1E0A7
:1037D0009191891303C0DF0111971C9291E0EA3F98
:1037E000F907B1F70C94670C90E2980F983050F4F9
:1037F000877091E001C0990F8A95EAF7892F0E949E
:10380000600CF0CF9BE5980F933020F490E080E0BF
:103810000C94780898E5980F973120F490E080E0B8
:103820000C9462088D3E20F00E945D090C94E41710
:103830000895CF93C82F882309F456C08CEF8C0FBE
:10384000813AF8F4E4EFF1E08AEF91E0DF012D91A5
:10385000C21759F08A179B07D1F76C2F82EF91E0BE
:103860000E944808CF910C94670C2191C21303C0A9
:10387000DF0111971C928E179F07B9F70E94670C02
:10388000ECCF80E28C0F883068F4C77021E030E024
:1038900001C0220FCA95EAF780916402822B8093BF
:1038A0006402E0CFEBE5EC0FE33040F4F0E0EA59DE
:1038B000FE4F808190E0CF910C947808E8E5EC0F02
:1038C000E73150F4F0E0EE0FFF1FE759FE4F808123
:1038D0009181CF910C946208CD3E30F08C2F0E94E4
:1038E000180ACF910C94E417CF9108951F93CF93AA
:1038F000DF93182FEB010E94191C209731F4812FC0
:10390000DF91CF911F910C94E01B8FE99FE001970D
:10391000F1F700C000002197F0CF0F931F93CF93D2
:10392000DF93C62FD42F022FFC0182818823A1F0C0
:10393000609337080E94D817909336088093350813
:10394000C77081E001C0880FCA95EAF7DF91CF9177
:103950001F910F910C94920D80913708681337C016
:1039600080913508909136080E94C917883C9105CE
:1039700070F510E21D0FCD17B9F080E28C0F883082
:1039800040F4C77081E001C0880FCA95EAF70E9431
:103990008B0D183048F481E09D2F977001C0880F7F
:1039A0009A95EAF70E94920D70E060E0802F0E94E5
:1039B000761C183098F4D77081E001C0880FDA9532
:1039C000EAF7DF91CF911F910F910C948B0DC77087
:1039D00081E001C0880FCA95EAF7F3CFDF91CF915C
:1039E0001F910F9108950E943E1281110C94D817D7
:1039F0000E947112CB0108956091FA03669570E000
:103A00004BE050E082E591E00E94CC33892B19F421
:103A100081E0809329030E94F31C909323038093F9
:103A2000220380912A03846080932A030895909151
:103A3000FA0390FF3BC0917081112EC09260909369
:103A4000FA0380912A03816080932A03662351F050
:103A50006091FA037091FB038091FC039091FD0348
:103A60000E9469136091FA03669570E04BE050E0A4
:103A700082E591E00E94CC33892BA9F00E94AA082C
:103A800081E08093250320E04091FD036091FC03D9
:103A90008091FB030C947B13853210F09864CFCF98
:103AA000880F982BCCCF0E94FC1CEACF0895809100
:103AB000FA038695815009F484E261E00C94171DA5
:103AC0008091FA0386958F5F853208F081E061E08E
:103AD0000C94171D9091FA0390FF07C096959817C4
:103AE00020F0961710F40C94601D61E00C94171DE3
:103AF000CF92DF92EF92FF920F931F93CF93DF93BA
:103B00000F92CDB7DEB7EE24E394F12C09E812E072
:103B10009E012F5F3F4F4AE752E063E082E00E9440
:103B20007515D82E882339F10091AC02802F90E0D2
:103B30009C0126543D4F79011981F9018081181BA0
:103B4000C12E80E00DC0CA94F70180818F5F808311
:103B500001111CC070E060E08AEA0E94761C8D2D85
:103B60001C148CF3912F17FD90E0191B111113C039
:103B700081110E94580C8D2D0F90DF91CF911F91D4
:103B80000F91FF90EF90DF90CF900895013039F7BB
:103B90000E94571DE4CF1F5FF70180818150808311
:103BA000011107C070E060E089EA0E94761C8D2D4B
:103BB000DDCF0130E1F70E94601DF9CF4F925F9297
:103BC0006F927F928F929F92AF92BF92CF92DF922D
:103BD000EF92FF920F931F93CF93DF9300D000D00B
:103BE0000F92CDB7DEB77C01FC0183819481892BD4
:103BF00039F01081D180812F8D218F3F09F0EEC5E2
:103C00000F900F900F900F900F90DF91CF911F9119
:103C10000F91FF90EF90DF90CF90BF90AF909F906B
:103C20008F907F906F905F904F9008950E949E0CB0
:103C3000082F682F89819A810E94380DE12FF0E0CA
:103C400027E0D29EE00DF11D112436E4039FE00D24
:103C5000F11D1124EE0FFF1FE455FF4F0591149144
:103C6000083A8DE5180709F419C108F088C00C3727
:103C7000110509F47CC108F06BC00A37110509F47D
:103C80009CC10B37110509F489C1043FECE51E07FF
:103C900009F4AAC108F0ACC0093D2CE5120709F4EB
:103CA0009FC10A3D3CE5130709F4AAC1083D8CE514
:103CB000180709F491C1F7018281882309F49FC58F
:103CC000109237080430FDE51F0708F09CC10B3F38
:103CD0002CE5120730F4C80182509C45449708F047
:103CE00097C10E94A2149093C4028093C302003132
:103CF0008CE5180709F45FC208F0DBC10830ECE579
:103D00001E0709F446C208F0ADC104302CE51207C5
:103D100009F431C208F093C102308CE5180709F4A8
:103D200024C28091C302826003301C4509F420C282
:103D30006091C3021091C40284E090E00E940334B9
:103D4000612F82E290E00E9403340E94D51872C075
:103D5000063AEDE51E0709F45EC008F091C00D3784
:103D6000110509F092CF81E00E948D0AF70192813E
:103D7000992309F40FC10E94920D89E102C10C3A06
:103D80002DE5120709F4B4C0D8F4F70192810A3A7C
:103D9000FDE51F0709F494C008F48EC08091C402A9
:103DA0008170992309F497C0882309F492C084E0B4
:103DB0000E948D0A0E94920D80E50E94191C7BCF03
:103DC0000E3A3DE5130709F4BFC008F4AEC00F3A40
:103DD0009DE5190709F059CF81E00E948D0AF7018E
:103DE0009281992309F4BFC00E94920D8AE2E5CF27
:103DF000063F9CE5190709F4FFC008F4F9C027E263
:103E000045EE66EE073FFCE51F0709F054CFC701FA
:103E10000E948D1C0FC0F7018281882359F061E058
:103E200083E090E00E94033461E070E080E090E085
:103E30000E94CB1880916102877009F4E1CEF701EE
:103E40008281882309F4DCCE8091C40282FDD8CE21
:103E500082E00F900F900F900F900F90DF91CF9115
:103E60001F910F91FF90EF90DF90CF90BF90AF9098
:103E70009F908F907F906F905F904F900C947118EF
:103E8000F70182818823B1F262E083E090E00E9432
:103E9000033462E070E080E090E0CACFF7018281F5
:103EA000882331F082E00E94AA180E943218C2CF03
:103EB00082E00E944E18F9CF83E09923D1F3F3CF2B
:103EC00084E0992319F00E94AA18B4CF0E944E18DA
:103ED000B1CF81E06DCF882349F084E00E948D0A44
:103EE0000E948B0D80E50E94E01BE5CE81E0F6CFBD
:103EF0008091C4028170F7019281992359F088233F
:103F000039F084E00E948D0A0E94920D8FE455CF13
:103F100081E0F8CF882339F084E00E948D0A0E9466
:103F20008B0D8FE4E0CF81E0F8CF8091C4028170E7
:103F3000F7019281992321F08111CBCF8AE43DCF03
:103F40008111D4CF8AE4CFCF8091C4028170F70170
:103F50009281992321F08111DBCF8DE42ECF811145
:103F6000E2CF8DE4C0CF0E948B0D8AE2BCCF81E00E
:103F70000E948D0AF7019281992331F00E94920DDF
:103F800086E00E94191C56CF0E948B0D86E00E948D
:103F9000E01B50CF0E948B0D89E1F9CF81E00E9498
:103FA0008D0AF7019281992321F00E94920D8BE1F5
:103FB000E8CF0E948B0D8BE1EACF81E00E948D0A51
:103FC000F7019281992321F00E94920D8DE1D9CFC2
:103FD0000E948B0D8DE1DBCF26E241EE61EE17CF23
:103FE00027E245EE65EE13CF26E241EE60EE0FCFFD
:103FF00027E245EE64EE0BCF26E241EE62EE07CFFC
:1040000028E241E0EFCF02363DE5130709F469CE1F
:104010000631ECE51E0709F09AC4809164028A7AA1
:1040200091E009F490E09093FB0169E2811165E36E
:1040300082EF91E00E9448080E94670CFBCE8091BD
:10404000C30280610630ECE51E0709F491C080913F
:10405000C302886007301C4508F48AC08091C302FF
:10406000806286C08091C3028D7F0C302CE51207E0
:1040700009F47EC058F40A308CE5180709F493C09F
:1040800008F48BC08091C3028E7F72C08091C302FE
:10409000877F0E30ECE51E0709F46AC08091C302E9
:1040A0008B7F0F301C4508F463C08091C3028F7E64
:1040B0005FC00D3F2CE5120709F479C068F50431A3
:1040C0008CE5180709F48BC080F40231ECE51E077B
:1040D00009F475C08091C3028F7B03311C4508F43D
:1040E00047C08091C302837F43C00B3F2CE512077A
:1040F00009F445C008F049C005311C4509F018CE47
:104100008091C30282FB992790F921E0922790FBCE
:1041100082F990FB83F92CC001309DE5190709F461
:1041200054C088F48091C40283600F3FFCE51F07F0
:1041300049F18091C4028D7F01151D4518F18091D0
:10414000C4028C7F1FC003303DE5130709F456C03D
:1041500008F44EC002361D4509F0EACD9091C30225
:10416000892F8F7E94FF806103C08091C30281609C
:104170008093C302DDCD8091C3028460F9CF80912A
:10418000C40281608093C402D3CD8091C402826056
:10419000F9CF8091C3028064EBCF0E94D518809143
:1041A000C3028068E5CF8091C3028C60E1CF80912B
:1041B000C4028E7FE7CF8091C3028F7DD9CF0E944A
:1041C000D5188091C3028F77D3CF8091C402982FE6
:1041D000909591708E7F892B90FB81F9D3CF0E94AF
:1041E000D5189091C302892F97FB87F98058C0CFCB
:1041F00061E08EE090E00E9403349ACD60E0F9CF58
:104200008091FB0181110FC089E2E4EFF1E02AEF18
:1042100031E09191891303C0DF0111971C922E1791
:104220003F07B9F709CF85E3F0CF81608093FA03A8
:1042300061E086950E94171DFDCD47E55DE160E6D2
:104240007DE10E94A408F6CD40E65DE167E57DE1F1
:10425000F8CF4FE554E166E574E1F3CF4EE354E166
:104260006AE474E1EECF46E254E162E374E1E9CF3F
:1042700042E354E166E274E1E4CF49E754E168E6E1
:1042800074E1DFCF61E081E0D5CF65E082E00E949C
:104290006A1DD0CD68E086E0FACF64E18FE0F7CF09
:1042A00067E185E1F4CF62E289E1F1CF61E083E289
:1042B000C1CF0E94D5188FEF94E3ECE0815090407D
:1042C000E040E1F700C000000E942B0881E05FC3DE
:1042D00080E05DC3812F902F0E94100DD82E6AC3FD
:1042E000212F2F70C22E107F19F0C29420EFC2220E
:1042F000DD20B9F0CC2069F080E2800F883010F02A
:10430000811009C080916402C82AC09264020E9490
:10431000670C802F4BC080916302C82AC092630251
:10432000F6CF802F0E94E01BCC2009F441C0005E34
:10433000083010F0811004C08C2D0E94600C06C063
:10434000C09480916302C822C09263020E94670CED
:104350002FC0312F3F70C32E107F103219F0C2943E
:1043600090EFC922882089F081E0881609F488C07E
:10437000DD2009F492C0992009F488C0F7018581F5
:1043800080FFC7CF8F70858381C02091C40222FF38
:1043900054C0DD2009F44AC0CC2039F08091640279
:1043A000C82AC09264020E94670C80E00E94191C17
:1043B000EA2DE850FF0B349710F40E946112BB20E5
:1043C000A9F08091610280FD11C0F70112828595EC
:1043D000859585950E94AA18C7010E94DE1D8091CF
:1043E00061028595859585950E944E1885E0F701B7
:1043F000DE01119601900D928A95E1F789819A81EB
:104400000E94100D9A81E981F0E027E0929FE00D73
:10441000F11D112436E4839FE00DF11D1124EE0FF0
:10442000FF1FE455FF4F85919491EACB80E00E94F5
:10443000E01BCC2009F4BCCF7FCFDD20A1F0909110
:1044400065028C2D892B911003C00E94920DB0CF74
:10445000E1E09E12FACF22FDABCF981709F4A8CF66
:1044600080936502A5CF911006C00E945A0C8C2D36
:104470000E948B0D9DCFF1E09F1609F499CFF5CFE7
:10448000DD2031F025E0291508F492CF8C2DDDCF09
:1044900034E0391508F48CCFEACF992041F3F9E3E1
:1044A0008F1295C12FEF37EE83E0215030408040CE
:1044B000E1F700C000008BC1812F8695869583703F
:1044C00061F0813009F074CFC8019370D11002C03F
:1044D00090E080E00E9462086BCFC8019370D11019
:1044E00002C090E080E00E94780862CF802FDD203B
:1044F00029F00E94180A0E94E4175ACF0E945D0911
:10450000FACF812F837009F066C0D11051CF802F70
:10451000829586958770880F880F602F6F70462E62
:10452000512C712C612C082E04C0440C551C661CA7
:10453000771C0A94D2F740E050E0BA0104FF0FC0A4
:104540004FE050E060E070E004C0440F551F661F6C
:10455000771F8A95D2F74095509560957095812F79
:10456000869586958370823019F1D8F40091BF0248
:104570001091C0022091C1023091C202813069F0D5
:104580004429552966297729CB01BA016023712373
:10459000822393230E94CB180BCF402A512A622AF0
:1045A000732ACB01BA016429752986299729F2CF8C
:1045B00044295529662977290091BF021091C0022C
:1045C0002091C1023091C202CB01BA01602771274C
:1045D00082279327DFCF8695DD2011F0812F817010
:1045E000882309F4E5CE802F829586958770880F01
:1045F000880F602F6F70462E512C712C612C082E65
:1046000004C0440C551C661C771C0A94D2F740E089
:1046100050E0BA0104FF0FC04FE050E060E070E0EE
:1046200004C0440F551F661F771F8A95D2F7409527
:10463000509560957095812F869586958370823010
:1046400019F1D8F4009138081091390820913A08EE
:1046500030913B08813069F0442955296629772932
:10466000CB01BA0160237123822393230E9428186F
:104670009FCE402A512A622A732ACB01BA016429AB
:10468000752986299729F2CF442955296629772942
:10469000009138081091390820913A0830913B0870
:1046A000CB01BA016027712782279327DFCF1F70C4
:1046B000DD2029F0812F0E94AA18802FC6CE802FDE
:1046C0000E948B0D812F0E944E1872CE802F92EF88
:1046D000891609F43FC0981570F0E0EF8E16D1F0FE
:1046E000F1EF8F1691F0DD2009F46CC0911011CE1E
:1046F000812F8F7133C023EF821699F134EF83122B
:10470000F2CF8091C40282FF3FC0812F8F71DD20E4
:10471000D1F224C0DD20C9F084E0891508F448CE28
:104720001F7161E070E080E090E004C0660F771FC9
:10473000881F991F1A95D2F70091380810913908EF
:1047400020913A0830913B08ADCF95E0991508F4D7
:104750002FCEE6CF812F8F71D110B5CF0E94AA182E
:1047600027CE60E070E0CB01DD2009F47FCF1F7120
:1047700061E070E080E090E004C0660F771F881F62
:10478000991F1A95D2F772CFDD2089F01F71812F02
:104790000E94AA188091C40282FD07C0E8E01E9F13
:1047A000C0011124836080936102812FD7CF81E003
:1047B0000E947118F1E0F91508F0FACD82E00E942C
:1047C0007118F6CD992039F0893309F46BCE802F1A
:1047D0000E94E01BEDCD812F8F7175CF85E0DE014A
:1047E000119601900D928A95E1F7F7012281898156
:1047F0009A8121111BCA0E94100D082F1FCA063171
:10480000FCE51F0709F4FCCC8091640282720D3C28
:104810002CE5120709F431CD08F064C0073C9CE593
:10482000190709F416CDE0F5043CFCE51F0709F46F
:1048300004CD40F5033C1C4509F0ABC08091FA0360
:1048400080FFF3CC8E7F8093FA036091FA0370911E
:10485000FB038091FC039091FD030E9469130E9469
:10486000AA0880912A03816080932A03FFEF20E742
:1048700032E0F15020403040E1F700C000000E94DB
:10488000DD0ED8CA053C9CE5190709F4DDCC46E5E8
:1048900054E16FE574E1063C1C4509F4D2CC79C0C3
:1048A0000A3CFCE51F0709F4DECC70F4083C3CE54B
:1048B000130709F4D3CC4AE454E16EE374E1093CF4
:1048C0001C4509F4BECC65C00B3CECE51E0709F4A1
:1048D000CFCC48E654E169E774E10C3C1C4509F48F
:1048E000B0CC57C0023D2CE5120709F4D6CC98F4A1
:1048F0000F3C8CE5180709F4C8CC08F4C3CC003D84
:10490000ECE51E0709F4C6CC6EE089E0013D1C45CC
:1049100009F4BDCC3EC0053D2CE5120709F4C3CC1B
:1049200060F4033D8CE5180709F4BACC61E088E136
:10493000043D1C4509F47ECC2CC0063DECE51E0769
:1049400009F4B4CC0E351D4509F474CA22C00B35E8
:104950002DE5120709F4BACC58F401158CE51807B7
:1049600009F4A7CC0F3D1C45A1F40E94611662CA50
:104970000C35EDE51E0709F4ABCC0D351D4549F4AA
:104980008091C40282FB882780F991E089270E94E8
:104990008D18F701828110810181882309F49ACC56
:1049A000812F902F0E949E0CD82E682F812F902F40
:1049B0000E94380DE12FF0E027E0029FE00DF11D8D
:1049C000112436E4D39EE00DF11D1124EE0FFF1FDC
:1049D000E455FF4F859194910E94D00A8C01882E56
:1049E000F701D280958092945FE0952280916102D8
:1049F0008770C1F0BD2CDD20B1F0812F807F803425
:104A000021F080E2800F883068F08091C40282FD3E
:104A100009C082E00E947118809161028770BB24F6
:104A2000B3948111B12CA12EA2943FE0A322FBE00C
:104A3000FA1508F4BDCCEA2DF0E0EF5AFB4C0C94CB
:104A40008C331F93CF93DF9380912E02807FA9F444
:104A500080912B02882389F080916002D0912F02EF
:104A60006091290270912A02A0912C02B0912D022E
:104A7000C62FC72316E0D81304C0DF91CF911F9132
:104A8000089590E0109711F0CF3F19F401968770C8
:104A9000F2CF189F9001199F300D1124F901E05DAC
:104AA000FD4F41814713F2CF40814613EFCF428142
:104AB0004111ECCF438154814A1B5B0B483C5105AB
:104AC00028F780912E028F70806180932E02F90169
:104AD000EB5CFD4F80818F708061808389E292E082
:104AE0000E94DE1DDF91CF911F910C94940CAF9228
:104AF000BF92CF92DF92EF92FF920F931F93CF93CB
:104B0000DF93CDB7DEB761970FB6F894DEBF0FBE67
:104B1000CDBF8C0185E0F801DE011D9601900D925C
:104B20008A95E1F7F801E28089E2A82E82E0B82EAA
:104B300060912C0270912D026115710509F432C14A
:104B40009091290240912A02892F84238F3F09F4F2
:104B500029C120813181C380D480F0902B02F601DD
:104B6000E61BF70BFF2009F4E8C080912E02582FB6
:104B7000507FE83CF10508F0ABC0511177C0FE2C26
:104B8000431321C092131FC0E1101DC08F708061BC
:104B900080932E02C5010E94DE1D80912E02F80135
:104BA00085838F2D61960FB6F894DEBF0FBECDBF03
:104BB000DF91CF911F910F91FF90EF90DF90CF90F9
:104BC000BF90AF900895CD2829F0822F83238F3F87
:104BD00009F003C180E0F82FF170DF2E80FF3CC0A8
:104BE0008091600240912F0256E0841315C02D87FA
:104BF0003E878D859E850E94F50C292F22952F706A
:104C00002230F0F0243018F59F70F1F0F801958112
:104C1000907FD1F4D12C1EC090E0589FF001599F95
:104C2000F00D1124E05DFD4F6181361306C06081F7
:104C3000261303C06281E6120FC001968770D5CF9C
:104C40009F7011F0882331F3805E883018F3C8011B
:104C50000E94DE1DFD2CA5CFEE2009F4A2CF80918D
:104C60002E02816080932E02F12C9BCF431306C04D
:104C7000921304C0F801EE2009F479C0C8010E9423
:104C8000640D882309F1EE20F9F080912E02803224
:104C900070F02091290230912A0238872F831986DB
:104CA000DB86CA868C87CE0107960E94DE1D86E0D1
:104CB000F801A9E2B2E001900D928A95E1F70E9415
:104CC0002125FF24F3946DCFC8010E94DE1DF9CF8A
:104CD00051110AC089E292E00E94DE1D86E0F501D2
:104CE00011928A95E9F7C0CF43130FC092130DC0FC
:104CF000E1100BC0F8018583C8010E94DE1D86E02B
:104D0000F50111928A95E9F74CCFC8010E94640D14
:104D10008823D1F2EE20C1F280912E02803238F247
:104D20002091290230912A023A8329831B82DD8255
:104D3000CC828E83CE010196B8CFE83CF105F8F61F
:104D4000FE2CEE2009F243131FC092131DC0809168
:104D50002E0280FD10C0982F907F69F0F8018583A6
:104D6000903F31F0982F907F905F8F70892B8583D3
:104D7000C8010E94DE1D86E0F801A9E2B2E00190C0
:104D80000D928A95E1F70DCFC8010E94640D811143
:104D90008ECF80912E02816080932E02C8010E94E6
:104DA000DE1DFFCEEE2009F48FCFC8010E94640DF6
:104DB000F82E882309F488CF86E0F801A9E2B2E052
:104DC00001900D928A95E1F78091290290912A0233
:104DD0000E94F50C0E942125E4CE81E08E25FBCEB9
:104DE0001F93CF93DF93CDB7DEB767970FB6F894D5
:104DF000DEBF0FBECDBF4B8B5C8B6D8B7E8B8F8BE5
:104E00006111109263021A8A198A85E0FE01739675
:104E1000DE011D9601900D928A95E1F786E0FE0174
:104E20003D96DE01179601900D928A95E1F7CE012D
:104E300007960E947725882389F016E0809160020A
:104E400090912F02891349C067960FB6F894DEBF80
:104E50000FBECDBFDF91CF911F91089586E0FE0177
:104E60003796DE01119601900D928A95E1F78A85B9
:104E70009B85892B11F38F81988589238F3FE9F2D8
:104E800020912F0230E0C901019687709927409147
:104E900060024817190671F40E94D51810922F026B
:104EA0001092600286E0E9E2F2E0DF011D928A954D
:104EB000E9F7C3CF96E0929FD001939FB00D1124E4
:104EC000A05DBD4FFE01319601900D929A95E1F7DC
:104ED00080932F020E94940CB0CF819FC0011124B7
:104EE000805D9D4F0E947725882309F4ADCF809186
:104EF000600290E0019687709927809360029ECFB0
:104F00007F928F929F92AF92BF92CF92DF92EF9259
:104F1000FF920F931F93CF93DF93CDB7DEB72F97F9
:104F20000FB6F894DEBF0FBECDBF8E010F5F1F4FCF
:104F30008AE0D8011D928A95E9F789E9C82E81E0B7
:104F4000D82EF12CE12CAA24A394B12C2AEA822E8B
:104F500021E0922EF60181916F018F3F09F443C049
:104F6000F894E82FE295EF70F0E021A18F70A50191
:104F700002C0440F551F8A95E2F7CA01922F982B61
:104F800091A392A18095892382A30E94740A00C0F4
:104F9000E3EAF1E0712C31E021912F3F09F47AC06E
:104FA000A22FA295AF70B0E090968C9190E02F70F8
:104FB00002C0959587952A95E2F780FD6BC0832FF7
:104FC000782A330F8E169F0639F7F60131978081C4
:104FD0008F3F11F00E94760A50EA5A95F1F7F801D6
:104FE000EE0DFF1D70828FEFE81AF80A95E0E916C2
:104FF000F10409F0AFCF4AE050E0B8018FE992E048
:105000000E94D9337C01892B41F08AE0F801AFE995
:10501000B2E001900D928A95E1F71091AA02E11495
:10502000F104D1F181E0809368020E94D817909337
:1050300067028093660280916602909167020E94E7
:10504000C917059778F0AFE9B2E0E12FF0E0E3553A
:10505000FD4F84EA92E02D9121938A179B07D9F79F
:105060001092680281E090E0EF28D1F02F960FB601
:10507000F894DEBF0FBECDBFDF91CF911F910F918E
:10508000FF90EF90DF90CF90BF90AF909F908F9068
:105090007F90089580E094CF809168028111CBCFFA
:1050A0000E943E12D82EE091AA02DE011B967D01DD
:1050B000882309F473C085E01D928A95E9F70E2FC5
:1050C00010E003551D4F80919A028A30A0F544E20A
:1050D00056E1B701C8010E94FA118823D9F148E7C7
:1050E0005DE1B701C8010E94FA11882399F14CE1F2
:1050F00055E1B701C8010E94FA11882359F140EB2C
:1051000054E1B701C8010E94FA11882319F11092E5
:105110009A028091A90290E045E050E0B7018355E2
:105120009D4F0E94D93321E020936F02892B49F5CE
:10513000D12C8D2D9BCF8091690290916A020E94A3
:10514000C917843F914018F680916F02811112C0F7
:1051500080E08CCF80919A028F3F29F08F5F8093FF
:105160009A028A30B0F20E94D81790936A02809314
:105170006902EACF85E0F70111928A95E9F710926A
:105180006F02A091A902B0E0A355BD4F85E0FE01DA
:105190003B9601900D928A95E1F7CBCFF0E0E35575
:1051A000FD4FF89485E0A3E8B2E001900D928A9556
:1051B000E1F765E070E083E892E00E948E0880935A
:1051C00082020E94740AF894E091BD02F0E0E65475
:1051D000FD4F80818B878093890261E070E0C70179
:1051E0000E948E08809388020E94740AF894C090EE
:1051F0008A02D0908B02E0908C02F0908D02809118
:105200006B0290916C02A0916D02B0916E02C81673
:10521000D906EA06FB06D1F0C0926B02D0926C026E
:10522000E0926D02F0926E020E943E1281110EC059
:105230000E943C08C61AD70AE80AF90AC0929B02E3
:10524000D0929C02E0929D02F0929E020E94740A0B
:10525000F89480919502882379F180FF0DC08091A8
:105260008E029091FA0380FF2AC091609093FA0316
:1052700060E086950E94171D8091950281FF09C00C
:1052800020E0409191026091900280918F020E94F3
:105290007B138091950282FF06C08091940288233F
:1052A00021F10E94FC1C8091950283FF03C081E0E4
:1052B00080932503109295020E94740A49CF9E7F25
:1052C0009093FA030E94AA0880912A038160809338
:1052D0002A03FFEF20E742E0F15020404040E1F791
:1052E00000C000000E94DD0EC7CF0E94AA08DBCFDD
:1052F0001F921FB61F9211248F939F93AF93BF935A
:1053000080911608811113C0809117089091180898
:10531000A0911908B0911A084196A11DB11D809362
:10532000170890931808A0931908B0931A08BF9112
:10533000AF919F918F911F901FBE1F901895CDB771
:10534000DEB762970FB6F894DEBF0FBECDBF84B74D
:10535000877F84BF0FB6F894A8958091600088611C
:1053600080936000109260000FBE80E890E00FB65E
:10537000F89480936100909361000FBE85B78068B8
:1053800085BF85B7806885BF82E79AE09093F10179
:105390008093F0010E949D060E9468078091E200C0
:1053A00084608093E200789480912B088823A1F098
:1053B0001091E9001F709091EC00892F817090FD91
:1053C00080E8182B1092E9008091E80083FD0E948C
:1053D000E0181F701093E90082E084BD93E095BD52
:1053E0009AEF97BD80936E0010929B0210929C02E0
:1053F00010929D0210929E020E943E1280933C01E8
:1054000080913C01882309F470C01092600182E20F
:10541000809361010E943E1281110E946731809148
:105420003C0180913C0195E0811190E09093AA02AB
:1054300085E0891B8093A90209E911E04EE9E42E79
:1054400041E0F42ED8018D918D018F3F11F00E9423
:10545000760AE016F106B1F703EA11E03AEAE32E24
:1054600031E0F32EF80181918F018F3F11F00E94FE
:10547000760AE016F106B1F78AE0EDEAF2E0DF0124
:10548000282F1D922A95E9F7EFE9F2E0DF011D923E
:105490008A95E9F790E080E00E94FD33893E9E4FB7
:1054A00011F00E94611682E090E00E94EF33809339
:1054B0000A030E94A2149093C4028093C3020E9424
:1054C0008027EFE3FCE93197F1F700C000000E946C
:1054D00080278091AD0280FF0CC06FEF7FEF90E0DE
:1054E00080E00E9421340E942B0882E280936001B8
:1054F0008FCF83E090E00E94EF33682F70E090E060
:1055000080E00E94CB180E943E12811102C00E94CE
:105510006A310E943E1281110FC31092050380E888
:105520008093FF030E94FF2F6DE070E08BE793E014
:105530000E94E90D892BE9F58091050363E070E095
:1055400081FDFFC288E793E00E94E90D892B89F570
:105550006DE070E088E693E00E94E90D892B49F543
:105560000E943C086058754E894F9F4F60930A080F
:1055700070930B0880930C0890930D08E2E0F4E020
:1055800080E094E0DF019C011D9221503040E1F762
:10559000F0930908E09308088FEF9FEF90930104C0
:1055A0008093000481E080930F0880930E0810928E
:1055B00006038091AB0281113BC090E080E00E9425
:1055C000FD33893E9E4F21F00E9461160E948A148D
:1055D00088E090E00E94F7336093FA037093FB0336
:1055E0008093FC039093FD0380912A038360809352
:1055F0002A036E7F71F40E948A1488E090E00E9472
:10560000F7336093FA037093FB038093FC0390934A
:10561000FD030E94B1080E94AA088091FA0380FF4E
:1056200004C060E086950E94171D81E08093AB0264
:1056300080913C01811106C084E980934A0182E98E
:105640008093490120914A01A22FA295AF70B0E04A
:1056500091963C9191972F7081E090E0BC01022ED1
:1056600001C0660F0A94EAF7462F409543239196AE
:105670004C93919792963C919297362B92963C93AD
:10568000929740914901E42FE295EF70F0E031A14B
:105690004F70042E01C0880F0A94EAF7982F909556
:1056A000932391A392A1892B82A390968C9190E051
:1056B00002C0959587952A95E2F7817020A130E088
:1056C00002C0359527954A95E2F792E020FF90E0D9
:1056D000892B8093BE0290913C0181E098279093A2
:1056E000BD02891B8093AC028DE391E09093130877
:1056F0008093120820E4E22E80912B0800E112E151
:10570000853009F45AC20E948027D82E81110E9448
:105710003C08ADEAB2E0EBE0F3E010E000E0A02EE0
:10572000CD9081918C1509F457C28C25B12CFF24A2
:10573000F394982F9F2109F44AC20E943E128823B5
:1057400099F0BF82A886CF2081E009F480E08987A4
:105750000E94D8178160782F9B878A874F81588550
:1057600069858B850E94F026F801E55FFC4F8081FA
:10577000F826F08280912903882309F464C080917F
:105780002803E091FA03E695E81BE09324038230B6
:1057900009F039C2F0E0EA56FC4FE4910E2F10E018
:1057A00096EEA92E91E1B92E80912503882361F010
:1057B000109225030E94F31C9093230380932203ED
:1057C00010922703109226030E94F31CE0912203FB
:1057D000F09123039C012E1B3F0B2F3F3F4798F571
:1057E0002091B9022223B1F01092B9022091B702A0
:1057F0003091B802821B930B8F3F9F4758F4205D76
:105800003A483093B8022093B70280912A03886007
:1058100080932A038090260390902703E00FF11FC6
:10582000F0932303E093220382E293E0F5010995CC
:105830008091260390912703892B29F4892819F058
:1058400081E08093B9028091BE02E82FEE0FEE0F47
:1058500090914A01A92FA295AF70B0E090962C913B
:1058600030E09F7002C0359527959A95E2F7217038
:10587000332790914901A92FA295AF70B0E090967F
:105880004C9150E09F7002C0559547959A95E2F76C
:10589000CA018170992740FF02C082E090E0822B0C
:1058A0008E2B8093BE021091BD028F70E82FF0E026
:1058B000E655FE4F80819091BC02890F8093BC0217
:1058C000F12C833084F0E12FF0E0E654FD4F80812D
:1058D0008F5F80831111F1C170E060E08AEA0E945D
:1058E000761CFF24F3948091BC028E3F84F4E12F58
:1058F000F0E0E654FD4F8081815080831111E3C1B7
:1059000070E060E089EA0E94761CFF24F3948091A5
:10591000BC02082E000C990B63E070E00E94563325
:105920008093BC02F1100E94580C80910F088823CC
:1059300051F180910703909108030E94C917C29703
:1059400008F0C7C1209100043091010421153105F0
:1059500009F053C280910E088823A9F00E943C08E8
:1059600000910A0810910B0820910C0830910D0845
:10597000601B710B820B930B6F3F7F4F8F4F9F47C5
:1059800010F40E94190ED11001C0F1100E94340EC3
:1059900086E0ECE1F3E0DE01119601900D928A952C
:1059A000E1F7F0901E03D0901F03109120030091A7
:1059B000210310921E0310921F03109220031092D5
:1059C00021038F2D8D2909F448C080911A039091ED
:1059D0001B030E94C9179C0190911603992309F497
:1059E00009C323333105C8F19F3F19F09F5F90939E
:1059F0001603FF2059F00E94F8099FEF1F140CF4C2
:105A000091E0899F802D112480931E03DD2059F0A1
:105A10000E94F8099FEF1D140CF491E0899F802DDE
:105A2000112480931F0330911E033323B1F0209182
:105A30001F03222391F045EB3403C0011124992365
:105A400009F4ADC290931E0345EB24039001112489
:105A5000332309F4A8C230931F03812F802B09F44C
:105A600048C080911803909119030E94C9179C01A6
:105A700090911503992309F4B8C225363105C8F170
:105A80009F3F19F09F5F90931503112359F00E94D7
:105A9000D6099FEF11160CF491E0899F802D1124F7
:105AA00080932003002359F00E94D6099FEF10161F
:105AB0000CF491E0899F802D112480932103309173
:105AC00020033323B1F020912103222391F045EBF1
:105AD0003403C0011124992309F469C2909320036F
