:100000000C94F7050C943E060C943E060C94302993
:100010000C943E060C943E060C943E060C943E0650
:100020000C943E060C943E060C9410150C94CC14C3
:100030000C9470210C943E060C943E060C943E06E3
:100040000C943E060C943E060C943E060C943E0620
:100050000C943E060C94E9150C943E060C943E0656
:100060000C943E060C943E060C943E060C943E0600
:100070000C943E060C943E060C943E060C943E06F0
:100080000C943E060C943E060C943E060C943E06E0
:100090000C943E060C943E060C943E060C943E06D0
:1000A0000C943E060C943E060C943E060501098015
:1000B000A101850319012AB700150126B700950192
:1000C00075108100C0050C0901A101850419012AE0
:1000D000A002150126A002950175108100C005013E
:1000E0000906A1018506050719E029E71500250184
:1000F0009508750181020507190029EF15002501F2
:1001000095F075018102050819012905950575010C
:100110009102950175039101C00660FF0961A1017B
:100120000962150026FF00952075088102096315F4
:100130000026FF00952075089102C005010906A15F
:1001400001050719E029E7150025019508750181CA
:10015000029501750881010507190029FF15002680
:10016000FF00950675088100050819012905950508
:1001700075019102950175039101C0000501050209
:100180000503050405050500000006010602060337
:10019000060406050600000007010702070307041E
:1001A0000705070000000801080208030804080505
:1001B00008000000090109020903090409050900F2
:1001C0000000000100020003000400050000000020
:1001D0000101010201030104010501000000020107
:1001E00002020203020402050200000003010302EE
:1001F00003030304030503000000040104020403D5
:1002000004040405040000000000000000000000D9
:1002100000000000000000000000000000000000DE
:1002200000000000000000000000007E0F00D4FF6E
:10023000FFFFC70000007800000000000000002A57
:100240002B2800000000000000000000000000005B
:10025000000029000000002C1E3420212224342616
:1002600027252E362D3738271E1F2021222324250F
:10027000263333362E37381F0405060708090A0BC4
:100280000C0D0E0F101112131415161718191A1B36
:100290001C1D2F3130232D350405060708090A0BD4
:1002A0000C0D0E0F101112131415161718191A1B16
:1002B0001C1D2F3130354C00DA02815AD9F1DB2078
:1002C000A4A62EAF00A0C000A1C800AED580A81F74
:1002D000D300408D1420004350534C4B000A0A00B9
:1002E000556E646566005261697365004C6F776591
:1002F0007200426173650A004C41594552000A0A76
:10030000004D6F6400436C6D6B0A20444800436CE1
:100310006D6B0A00517772740A000A0A00808182AC
:10032000838485868788898A8B8C8D8E8F90919225
:100330009394A0A1A2A3A4A5A6A7A8A9AAABACAD7B
:10034000AEAFB0B1B2B3B4C0C1C2C3C4C5C6C7C8F2
:10035000C9CACBCCCDCECFD0D1D2D3D40007087F61
:100360000807003E5B4F5B3E003E6B4F6B3E001C40
:100370003E7C3E1C00183C7E3C18001C577D571CE0
:10038000001C5E7F5E1C0000183C180000FFE7C3E5
:10039000E7FF00001824180000FFE7DBE7FF00304C
:1003A000483A060E00262979292600407F050507D0
:1003B00000407F05253F005A3CE73C5A007F3E1C29
:1003C0001C0800081C1C3E7F0014227F2214005FC2
:1003D0005F005F5F0006097F017F00006689956A04
:1003E0000060606060600094A2FFA2940008047E38
:1003F00004080010207E20100008082A1C080008AD
:100400001C2A0808001E10101010000C1E0C1E0CD8
:100410000030383E383000060E3E0E060000000068
:1004200000000000005F000000000700070000144B
:100430007F147F1400242A7F2A1200231308646289
:1004400000364956205000000807030000001C2217
:100450004100000041221C00002A1C7F1C2A0008C9
:10046000083E0808000080703000000808080808EE
:10047000000000606000002010080402003E5149A6
:10048000453E0000427F4000007249494946002134
:1004900041494D33001814127F1000274545453956
:1004A000003C4A49493100412111090700364949B8
:1004B000493600464949291E00000014000000008A
:1004C00040340000000008142241001414141414D5
:1004D000000041221408000201590906003E415D56
:1004E000594E007C1211127C007F49494936003E6A
:1004F00041414122007F4141413E007F49494941FC
:10050000007F09090901003E41415173007F08083D
:10051000087F0000417F4100002040413F01007FF3
:1005200008142241007F40404040007F021C027FAF
:10053000007F0408107F003E4141413E007F0909D1
:100540000906003E4151215E007F09192946002617
:10055000494949320003017F0103003F4040403FC9
:10056000001F2040201F003F4038403F0063140818
:100570001463000304780403006159494D430000EB
:100580007F41414100020408102000004141417FA9
:100590000004020102040040404040400000030704
:1005A0000800002054547840007F28444438003824
:1005B0004444442800384444287F00385454541894
:1005C0000000087E09020018A4A49C78007F08049B
:1005D00004780000447D4000002040403D00007F42
:1005E000102844000000417F4000007C047804781B
:1005F000007C0804047800384444443800FC182483
:1006000024180018242418FC007C0804040800485E
:10061000545454240004043F4424003C4040207CB3
:10062000001C2040201C003C4030403C004428106E
:100630002844004C9090907C004464544C4400004A
:100640000836410000000077000000004136080035
:10065000000201020402003C2623263C00000000A8
:10066000000000404040F0F8F8FF38FFF8F83FF88D
:10067000F8FF38FFF8F8F0404040000000000000AC
:1006800080C0C0C0800000C0C08000000080C0C02A
:1006900000C0C0000080C0C00000000000C0C0C09A
:1006A000C0C000C0C000000000000000000000004A
:1006B000000000000000000000000000000000003A
:1006C000000000000000000000000000000000002A
:1006D000000000000000000000000000C0F0F8FC76
:1006E0003E1E06010000007F4141417F007F4141E5
:1006F000417F000080C0E07E5B4F5BFEC00000C019
:1007000000DCD7DEDEDED7DC00C000000000000029
:1007100000000000000000000000000000000000D9
:10072000000000494949FFFFFFFFE0DFBFBF00BFF6
:10073000BFDFE0FFFFFFFF49494900000000001F45
:100740003F6060E0BF1F007F7F071E381E077F7F6E
:10075000007F7F0E1F3B716000000000007F7F0C58
:100760000C0C007E7E007F7E0303007F7E03037EF1
:100770007E03037F7E000F3E703C063C703E0F0000
:10078000327B49493F7E007F7E0303001E3F69693B
:100790006F2600000000000000000000030F1F3F54
:1007A0003C7870600000007F4141417F007F414103
:1007B000417F00307B7F7830202030787F3B000302
:1007C000000F7F0F0F0F7F0F0003000000000000DD
:1007D0000000000000000000000000000000000019
:1007E000000000010101070F0F7F0F7F0F0F7E0F29
:1007F0000F7F0F7F0F0F07010101000000000000B5
:1008000000000000010100000000000000000000E6
:1008100000000000000000000000000000000000D8
:1008200000000000000000000000000000000000C8
:1008300000000000000000000000000000000000B8
:1008400000000000000000000000000000000000A8
:100850000000000000000000000000000000000098
:100860000000000000000000000000000000000088
:100870000000000000000000000000000000000078
:100880000000000000000000000000000000000068
:100890000000000000000000000000000000AF00A9
:1008A000AE35001E001F002000210022000000299C
:1008B0000014001A00080015001700A9002B0004FE
:1008C000001600070009000A000000E1001D001BDF
:1008D00000060019000500AA00A800E300E200E0FD
:1008E00000035128000000350027002600250024C1
:1008F00000230000002A00130012000C0018001C46
:10090000004B00340033000F000E000D000B000000
:1009100000E500380037003600100011004E00E7F7
:1009200000E600E40004512C000000000035001E29
:10093000001F002000210022000000290014001ADE
:1009400000090013000A00A9002B0004001500167E
:1009500000170007000000E1001D001B0006001941
:10096000000500AA00A800E300E200E0000351280F
:100970000000003500270026002500240023000089
:10098000002A0033001C0018000F000D004B00343B
:100990000012000C00080011000B000000E50038F8
:1009A0000037003600100011004E00E700E600E4BA
:1009B0000004512C000000000035001E001F002024
:1009C00000210022000000290014001A0009001371
:1009D000000500A9002B0004001500160017000AEE
:1009E000000000E1001D001B00060007001900AA1E
:1009F00000A800E300E200E00003512800000035F9
:100A0000002700260025002400230000002A0033D0
:100A1000001C0018000F000D004B00340012000CE9
:100A2000000800110010000000E500380037003613
:100A3000000B000E004E00E700E600E40004512C1D
:100A4000000000000001003A003B003C003D003E79
:100A500000000035001E001F0020002100220001C0
:100A60000001001E021F02200221022202000001DA
:100A7000002E002D002E022F023002010001000185
:100A80000001000100010001000000440043004299
:100A900000410040003F00000045002700260025DF
:100AA000002400230001003102270226022502242F
:100AB0000223020000010031003302330030002F16
:100AC000000100010001000100010001000100001F
:100AD00000A65D010001000100010001000000010D
:100AE000004900460065000000000001000100E22E
:100AF00000E000E10000003900000001007A007B06
:100B0000007C007D000000010001000100010001E7
:100B100000010001000000010001000100010001CE
:100B200000010000002A0001000100520001004BFA
:100B30000001002A004C004F00510050004E000000
:100B400000010000000100000001000000010001A0
:100B50000001000100010001000100000009025B2A
:100B600000030100A0FA09040000010301010009CB
:100B700021110100012240000705810308000A0934
:100B800004010002030000000921110100012222DA
:100B90000007058203200001070503032000010967
:100BA0000402000103000000092111010001226D6F
:100BB000000705840320000A12010002000000085B
:100BC00032FC87120200010200010C0353006F0087
:100BD00066006C006500000010034B0065007900A2
:100BE0006800690076006500000004030904112410
:100BF0001FBECFEFDAE0DEBFCDBF04B603FE27C0D5
:100C000080913C0590913D05A0913E05B0913F0536
:100C10008730904BA740B04BD1F410923C05109216
:100C20003D0510923E0510923F0514BE84B7877FA4
:100C300084BF0FB6F894A895809160008861809376
:100C40006000109260000FBEE0E0F8E3099511E04B
:100C5000A0E0B1E0EAE0F7E502C005900D92A83D02
:100C6000B107D9F725E0A8EDB1E001C01D92AC3382
:100C7000B207E1F70E9497210C944C2B0C940000D2
:100C8000E8EDF0E080818E7F80831092E200109288
:100C9000DA001092E100A0EEB0E08C9181608C93BC
:100CA00080818F77808319BCA7EDB0E08C918E7F17
:100CB0008C9380818F7E8083109209050895209106
:100CC000E4003091E50095E6A9012091EC00822F27
:100CD000817020FF06C08091E80080FF06C080E0A0
:100CE00008952091E80022FD1AC080912E058823E6
:100CF00089F0853089F08091EB0085FD0FC020914F
:100D0000E4003091E50042175307F9F29150E1F603
:100D100084E0089582E0089583E0089581E00895D5
:100D2000EF92FF920F931F93CF937C018B010E9450
:100D30005F06C82F811117C08091E80085FD0BC0A8
:100D40008091E8008E778093E8000E945F068823F8
:100D500099F3C82F08C0F70181917F018093F100BA
:100D60000150110949F78C2FCF911F910F91FF90DE
:100D7000EF9008958091300587FF13C08091E800BF
:100D800082FF06C08091E8008B778093E80004C062
:100D900080912E058111F2CF089580912E05882330
:100DA000D9F38091E80080FFF8CF8091E8008E773A
:100DB000ECCF982F9093E900242F762F50E08917DD
:100DC00031F07091EC002091ED005091F00021FD88
:100DD00007C09F5F973071F78093E90081E0089525
:100DE0003091EB003E7F3093EB003091ED003D7F82
:100DF0003093ED003091EB0031603093EB00709355
:100E0000EC002093ED005093F0002091EE0027FDC0
:100E1000E0CF80E00895CF92DF92EF92FF920F93A0
:100E20001F93CF93DF93C8EDD0E088818F7E8883B6
:100E3000E7EDF0E080818160808384E082BF81E023
:100E40008093090588818E7F888302EE10E0F80187
:100E500010821092DA0081EEC82ED12CF601108299
:100E600088818F77888388818068888388818F7D57
:100E7000888319BC10922E0510922F0510922D0513
:100E800010922C0590EEE92EF12CF70180818B7FDA
:100E9000808388818160888342E060E080E00E94F6
:100EA000D906F60180818E7F8083F8018081816080
:100EB0008083808188608083F70180818E7F80833A
:100EC000888180618883DF91CF911F910F91FF907E
:100ED000EF90DF90CF900895FC01809136059091BE
:100EE000370586179707A0F06115710529F49091D1
:100EF000E8009E779093E80090E06115710551F449
:100F0000911108C08091E80082FF34C080E008950C
:100F1000BC01F2CF80912E058823C1F18530C1F14B
:100F20008091E80083FD30C08091E80082FDEACF27
:100F30008091E80080FFE1CF8091F3002091F200E2
:100F4000382F6115710519F02830310558F091E0FE
:100F50002830310509F090E02091E8002E772093A9
:100F6000E800CBCF81918093F100615071092F5F30
:100F70003F4FE7CF80912E05882341F0853041F027
:100F80008091E80083FFBECF81E0089582E008955C
:100F900083E008950895089580910B0508952FB773
:100FA000F89460910005709101058091020590917F
:100FB00003052FBF089520916D012223C9F02091D0
:100FC000040527FF15C0E62FE695E695E695EE3178
:100FD000D8F4E80FF92FF11D677021E030E001C06F
:100FE000220F6A95EAF720958281282322830895AB
:100FF000FC01329608962191621303C0DF0111971C
:101000001C92E817F907B9F7089520916D01222382
:10101000C1F02091040527FF14C0E62FE695E69560
:10102000E695EE31F8F4E80FF92FF11D677021E035
:1010300030E001C0220F6A95EAF78281822B828319
:101040000895FC0132962FEF30E04191641751F082
:101050002F3F19F4411101C0232F3F5F3630A9F70C
:101060002F3F09F40895820F911D27FD9A95FC01E9
:10107000628308952091FD043091FE0428173907FA
:1010800071F09093FE048093FD04E091FB04F091D5
:10109000FC04309721F00084F185E02D0994089537
:1010A0002091F9043091FA042817390771F09093D0
:1010B000FA048093F904E091FB04F091FC0430976A
:1010C00021F00680F781E02D09940895FC01680F56
:1010D000791F8FEF91E32191822728E030E087FF8D
:1010E00009C0880F892721503109C9F7E617F7078A
:1010F00091F70895880FF7CF80E0089578940895C8
:10110000F894E82FE295EF70F0E031A1282F2F70CE
:1011100081E090E001C0880F2A95EAF7982F90951A
:10112000932391A392A1892B82A30C947E08909182
:10113000040592FF06C0282F28712830F9F4877F14
:10114000846093FF06C0282F28712831F1F4877E30
:1011500084612091050520FF06C0382F3871383092
:10116000D9F4877F816021FF06C0282F287128319C
:10117000D1F4877E816194FD877E0895282F2471A4
:101180002430F9F68B7F8860DCCF282F247124313E
:1011900001F78B7E8861DDCF382F3171313019F73F
:1011A0008E7F8860E0CF282F2171213121F78E7E3C
:1011B0008861E1CFCF93DF93EC018238910581F113
:1011C000B0F58133910509F491C020F5893291057C
:1011D00009F485C08A9709F490C0C11521E5D207AA
:1011E00008F0AAC0C11530E5D30708F01BC1CF3BFA
:1011F000D10508F089C0C83AD10508F008C1C53A40
:10120000D10508F0FCC0C430D105F8F4C130D105D7
:10121000E1F040C08533910509F45AC0C997E9F659
:1012200080910405837089F0C0EED0E00EC0833E4B
:10123000910599F170F4803E910501F1823E91058E
:1012400061F68091040582FD21C0CE01DF91CF912E
:101250000895863E910561F1873E910571F1843EC6
:10126000910509F0BACF8091050581FFEECF8091FD
:101270000405C7EED0E084FD0DC0E7CF80910405E2
:1012800080FD03C19091050590FFDFCFC3EED0E054
:1012900084FFDBCFD0E0C0E0D8CF8091040582FD91
:1012A000F7C09091050590FDBFCF84FFCECFF2CF60
:1012B0008091040583FDDDCFC8CF8091040583FDB7
:1012C000EAC09091050591FFF0CFC4EED0E0BDCF0C
:1012D0008091040585FFB9CFC9E2D0E0B6CF8091F7
:1012E000040585FFB2CFC5E3D0E0AFCF8091040500
:1012F00086FFABCFCAE2D0E0A8CF8091040586FF7D
:10130000A4CFC1E3D0E0A1CFC11540E2D40760F47F
:10131000C11581E0D80708F098CFCE01815E910910
:10132000079708F492CFB6CFC11590E4D90708F417
:10133000B1CFDF70D06A89CFC11527E5D207C0F5DC
:10134000C11536E5D30708F09DC0C11543E5D407A4
:10135000B0F4C11582E5D80708F481C0CE018370CE
:10136000992721E030E002C0220F331F8A95E2F76F
:10137000C695C69580E2C89FE00111246CC0C115D6
:1013800094E5D90708F086CFCE018370992721E034
:1013900030E002C0220F331F8A95E2F7C695C6954A
:1013A00090E2C99FE0011124C22BD32BDA684DCF04
:1013B000C1152AE5D20778F4C11539E5D30708F03D
:1013C00053C0C11548E5D40708F464CFDC2FCC27FF
:1013D000C06FD06A3ACFCE0190568115904208F086
:1013E00059CF8D2F8F710E94970890E0982F8827F2
:1013F00088279F719C012C2BE901D06226CFC55A0A
:10140000D0E0CB58DE4FC881D0E0D0641ECFC85AA0
:10141000D0E0CC0FDD1FC858DE4F0990D881C02D19
:10142000D46413CFCE0164E0969587956A95E1F771
:1014300083702C2F26952695237040E2249F9001DF
:101440001124382B8C2F8370C1E0D0E002C0CC0F68
:10145000DD1F8A95E2F7C22BD32BDC68F6CEDC2F9A
:10146000CC27C16FD06AF1CE8C2F8F700E94970865
:1014700034E0D695C7953A95E1F7CF709C2FEC01F3
:10148000D069E3CEDD27D066E0CEC9E3D0E0DDCE83
:10149000C2EED0E0DACEC6EED0E0D7CE0C94CF07C5
:1014A00080915D0290915C02892B90915B02892B67
:1014B0008093DA01E091FB04F091FC04309799F0FD
:1014C00090916D01992349F09091040597FF05C013
:1014D0008093DB0186E08093DA010280F381E02DC6
:1014E0008AED91E00994089580915A029091290221
:1014F000981301C008958F5F8770FACF27E0929FFD
:10150000800D1124982F977086958695869523E0F7
:10151000829FF0011124EA5FFD4F50E040E080E03F
:10152000219130E0092E02C0369527950A94E2F702
:1015300021703327042E01C0220F0A94EAF7822B70
:101540004F5F5F4F4330510559F7089527E0929F51
:10155000800D1124982F977041E001C0440F9A9597
:10156000EAF786958695869593E0899FF001112488
:10157000EA5FFD4F90E080E070E05191DF0111974C
:101580009B01082E02C0369527950A94E2F7217038
:1015900021952527242325272C9301968330910517
:1015A00061F7089590E080E00E94500890E080E0AC
:1015B0000E943A0810925C0210925B020C94500A4E
:1015C000809338050C94D20A80913805982F967034
:1015D000963019F488600C94E00A877FFCCF21E0F4
:1015E00030E001C0220F8A95EAF7209580913805F6
:1015F00082230C94E00A21E030E001C0220F8A959A
:10160000EAF780913805822B0C94E00A8093AD02B2
:101610000C94D20A882341F0809590915D02892331
:1016200080935D020C94500A0895882339F09091BC
:101630005D02982B90935D020C94500A08958823C4
:1016400079F19CEF980F913A38F4682F8AED91E088
:101650000E94DB070C94500A90E2980F983088F4AF
:10166000877021E030E0A90102C0440F551F8A9520
:10167000E2F7CA01809590915D02892380935D0213
:10168000E9CF9BE5980F933020F490E080E00C9434
:101690005008885A873120F490E080E00C943A0892
:1016A0000895CF93C82F882309F467C08CEF8C0F5F
:1016B000813AC0F580916D01882311F18091040574
:1016C00087FF1EC0EC2FE695E695E695F0E0E65222
:1016D000FE4F828190E04C2F477021E030E002C045
:1016E000220F331F4A95E2F782239323892B91F02F
:1016F0006C2F8AED91E00E94DB070E94500A0AC01D
:10170000ECEDF1E082EE91E02191C21789F38E17A2
:101710009F07D1F76C2F8AED91E00E940508CF91C9
:101720000C94500A80E28C0F883068F4C77021E076
:1017300030E001C0220FCA95EAF780915D02822B4A
:1017400080935D02ECCFEBE5EC0FE33040F4F0E08A
:10175000EB58FE4F808190E0CF910C945008C85A0E
:10176000C73158F4EC2FF0E0EE0FFF1FE858FE4FA2
:1017700080819181CF910C943A08CF910895982F50
:1017800092959F7011F0892F94E0282F2695269529
:1017900011F09E5F822F869509F09F5F892F089533
:1017A000CF92DF92EF92FF920F931F93CF93DF932D
:1017B0006C017B0164E670E088E70E948727EC01FA
:1017C00097FD12C010E000E0F601E00FF11F8491D8
:1017D00064E670E00E940128EC01892B29F40F5F78
:1017E0001F4F0E151F0581F70E948428CE01DF913F
:1017F000CF911F910F91FF90EF90DF90CF900895C0
:101800008091F7049091F804911103C091E0892729
:101810000895882369F062E070E08FE998E00E9403
:10182000D00B892B19F08091F70408951092F704DA
:101830008091F704EBCFCF93C091F7048091F80427
:101840008823D1F00E94CF076058774C8E4F9F4F6E
:101850006093F3047093F4048093F5049093F6047A
:10186000C11108C062E070E08DE998E00E94D00BE1
:10187000892B29F0C091F7048C2FCF91089581E036
:101880008093F704F7CF8093060570930805609363
:10189000070580912E058430F9F48093E9008FEFDD
:1018A0009091E800815095FD06C095ED9A95F1F76D
:1018B00000008111F5CF8091E80085FF0DC050E058
:1018C00040E063E070E086E095E00E949006809141
:1018D000E8008E778093E8000895BC0184E00C94C2
:1018E000430CBC0183E00C94430CCF93DF93EC01D9
:1018F00080916D018823B1F18091040587FF32C08A
:1019000060E284E08093E9008FEF9091E8008150DD
:1019100095FD06C095ED9A95F1F700008111F5CF80
:101920008091E80085FF1BC080916D0170E050E060
:1019300040E0811104C050E040E068E070E0CE017A
:101940000E9490068091E8008E778093E80080E204
:10195000FE01ACE0B5E001900D928A95E1F7DF91D0
:10196000CF91089568E081E0CDCF81E08093E000E1
:1019700080E28093D8001092C9008FE19EE4019725
:10198000F1F700C0000087E090EBDC0180933C059C
:1019900090933D05A0933E05B0933F0588E19CE000
:1019A0000FB6F894A895809360000FBE90936000E6
:1019B000FFCF9F92AF92BF92CF92DF92EF92FF92B2
:1019C0000F931F93CF93DF937C015B016A0180919A
:1019D000960201E010E08A3010F40AE010E0C1E065
:1019E000D0E0F894B501C701F6010995982E0E9440
:1019F0007E08911004C021960C171D076CF4892DE8
:101A0000DF91CF911F910F91FF90EF90DF90CF90DA
:101A1000BF90AF909F900895CC9F9001CD9F300DC7
:101A2000300D112490E080E045E34A95F1F7000085
:101A3000019682179307C1F7D4CF80916A02811172
:101A400010C08091D80080618093D8008AE18A9587
:101A5000F1F700C08091D90080FF0AC081E0809337
:101A60006A0281E090916A02913009F080E0089565
:101A700082E080936A020E94400610922E05F1CF08
:101A80000E941D0D882351F0E091FB04F091FC04AD
:101A9000309721F00190F081E02D099480E00895C5
:101AA0001F93CF93DF93182FCAE0D0E0893311F44E
:101AB000C0E5D0E0812F0E94510B8FE99FE0019794
:101AC000F1F700C000002197C1F7812FDF91CF917E
:101AD0001F910C941F0BCF93DF93C3EED2E060E015
:101AE000CE010E94182B2196C11584E0D807B9F7C2
:101AF000DF91CF9108956F927F928F929F92AF92D4
:101B0000BF92CF92DF92EF92FF920F931F93CF93EA
:101B1000DF9381EAC82E88E0D82E91ECE92EF12CD3
:101B2000E701CC58D10936011BC0F501859094908E
:101B3000692DC8010E94182B682DC80101960E94CA
:101B4000182B82E0A80EB11C0E5F1F4FC017D107E3
:101B500061F78EE0680E711C2E96CE15DF0529F018
:101B60008E010E5011095301E0CF7E018CE8E80E82
:101B7000F11C8CE8C80ED11C8DE7E81683E0F8064E
:101B800079F6DF91CF911F910F91FF90EF90DF9049
:101B9000CF90BF90AF909F908F907F906F9008955F
:101BA000CF93C82F6FEF811161E283E290E00E9432
:101BB000182B6FEFC11162E184E290E00E94182BB4
:101BC0006FEFC11164E085E290E0CF910C94182B87
:101BD00080E00E94D00D60E086E290E00E94182B29
:101BE0000E947B0D0E946B0D81E00C94D00D0F9331
:101BF0001F93CF93DF93C42FD0E0CC0FDD1F2EE0D7
:101C0000629FC00DD11D11243CE8839FC00DD11DE2
:101C10001124CE0187960E940A2B082F10E0102F66
:101C20000027CE0188960E940A2B9801282BC90113
:101C3000DF91CF911F910F910895462F853038F491
:101C40007A3028F4673018F4672F0C94F70D90E081
:101C500080E00895CF92DF92FF920F931F93CF936E
:101C6000DF936C01009138058091AD02082BC7E02D
:101C7000D0E010E0FC2EC8010C2E02C0959587958F
:101C80000A94E2F780FD0CC02197A0F7F12C8F2D6C
:101C9000DF91CF911F910F91FF90DF90CF9008952A
:101CA000B6018C2F0E941D0E0E94DA08019761F385
:101CB000EECFCF93DF93EC010E942A0EBE010E946B
:101CC0001D0EDF91CF910C94DA08FC018081918187
:101CD0000E94590E292F2F7092959F7092509E301E
:101CE00078F4E92FF0E0E25BF44D0C94DE2A803FBB
:101CF00019F020F4883E20F481E00895843FE1F358
:101D000080E00895883EC0F3813FD1F7F5CF822F60
:101D1000869586958695089583E290E00E940A2B29
:101D2000813289F484E290E00E940A2B823159F4D6
:101D300085E290E00E940A2B91E0843009F090E067
:101D4000892F8170089580E0FCCFCF9384E090E0EC
:101D50000E940A2BC82F82E290E00E940A2B982F43
:101D60008C2FCF9108951F93CF93DF93162F8A3036
:101D700031F481E0DF91CF911F910C94580F8D3099
:101D800011F480E0F7CFC091F104D091F20496E015
:101D9000FE01ABEEB4E001900D929A95E1F7803E22
:101DA000A8F186E0FE0111928A95E9F7C091F1044D
:101DB000D091F204111136C046E050E0BE018BEE26
:101DC00094E00E94F42A9E012B5E3240892BA9F5F3
:101DD0002A5F3F4F4091E802642F70E0C9010E94E2
:101DE000AA2A481B463010F4240F311D211572E039
:101DF000370710F030E020E025513D4F3093F204DA
:101E00002093F104DF91CF911F910895F6E08F9F09
:101E1000B0011124635A7C4F46E050E0CE010E948D
:101E2000EB2AC4CF9E012A5F3F4FFE012E173F07CA
:101E300019F2808180958193F9CFC90145E096958B
:101E400087954A95E1F741E050E0BA0102C0660F7C
:101E5000771F8A95E2F7CB016091E9027091EA025F
:101E6000862B972BB9016B5F7F4FE5E076956795E1
:101E7000EA95E1F702C0440F551F6A95E2F7842BFB
:101E8000952B9093EA028093E902A2CF1F93CF9300
:101E9000DF93EC01162FFE018491811104C0DF91C4
:101EA000CF911F910895612F0E94B30E2196F3CF19
:101EB000CF93382FE091F104F091F204EB5EF24001
:101EC0002091E802622F70E0CF010E94AA2A281B0D
:101ED000822F332369F066E00E94BE2AC82FC150CA
:101EE00010F4CF91089560E080E20E94B30EF7CF26
:101EF0009F01280F311D2115324018F080E0F0E0DD
:101F0000E0E08E0F9F2F911D85519D4F9093F2041D
:101F10008093F104E6CF0E94460F81E00C94580FA5
:101F200010925D0280916D01ECEDF1E0882359F093
:101F30008091040587FF07C08EE1DF011D928A951D
:101F4000E9F70C94D20A86E0F8CF1F93CF93DF9382
:101F5000CDB7DEB7AA970FB6F894DEBF0FBECDBFE0
:101F600080E395E02091F100DC012D93CD01B5E0F7
:101F700088339B07B9F780913105833009F472C02B
:101F8000B8F4813009F449C0823009F4B3C08091BB
:101F9000E80083FF8BC280913005909131059A3023
:101FA00008F084C2E92FF0E0E45AF44D0C94DE2AE4
:101FB0008A3009F48EC08B3009F471C0893039F74A
:101FC00080913005813219F7809134059091350563
:101FD000009711F00297D9F68091E800877F8093EF
:101FE000E8008091E80082FF38C09091F300809172
:101FF000F200029731F48091F100813011F08630C7
:1020000021F48091F10080930B058091E8008B779B
:102010008093E8000E94BA06BACF80913005813AD9
:1020200009F0B5CF8091E800877F8093E800809128
:10203000340590913505892B61F460E28CE095E0E0
:1020400070E00E946C078091E8008B778093E80035
:102050009ECF60E090E080E0F3CF80912E0581116B
:10206000C0CF95CF80913005813A09F090CF809113
:10207000340590913505892B09F089CF8091E800CE
:10208000877F8093E8008091E80080FFFCCF8091FB
:102090006D018093F1008091E8008E77B9CF809137
:1020A0003005813209F073CF809134059091350568
:1020B000892B09F06CCF8091E800877F8093E8003E
:1020C0000E94BA068091320580936D010E94900FA4
:1020D0005ECF80913005813209F059CF8091E800C0
:1020E000877F8093E8000E94BA0680913305809331
:1020F0000A054DCF80913005813A09F048CF809193
:10210000E800877F8093E8008091E80080FFFCCFA3
:1021100080910A05BECF803899F0823809F0C6C197
:10212000809134058F70873008F0C0C18093E9003A
:102130008091EB0085FB882780F91092E90006C0AA
:1021400080912C0590912D05911182609091E8006D
:10215000977F9093E8008093F1001092F1008091B6
:10216000E8008E779FC1882309F48DC1823009F081
:102170009DC180913205811190C1809134058F708D
:102180002FEF280F263008F091C18093E9002091AD
:10219000EB0020FF82C1933031F48091EB0080622C
:1021A0008093EB007AC19091EB0090619093EB00EB
:1021B00021E030E001C0220F8A95EAF72093EA007F
:1021C0001092EA008091EB008860EACF81116EC125
:1021D000109132051F778091E3008078812B8093E6
:1021E000E3008091E800877F8093E8000E94BA06B0
:1021F0008091E80080FFFCCF8091E30080688093AD
:10220000E30082E0111183E080932E054FC18058D6
:10221000823008F04BC120913205309133052C3DBE
:10222000E3E03E07A1F583E08A838AE289834FB722
:10223000F894DE01139620E03EE051E2E32FF0E057
:1022400050935700E49120FF03C0E295EF703F5F89
:10225000EF708E2F90E0EA30C0F0C7968D939D937B
:102260002F5F243159F74FBF8091E800877F80931B
:10227000E8006AE270E0CE0101960E946C0780914E
:10228000E8008B778093E80011C1C096E7CF80917A
:10229000340590913505432F55274330510509F4F6
:1022A0004AC078F54130510509F47AC08BE590E0D9
:1022B000EDE5FBE04230510509F0F8C02091E8005F
:1022C000277F2093E800209136053091370582174B
:1022D000930708F49C0140E02115310509F065C021
:1022E000411163C08091E80082FDC9CF80912E0525
:1022F000882329F2853019F28091E80083FFF2CF1C
:10230000BECF4132510509F43CC04232510509F0BB
:10231000CDC08330910508F0C9C0FC01EE0FFF1F4E
:10232000E553FE4F0190F081E02D88539E4FDC0174
:102330008C9190E01AC0332721303105D1F021155E
:10234000310561F02230310509F0B0C0EAECFBE064
:10235000E4918E2F90E0EAECFBE007C0EAEEFBE0B0
:10236000E4918E2F90E0EAEEFBE0009709F49EC026
:10237000A5CFE8EDFBE0E4918E2F90E0E8EDFBE0E7
:10238000F4CF8330910508F091C0880F991FFC01AC
:10239000EF52FE4F0190F081E02D89E090E08ECF6A
:1023A00082E190E0E8EBFBE089CF80912E05882365
:1023B00009F465CF853009F462CF8091E80083FD90
:1023C0005ECF8091E80082FD8DCF8091E80080FF94
:1023D00083CF9091F3008091F2002115310519F01F
:1023E0008830910550F041E0089709F040E0809175
:1023F000E8008E778093E8006FCF44914093F1001E
:102400003196215031090196E8CF803809F04EC04D
:102410008091E800877F8093E80080912F0580936A
:10242000F1009DCE811142C0109132051230F0F5BD
:102430008091E800877F8093E80010932F050E9429
:10244000BA06112311F084E005C08091E30087FDF6
:10245000FACF81E080932E0542E061EC81E00E949A
:10246000D90642E261EC84E00E94D90642E261ECC6
:1024700082E00E94D90642E260EC83E00E94D90625
:1024800080912E0513C080913205813079F481E06E
:10249000933009F080E080932D051092E90080913F
:1024A000E800877F8093E8000E94BA068091E800E8
:1024B00083FF0AC08091E800877F8093E8008091C5
:1024C000EB0080628093EB00AA960FB6F894DEBF13
:1024D0000FBECDBFDF91CF911F9108950F931F9332
:1024E000CF93DF9300D000D0CDB7DEB740918E02FE
:1024F00050918F0260919002709191022FB7F894E1
:102500008091000590910105A0910205B09103050D
:102510002FBF841B950BA60BB70B84369105A10525
:10252000B10588F10E941D0D882379F10E94CF0723
:102530006E5F7F4F8F4F9F4F69837A838B839C831E
:10254000809135019091360184589D4F409134011E
:1025500050E04530510510F044E050E0BE016F5F9F
:102560007F4F0E94012B85E090E00E94F629892B85
:10257000D9F40E94CF0760938E0270938F028093EC
:1025800090029093910281E010C00E94CF070091C9
:102590009702109198022091990230919A02600F4F
:1025A000711F821F931FC4CF80E00F900F900F9078
:1025B0000F90DF91CF911F910F9108958F929F926D
:1025C000AF92BF92CF92DF92EF92FF920F931F9341
:1025D000CF93DF93EB0188809980AA80BB809FB75F
:1025E000F894C0900005D0900105E0900205F090AD
:1025F00003059FBFC818D908EA08FB0894E6C91666
:10260000D104E104F10410F4442311F1E82E082E62
:10261000000CFF089AE08902F0011124E050FF4FFE
:102620008381948184589D4F428150E0041715079F
:1026300008F4A801B9010E94012BC7010E94F629E4
:10264000892BA1F40E94CF07688379838A839B83B7
:1026500081E0DF91CF911F910F91FF90EF90DF907C
:10266000CF90BF90AF909F908F90089580E0F1CF72
:102670000F931F93CF93DF930F92CDB7DEB7809167
:10268000F704898320918D0290E041E02817190614
:1026900009F440E001E010E09E012F5F3F4F62E946
:1026A00072E086E00E94DE120F90DF91CF911F91C1
:1026B0000F9108950F931F93CF93DF93EC0145E0A3
:1026C00050E062E872E00E94F42A41E0892B09F4AC
:1026D00040E005E010E09E0164E772E082E00E94C5
:1026E000DE12DF91CF911F910F9108956F927F922B
:1026F0008F929F92AF92BF92CF92DF92EF92FF9212
:102700000F931F93CF93DF930F92CDB7DEB7862E33
:102710005A016901682E880F7708C3010E94F629C3
:10272000892B09F088C08AE0869DF001879DF00D15
:102730001124E050FF4F458150E04115510511F043
:1027400041E050E08AE0869DF001879DF00D112464
:10275000E050FF4F6681778164587D4FCE0101962E
:102760000E94012BF50140815181628173812FB755
:10277000F8948091000590910105A0910205B09117
:1027800003052FBF841B950BA60BB70B8436910551
:10279000A105B10540F4B701C8010E9466089981FE
:1027A000891709F44FC0082C000C9908C4010E9435
:1027B000F629892B91F0B12C8B2D0F90DF91CF91C1
:1027C0001F910F91FF90EF90DF90CF90BF90AF904F
:1027D0009F908F907F906F9008958AE0889DF00180
:1027E000899DF00D1124E050FF4F458150E0E41623
:1027F000F50608F4A7018AE0889DF001899DF00D97
:102800001124E050FF4F6681778164587D4FC601E7
:102810000E94012BB701C8010E94660899818913A3
:10282000CACF0E94CF07F5016083718382839383AF
:10283000BB24B394C1CFB12CA701B801C6010E943B
:10284000012BBACFBB24B394F7CFCF92DF92EF9294
:10285000FF920F931F93CF93DF9300D000D00F927E
:10286000CDB7DEB76B0185E0E82EF12C0DE712E065
:102870009E012F5F3F4F40E752E061E080E00E9401
:102880007613882349F095E0FE013196ABE6B2E07D
:1028900001900D929A95E1F795E0EBE6F2E0D60112
:1028A00001900D929A95E1F70F900F900F900F9075
:1028B0000F90DF91CF911F910F91FF90EF90DF90DC
:1028C000CF90089569EE7EEF90E080E00E94362B75
:1028D00060E082E090E00E94182B60E083E090E0EE
:1028E0000E94182B1092AD0260E084E090E00E94FC
:1028F000182B60E082E290E00E94182B60E085E0F7
:1029000090E00E94182B60E086E090E00E94182B77
:102910006FEF87E090E00E94182B40E050E0BA0192
:1029200088E090E00E942A2B60E08DE090E00E9419
:10293000182B40E050E0BA0188E190E00E942A2B79
:1029400060E087E190E00E94182B40E050E0BA017F
:102950008CE190E00E942A2B70E060E080E290E041
:102960000E94362B40E050E0BA0188E190E00E94DE
:102970002A2B80E00E94D00D0E94E80D40E050E03C
:10298000BA018FE090E00E942A2B40E050E0BA01AB
:1029900083E190E00C942A2B1F920F920FB60F92B6
:1029A00011242F933F934F935F936F937F938F9354
:1029B0009F93AF93BF93CF93DF93EF93FF93D09108
:1029C000E900DF708091EC00C82FC17080FDC0E885
:1029D0001092E9008091F000877F8093F000789456
:1029E0000E94A50F1092E9008091F000886080930A
:1029F000F000CD2BCF70C093E900FF91EF91DF91F4
:102A0000CF91BF91AF919F918F917F916F915F9186
:102A10004F913F912F910F900FBE0F901F901895DF
:102A20001F920F920FB60F9211242F933F934F9343
:102A30005F936F937F938F939F93AF93BF93EF9326
:102A4000FF938091E10082FF09C08091E20082FF44
:102A500005C08091E1008B7F8093E1008091DA00D6
:102A600080FF24C08091D80080FF20C08091DA00D0
:102A70008E7F8093DA008091D90080FF9DC080E135
:102A800089BD82E189BD09B400FEFDCF81E080935C
:102A90002E0580910905811109C00E9440060E94FF
:102AA0000B078091E20084608093E2008091E10056
:102AB00080FF17C08091E20080FF13C08091E20088
:102AC0008E7F8093E2008091E20080618093E2003B
:102AD0008091D80080628093D80019BC85E08093F3
:102AE0002E058091E10084FF2BC08091E20084FFDD
:102AF00027C080E189BD82E189BD89B5982F917099
:102B000080FFFBCF8091D8008F7D8093D80080918B
:102B1000E1008F7E8093E1008091E2008F7E8093C0
:102B2000E2008091E20081608093E20080912F05B5
:102B3000882309F447C084E080932E0580912E05F8
:102B40008091E10083FF27C08091E20083FF23C0D2
:102B50008091E100877F8093E10082E080932E05E1
:102B600010922F058091E1008E7F8093E10080918B
:102B7000E2008E7F8093E2008091E200806180938A
:102B8000E20042E060E080E00E94D9068091F0001F
:102B900088608093F000FF91EF91BF91AF919F917A
:102BA0008F917F916F915F914F913F912F910F90F6
:102BB0000FBE0F901F90189519BC10922E05109201
:102BC000090574CF8091E30087FD93E090932E0573
:102BD000B5CF78941F921FB61F9211248F939F93A5
:102BE000AF93BF938091000590910105A0910205DC
:102BF000B09103050196A11DB11D8093000590932E
:102C00000105A0930205B0930305BF91AF919F9179
:102C10008F911F901FBE1F9018959C014FB7F8947D
:102C20008091000590910105A0910205B0910305E6
:102C30004FBF821B930B08952FB7F8948091000526
:102C400090910105A0910205B09103052FBF089551
:102C50000F931F93CF93DF93C62FD42F022FFC0126
:102C600082818823A1F060933B050E941C169093FB
:102C70003A0580933905C77081E001C0880FCA9575
:102C8000EAF7DF91CF911F910F910C94150B809172
:102C90003B05681335C08091390590913A050E9433
:102CA0000D16883C910560F510E21D0FCD17B9F0A7
:102CB00080E28C0F883040F4C77081E001C0880F3B
:102CC000CA95EAF70E940A0B183048F481E09D2F5C
:102CD000977001C0880F9A95EAF70E94150B802F14
:102CE0000E94500D183098F4D77081E001C0880F11
:102CF000DA95EAF7DF91CF911F910F910C940A0BAF
:102D0000C77081E001C0880FCA95EAF7F3CFDF9161
:102D1000CF911F910F9108955F926F927F928F9242
:102D20009F92AF92BF92CF92DF92EF92FF920F935A
:102D30001F93CF93DF9300D000D00F92CDB7DEB7B3
:102D40007C01FC0183819481892B31F08081918108
:102D500089238F3F09F096C40F900F900F900F902A
:102D60000F90DF91CF911F910F91FF90EF90DF9027
:102D7000CF90BF90AF909F908F907F906F905F901B
:102D800008950E942A0E182F682F89819A810E9427
:102D9000A60A69817A81812F0E941D0E8C01F7019C
:102DA0008281882309F462C4980122513F45203171
:102DB000310508F019C48FEF93E00E940A2B0251ED
:102DC00023EEC22E22E0D22E8111C6CF011134C0D3
:102DD0001C821B82662463949AE0592E86010F5F41
:102DE0001F4FC6010E940A2B89831A82882309F487
:102DF000B3CF9FEF980F933070F58A83698232E0EA
:102E0000C30ED11CC8010E940A2B8B83882309F4AE
:102E1000A3CF8E010F5F1F4FF80120812223F1F213
:102E2000213009F052C0918182819130B1F40E5F5E
:102E30001F4F0E94500D17C0C114F4E0DF0609F4C3
:102E40008BCFC6010E940A2B811101C001502FEFC8
:102E5000C21AD20ABBCF6801DCCF923039F40E5FC0
:102E60001F4F0E94510B0F5F1F4FD6CF933029F495
:102E70000E5F1F4F0E941F0BF6CF943019F00F5FAB
:102E80001F4FF1CF0E5F1F4F30E020E0B8016F5FA2
:102E90007F4FF80141818053990B8A30910550F0A2
:102EA0002150310900F38FE99FE00197F1F700C04D
:102EB0000000F6CF529EF001539EF00D11249C01AC
:102EC0002E0F3F1F842F8B01E1CFE22FF0E0E95C52
:102ED000FD4F7490822F86958695869590E0FC0133
:102EE000E95DFD4FE4902770F12C022E02C0F594AD
:102EF000E7940A94E2F7E1E0EE22FF24FC01E95EA8
:102F0000FD4FA490B12C022E02C0B594A7940A9450
:102F1000E2F7F1E0AF22BB24FC01E95FFD4F8490B2
:102F2000912C02C0959487942A95E2F721E08222A1
:102F30009924E114F10419F081EE0E94510BA114BF
:102F4000B10419F086EE0E94510B872D0E94500D9E
:102F5000AB2819F086EE0E941F0BEF2819F081EEC6
:102F60000E941F0B892809F47ECF8CE262CF81E09A
:102F70000E94FB0A03C081E00E94EF0A0F900F90AD
:102F80000F900F900F90DF91CF911F910F91FF90B5
:102F9000EF90DF90CF90BF90AF909F908F907F90F9
:102FA0006F905F900C94E40A82E0E2CF27E245EE56
:102FB00065EE9EC326E241EE60EE9AC327E245EE3F
:102FC00064EE96C326E241EE62EE92C328E241E04F
:102FD000EFCF0136FDE51F0709F4C4C306319CE5B8
:102FE000190709F009C480915D028A7A91E009F419
:102FF00090E09093050269E2811165E38AED91E02A
:103000000E9405080F900F900F900F900F90DF9186
:10301000CF911F910F91FF90EF90DF90CF90BF90D5
:10302000AF909F908F907F906F905F900C94500A1C
:1030300006308CE5180709F4A2C080910405886069
:1030400007301C4508F48AC080910405806286C060
:10305000809104058D7F0C30ECE51E0709F47EC0DD
:1030600070F4809104058C600A302CE5120709F495
:1030700075C008F48CC0809104058E7F6FC00E303F
:103080008CE5180709F489C0809104058B7F0F3007
:103090001C4508F463C0809104058F7E5FC00C3F1F
:1030A000ECE51E0709F47DC068F504312CE5120734
:1030B00009F48FC080F402318CE5180709F479C057
:1030C000809104058F7B03311C4508F447C0809133
:1030D0000405837F43C00A3FECE51E0709F445C0A1
:1030E00008F049C005311C4509F063C3809104050F
:1030F00082FB992790F921E0922790FB82F990FBBF
:1031000083F92CC001153DE5130709F458C088F474
:103110008091050583600E3F9CE5190749F1809178
:1031200005058D7F0F3F1C4518F1809105058C7FAB
:103130001FC00230FDE51F0709F45AC008F452C051
:1031400001361D4509F035C390910405892F8F7E06
:1031500094FF806103C08091040581608093040521
:1031600028C3809104058460F9CF809105058160B2
:10317000809305051EC3809105058260F9CF80917B
:1031800004058061EBCF809104058064E7CF0E9445
:10319000900F809104058068E1CF80910405877FBE
:1031A000DDCF809105058E7FE3CF809104058F7D73
:1031B000D5CF0E94900F809104058F77CFCF80915B
:1031C0000505982F909591708E7F892B90FB81F942
:1031D000CFCF0E94900F90910405892F97FB87F91C
:1031E0008058BCCF61E08EE090E00E94182BE1C2D5
:1031F00060E0F9CF0E94900FEFEFF4E32CE0E15094
:10320000F0402040E1F700C000000E94B50C0F9094
:103210000F900F900F900F90DF91CF911F910F9112
:10322000FF90EF90DF90CF90BF90AF909F908F90E6
:103230007F906F905F900C946214C8010E947E0A88
:10324000D82EF1C2F92FFF70FF2E907F19F0F29463
:1032500080EFF822812F2223C9F0FF2069F090E24D
:10326000910F983010F011110BC080915D02F82A77
:10327000F0925D020E94500A812F0E94510B17C0EC
:1032800080915C02F82AF0925C02F4CF0E941F0B3E
:10329000FF2069F0F094105E183010F0011125C085
:1032A00080915D02F822F0925D020E94500AF8E0DF
:1032B000CF1AD10824E0C216D10408F04DCD0F90EA
:1032C0000F900F900F900F90DF91CF911F910F9162
:1032D000FF90EF90DF90CF90BF90AF909F908F9036
:1032E0007F906F905F900C94400D80915C02F8226B
:1032F000F0925C02DACF892F8F70907F903211F0BC
:103300008295807F013061F4222329F0363078F6EF
:103310000E94150BCCCF353050F60E940A0BC7CF58
:10332000222341F03323A1F340FFA6CF4F70F701D2
:103330004583EECF332389F3193309F0F0C0FFEF53
:1033400027EE33E0F15020403040E1F700C00000AC
:10335000812F0E941F0BABCF892F86958695837096
:1033600061F0813009F0A3CF812F9370211102C049
:1033700090E080E00E943A089ACF812F937021114B
:1033800002C090E080E00E94500891CF892F8370A6
:10339000A1F521118CCF812F829586958770880F9A
:1033A000880F412F4F70082E01C0440F0A94EAF78E
:1033B000212F207114FF07C02FE030E001C0220F41
:1033C0008A95EAF72095969596959370923081F0BC
:1033D000822F842B933030F48091AD02913029F00C
:1033E000242B82230E94060B62CF842B822BFACFE0
:1033F000242B8091AD028227F5CF8695222311F0F0
:10340000892F8170882309F452CF812F8295869568
:103410008770880F880F412F4F70082E01C0440F0E
:103420000A94EAF7212F207114FF07C02FE030E043
:1034300001C0220F8A95EAF720959695969593708C
:10344000923081F0822F842B933030F480913805B4
:10345000913029F0242B82230E94E00A28CF842B6C
:10346000822BFACF242B809138058227F5CF092FA4
:103470000F70222329F0802F0E94FB0A812F48CF52
:10348000812F0E940A0B802F0E94EF0A10CF812FFC
:10349000113F69F148F4103FA9F02223A1F1311145
:1034A000EBCE892F8F7127C0123F41F1133FA9F74F
:1034B00080E0222389F29F7181E001C0880F9A95F4
:1034C000EAF7CACF222379F0353008F0F0CE292F61
:1034D0002F7181E090E001C0880F2A95EAF7909162
:1034E00038058927B9CF363008F0E1CEF0CF892FE3
:1034F0008F71222349F20E94FB0AD9CE892F8F7146
:103500002223C9F3C1CF332379F0893341F49FEFEC
:10351000E7EEF3E09150E040F040E1F717CF8FE3A2
:103520009CE90197F1F712CF892F8F71ADCF123F30
:10353000D9F128F5103F61F1113F09F43DC08091A8
:103540002102332309F444C0882341F080912202F0
:1035500091E08927809322021092210221118CCEC2
:10356000EFE3FCE93197F1F700C00000812F0E94E2
:103570001F0B86E0F70111928A95E9F798CE143F68
:10358000B1F080F0153FD9F6211191CE81E007C04E
:10359000222309F48CCE8091220291E08927809326
:1035A000220285CE81E028272093220280CE21119D
:1035B0007ECE109222027BCE222339F0809121020E
:1035C000882349F31092210272CE353020F36FCE5A
:1035D000882309F46CCE21116ACE8091220291E0F9
:1035E000892780932202EECF00313FE5130709F4CB
:1035F000BECC01319FE5190709F4D6CC053A3DE56B
:10360000130708F45EC0882309F4A6CB063A1D45CB
:1036100009F0A2CB8091AD020E94BF0B90E0019611
:1036200063E070E00E94CA2A01E010E001C0000FD0
:103630008A95EAF7602F83E090E00E94182B802F94
:103640000F900F900F900F900F90DF91CF911F91DF
:103650000F91FF90EF90DF90CF90BF90AF909F9031
:103660008F907F906F905F900C94060B0031EFE588
:103670001E0709F480CC0131FFE51F0709F0BECF1A
:1036800082E07ACC85E0DE01119601900D928A9558
:10369000E1F7F701228189819A81211172CB0E9481
:1036A0007E0A182F76CB06311C4509F0AEC08091FA
:1036B000050269E2811165E38AED91E00E94DB0772
:1036C000A1CC033F2CE5120709F474CC40F5083D6A
:1036D0009CE5190709F46ACC093DECE51E0709F4DD
:1036E00075CC073DFCE51F0741F526E241EE61EE92
:1036F000C7010F900F900F900F900F90DF91CF9117
:103700001F910F91FF90EF90DF90CF90BF90AF90FF
:103710009F908F907F906F905F900C942816053F3C
:103720002CE5120709F44ECC08F448CC27E245EE0C
:1037300066EE063F9CE51907D9F2882309F4B3CF5A
:1037400010923B0503309DE5190708F042CC0A3F73
:10375000ECE51E0738F4980122503C452431310530
:1037600008F03CCC0E94A50E9093050580930405BB
:1037700000312CE5120709F418CD08F090CC083080
:103780008CE5180709F4FFCC08F062CC0430ECE5B6
:103790001E0709F4E6CC08F04BCC02302CE51207EA
:1037A00009F4D9CC80910405826003301C4509F4EA
:1037B000D5CC609104051091050584E090E00E944D
:1037C000182B612F82E290E00E94182B0F900F902F
:1037D0000F900F900F90DF91CF911F910F91FF905D
:1037E000EF90DF90CF90BF90AF909F908F907F90A1
:1037F0006F905F900C94900F0115ECE51E0709F493
:10380000F9CC0E3D1C4509F402CDF7010081118170
:10381000882309F412CDC8010E942A0ED82E682FE1
:10382000C8010E94A60AB8018D2D0E941D0E0E949B
:10383000DA08182F082FF70122814581342F32959D
:103840003F70892F82958F70C82ED12C8C3008F054
:103850002ECDF601EA59F44D0C94DE2A1F93CF9336
:10386000DF9380912802807FA9F48091250288232C
:1038700089F080915A02D0912902609123027091BF
:103880002402A0912602B0912702C62FC72316E07A
:10389000D81304C0DF91CF911F91089590E0109745
:1038A00011F0CF3F19F401968770F2CF189F900165
:1038B000199F300D1124F901E65DFD4F4181471339
:1038C000F2CF40814613EFCF42814111ECCF4381CB
:1038D00054814A1B5B0B483C510528F78091280214
:1038E0008F70806180932802F901E15DFD4F808136
:1038F0008F708061808383E292E00E948C16DF915A
:10390000CF911F910C94740AAF92BF92CF92DF9225
:10391000EF92FF920F931F93CF93DF93CDB7DEB754
:1039200061970FB6F894DEBF0FBECDBF8C0185E066
:10393000F801DE011D9601900D928A95E1F7F801DC
:10394000E28083E2A82E82E0B82E60912602709178
:1039500027026115710509F432C19091230240914B
:103960002402892F84238F3F09F429C120813181CA
:10397000C380D480F0902502F601E61BF70BFF20F0
:1039800009F4E8C080912802582F507FE83CF105E7
:1039900008F0ABC0511177C0FE2C431321C0921325
:1039A0001FC0E1101DC08F70806180932802C50187
:1039B0000E948C1680912802F80185838F2D6196D4
:1039C0000FB6F894DEBF0FBECDBFDF91CF911F9130
:1039D0000F91FF90EF90DF90CF90BF90AF90089540
:1039E000CD2829F0822F83238F3F09F011C180E079
:1039F000F82FF170DF2E80FF3CC080915A02409179
:103A0000290256E0841315C02D873E878D859E853B
:103A10000E94590E292F22952F702230F0F0243069
:103A200018F59F70F1F0F8019581907FD1F4D12CB9
:103A30001EC090E0589FF001599FF00D1124E65DE3
:103A4000FD4F6181361306C06081261303C0628179
:103A5000E6120FC001968770D5CF9F7011F08823B2
:103A600031F3805E883018F3C8010E948C16FD2C5B
:103A7000A5CFEE2009F4A2CF809128028160809327
:103A80002802F12C9BCF431306C0921304C0F80107
:103A9000EE2009F479C0C8010E94650E882309F15F
:103AA000EE20F9F080912802803270F020912302FC
:103AB0003091240238872F831986DB86CA868C874B
:103AC000CE0107960E948C1686E0F801A3E2B2E0D0
:103AD00001900D928A95E1F70E942E1CFF24F39429
:103AE0006DCFC8010E948C16F9CF51110AC083E234
:103AF00092E00E948C1686E0F50111928A95E9F712
:103B0000C0CF43130FC092130DC0E1100BC0F801DA
:103B10008583C8010E948C1686E0F50111928A9572
:103B2000E9F74CCFC8010E94650E8823D1F2EE2040
:103B3000C1F280912802803238F220912302309124
:103B400024023A8329831B82DD82CC828E83CE01BC
:103B50000196B8CFE83CF105F8F6FE2CEE2009F20C
:103B600043131FC092131DC08091280280FD10C016
:103B7000982F907F69F0F8018583903F31F0982F5E
:103B8000907F905F8F70892B8583C8010E948C166F
:103B900086E0F801A3E2B2E001900D928A95E1F788
:103BA0000DCFC8010E94650E81118ECF8091280231
:103BB000816080932802C8010E948C16FFCEEE20FF
:103BC00009F48FCFC8010E94650EF82E882309F4EE
:103BD00088CF86E0F801A3E2B2E001900D928A95C9
:103BE000E1F780912302909124020E94590E929550
:103BF0009F70963051F4863F41F08091220291E00F
:103C0000892780932202909321020E942E1CD6CEF7
:103C100081E08E25EDCE0F931F93CF93DF93CDB729
:103C2000DEB767970FB6F894DEBF0FBECDBF6D8BC2
:103C30007E8B8F8B752F611110925C028E899F890C
:103C4000892B09F487C0872F84238F3F09F05BC03D
:103C50007FEF4FEF7FC0902F909589237AC086E049
:103C6000FE013796DE01119601900D928A95E1F7DB
:103C70008A859B85892B09F48AC08F819885892341
:103C80008F3F09F484C02091290230E0C9010196D8
:103C90008770992740915A024817190671F40E94BB
:103CA000900F1092290210925A0286E0E3E2F2E0AD
:103CB000DF011D928A95E9F76AC096E0929FD001D4
:103CC000939FB00D1124A65DBD4FFE01319601906A
:103CD0000D929A95E1F7809329020E94740A57C0C9
:103CE000819FC0011124865D9D4F0E94841C882302
:103CF00009F454C080915A0290E001968770992788
:103D000080935A0245C001E010E0042E01C0000F6C
:103D10000A94EAF7A72FB0E0A550BE4F8C9190917E
:103D20002202611102C0982F9023992309F493CFA6
:103D300050E097E0799F400D511D1124440F551F0D
:103D4000FA01E458FE4F749145585E4FFA014491D0
:103D5000802B8C931A8A198A4B8B7C8B85E0FE0111
:103D60007396DE011D9601900D928A95E1F786E02B
:103D7000FE013D96DE01179601900D928A95E1F7BE
:103D8000CE0107960E94841C882309F468CF16E0B0
:103D900080915A02909129028913A2CF67960FB69B
:103DA000F894DEBF0FBECDBFDF91CF911F910F9171
:103DB00008957F928F929F92AF92BF92CF92DF929F
:103DC000EF92FF920F931F93CF93DF93CDB7DEB7A0
:103DD00064970FB6F894DEBF0FBECDBF8E010F5FA4
:103DE0001F4F8AE0D8011D928A95E9F79DE4C92EFC
:103DF00091E0D92EF12CE12CAA24A394B12C3DE41E
:103E0000832E31E0932EF60181916F018F3F09F4EB
:103E100043C0F894E82FE295EF70F0E021A18F7095
:103E2000A50102C0440F551F8A95E2F7CA01922FDF
:103E3000982B91A392A18095892382A30E947E084A
:103E400000C0E6E4F1E0712C31E021912F3F09F44C
:103E500079C0A22FA295AF70B0E090968C9190E0BF
:103E60002F7002C0959587952A95E2F780FD6AC06C
:103E7000832F782A330F8E169F0639F7F601319774
:103E800080818F3F11F00E94800850EA5A95F1F727
:103E9000F801EE0DFF1D70828FEFE81AF80AA5E019
:103EA000EA16F10409F0AFCF4AE050E0B8018BE91F
:103EB00092E00E94F42A7C01892B41F08AE0F8010B
:103EC000ABE9B2E001900D928A95E1F71091A6025C
:103ED000E114F104C9F181E0809360020E941C1694
:103EE00090935F0280935E0280915E0290915F02E8
:103EF0000E940D16059770F0ABE9B2E0E12FF0E0FB
:103F0000E252FD4F8D91819322E0A03AB207D1F7A2
:103F10001092600281E090E0EF28D1F064960FB635
:103F2000F894DEBF0FBECDBFDF91CF911F910F91EF
:103F3000FF90EF90DF90CF90BF90AF909F908F90C9
:103F40007F90089580E095CF809160028111CCCF61
:103F50000E941D0DD82EE091A602882309F4B4C05A
:103F60007E0140E1E40EF11C85E0D7011D928A95A7
:103F7000E9F70E2F10E002521D4F809196028A3011
:103F800008F06CC045E254E1B701C8010E94D90CA9
:103F9000882309F485C04AE553E1B701C8010E94AE
:103FA000D90C882309F47CC04AE151E2B701C80169
:103FB0000E94D90C882309F473C04EE652E1B70180
:103FC000C8010E94D90C882309F46AC048E353E170
:103FD000B701C8010E94D90C882309F461C010926E
:103FE00096028091A50290E045E050E0B701825230
:103FF0009D4F0E94F42A21E020936902892B09F049
:1040000042C0D12C83E6E82E82E0F82E10E000E0DA
:10401000D7018D917D018823D1F08695F80109F4AF
:1040200050C0E655FE4F808191819C878B871D860D
:104030000E941C168160782F9F878E87F701319729
:1040400010824B855C856D858F850E940B1E0E5FEF
:104050001F4F04301105E1F68D2D60CF8091610274
:10406000909162020E940D16843F914008F08ACF21
:1040700080916902882329F285E0F70111928A95DF
:10408000E9F710926902A091A502B0E0A252BD4FDB
:1040900085E0FE01709601900D928A95E1F7B2CF0E
:1040A000809196028F3F31F08F5F809396028A3025
:1040B00008F497CF0E941C169093620280936102CD
:1040C000D7CFEA55FE4FAFCFF0E0E252FD4F00915F
:1040D000A50210E002521D4FF89485E0ADE7B2E072
:1040E00001900D928A95E1F765E070E08DE792E02E
:1040F0000E94660880937C020E947E08F89485E006
:10410000E2E8F2E0D80101900D928A95E1F70E9471
:104110007E08F894E091AB02F0E0E855FD4F808115
:104120008B878093880261E070E0CE010B960E943D
:104130006608809387020E947E08F894C0908902E6
:10414000D0908A02E0908B02F0908C028091650200
:1041500090916602A0916702B0916802C816D906D4
:10416000EA06FB06D1F0C0926502D0926602E092A8
:104170006702F09268020E941D0D81110EC00E941C
:10418000CF07C61AD70AE80AF90AC0929702D09256
:104190009802E0929902F0929A020E947E08F894A6
:1041A00080918D02882331F00E941B0C0E947E08B2
:1041B00080E0B4CE0E94000CF9CFEF92FF920F93F3
:1041C0001F93CF93DF9300D000D00F92CDB7DEB70F
:1041D000162FE82EF12CC701880F991F662339F19D
:1041E00086559E4FFC01808191819A83898301E0ED
:1041F0000B830E941C168160782F9D838C83F701AE
:10420000ED59FD4F0127110F102B108349815A8161
:104210006B818D810F900F900F900F900F90DF9119
:10422000CF911F910F91FF90EF900C940B1E8A5528
:104230009E4FD8CFCF92DF92EF92FF920F931F93B2
:10424000CF93DF930F92CDB7DEB7EE24E394F12C3A
:1042500008E812E09E012F5F3F4F48E752E064E01C
:1042600083E00E947613082F882321F1C090A702D3
:104270008C2D90E09C0128553D4F79011981F90161
:104280008081181BD12E80E00AC0DA94F70180816A
:104290008F5F808360E08C2D0E94DD20802F1D14B5
:1042A000A4F3912F17FD90E0191B11110EC081117D
:1042B0000E944E0A802F0F90DF91CF911F910F9196
:1042C000FF90EF90DF90CF9008951F5FF7018081FE
:1042D0008150808361E08C2D0E94DD20802FE5CF0E
:1042E0001F921FB61F9211248F939F93AF93BF937A
:1042F0008091FF04811113C0809100059091010508
:10430000A0910205B09103054196A11DB11D8093B6
:10431000000590930105A0930205B0930305BF919A
:10432000AF919F918F911F901FBE1F901895CDB791
:10433000DEB7E0970FB6F894DEBF0FBECDBF84B7EF
:10434000877F84BF0FB6F894A8958091600088613C
:1043500080936000109260000FBE80E890E00FB67E
:10436000F89480936100909361000FBE85B78068D8
:1043700085BF85B7806885BF8CE798E09093D901A9
:104380008093D8010E9440060E940B078091E200B2
:1043900084608093E200789480912E058823A1F0B8
:1043A0001091E9001F709091EC00892F817090FDB1
:1043B00080E8182B1092E9008091E80083FD0E94AC
:1043C000A50F1F701093E90082E084BD93E095BDB6
:1043D0009AEF97BD80936E00109297021092980208
:1043E0001092990210929A020E948C0E811102C0C2
:1043F0000E94E80D0E941D0D809357010E941D0D23
:1044000081110E94E9288091570181112FC0FE017E
:10441000359686E0DF011D928A95E9F786E6898365
:1044200087E98A8386EC8B8384E38C8385E38D83A1
:104430003497ADE4B1E0CE010B9621912D938E1708
:104440009F07D9F787E0EEE6F1E0DE019196019053
:104450000D928A95E1F7FE01B196A6E4B1E0CE0196
:10446000889621912D938E179F07D9F78091570138
:1044700095E0811190E09093A60285E0891B8093DE
:10448000A5020DE411E082E5E82E81E0F82EF801A6
:1044900081918F018F3F11F00E948008E016F10694
:1044A000B1F706E411E0BDE4EB2EB1E0FB2ED8013C
:1044B0008D918D018F3F11F00E948008E016F1066A
:1044C000B1F78AE0EEEDF2E0DF01282F1D922A9588
:1044D000E9F7EBE9F2E0DF011D928A95E9F790E058
:1044E00080E00E94122B893E9E4F21F40E948C0E88
:1044F000811102C00E94621482E090E00E940A2BA7
:104500008093D3020E94A50E909305058093040525
:104510000E94D91EEFE3FCE93197F1F700C00000DB
:104520000E94D91E8091DE0280FF08C06FEF7FEFEE
:1045300090E080E00E94362B0E94B50C83E090E072
:104540000E940A2B0E94060B0E941D0D811102C0C1
:104550000E94EC280E941D0D882309F4CCC183E041
:104560008093CE0280FDC9C180E88093E8020E945A
:1045700081276DE070E08AEC92E00E94D00B892BDD
:10458000E9F58091CE0263E070E081FDB8C187EC6F
:1045900092E00E94D00B892B89F56DE070E087EBEB
:1045A00092E00E94D00B892B49F50E94CF076058FA
:1045B000774C8E4F9F4F6093F3047093F404809375
:1045C000F5049093F604EBEEF2E080E092E0DF0178
:1045D0009C011D9221503040E1F7F093F204E093EA
:1045E000F1048FEF9FEF9093EA028093E90281E05C
:1045F0008093F8048093F7041092CF0280915701C2
:10460000811106C084EF8093650185EF809364017A
:1046100020916501A22FA295AF70B0E091963C91D8
:1046200091972F7081E090E0BC01022E01C0660FCF
:104630000A94EAF7462F4095432391964C9391971D
:1046400092963C919297362B92963C9392974091FA
:104650006401E42FE295EF70F0E031A14F70042E79
:1046600001C0880F0A94EAF7982F9095932391A39D
:1046700092A1892B82A390968C9190E002C095958F
:1046800087952A95E2F7817020A130E002C0359528
:1046900027954A95E2F792E020FF90E0892B8093DE
:1046A000AC029091570181E098279093AB02891B4F
:1046B0008093A70288E591E09093FC048093FB042B
:1046C000A0E46A2E80912E0500E112E1853009F404
:1046D00052C10E94D91EE82E81110E94CF07FEED23
:1046E0002F2EF2E03F2EE4EDF2E0D10110E000E0E9
:1046F000B02EDD9081918D1509F44CC18D25C12C12
:10470000FF24F394982F9F2109F43FC10E941D0DAF
:10471000882399F0C9A2BAA2DF2081E009F480E0E1
:104720008BA30E941C168160782F9DA38CA349A1A6
:104730005AA16BA18DA10E940B1EF801EC52FD4FF6
:104740008081F826F0828091AC02E82FEE0FEE0F08
:1047500090916501A92FA295AF70B0E090962C9131
:1047600030E09F7002C0359527959A95E2F7217049
:10477000332790916401A92FA295AF70B0E0909675
:104780004C9150E09F7002C0559547959A95E2F77D
:10479000CA018170992740FF02C082E090E0822B1D
:1047A0008E2B8093AC021091AB028F70E82FF0E05B
:1047B000E055FE4F80819091AA02890F8093AA0252
:1047C000F12C84306CF0E12FF0E0E855FD4F808152
:1047D0008F5F808360E0812F0E94DD20FF24F394AF
:1047E0008091AA028D3F6CF4E12FF0E0E855FD4F77
:1047F00080818150808361E0812F0E94DD20FF2431
:10480000F3948091AA02082E000C990B64E070E0EA
:104810000E94CA2A8093AA02F1100E944E0A809137
:10482000F804882351F18091D0029091D1020E9426
:104830000D16C29708F0C5C02091E9023091EA0236
:104840002115310509F02FC18091F7048823A9F0C3
:104850000E94CF070091F3041091F4042091F50415
:104860003091F604601B710B820B930B6F3F7F4FEF
:104870008F4F9F4710F40E94000CE11001C0F1100F
:104880000E941B0C0E94400D9091D202891721F0CA
:104890000E94400D8093D20280912E05843009F051
:1048A00011CF83E08093E9008091E80082FF0ACF76
:1048B0008091E80090E085FF0CC00E945F0630E226
:1048C000E32EF12C8E010F5F1F4F882309F4CAC11C
:1048D00091E08091E8008B778093E800992309F4B8
:1048E000F1CEE981E150E33108F020C2F0E0EE586A
:1048F000F44D0C94DE2A80E033CE80E236CE84EC98
:1049000092E047CE80912E05843029F10E94000C60
:104910001092FF0488E190E00FB6F894A895809378
:1049200060000FBE6092600083B7817F846083BFA8
:1049300083B7816083BF7894889583B78E7F83BF68
:104940000FB6F894A895809160008861809360000C
:10495000109260000FBE80912D05882361F00E94A7
:10496000D91EEEEDF2E081918111ACC2A8EEB2E069
:10497000AE17BF07C1F780912E05853009F4C2CF6D
:104980000E94900F0E94400DA4CEC394FF0C27E01C
:10499000C212B8CE0F5F1F4F0A30110509F0A8CE22
:1049A0008FEF88A789A71AA60E941C168160782F0E
:1049B0009CA78BA748A559A56AA58CA50E940B1E8C
:1049C000C2CE0E941C169093D1028093D0028BEE2F
:1049D00092E09093F2048093F1040E941D0D60E038
:1049E000882309F45BC08AE193E00E94460F80911E
:1049F000AD020E94BF0B813041F1882341F082302B
:104A000041F160E081E093E00E94460F05C060E064
:104A100084E193E00E948B0F60E08EEF92E00E94B1
:104A2000460F60E088EF92E00E948B0F809138057E
:104A30000E94BF0B833051F180F0843059F160E067
:104A400080EE92E00E948B0F0DC060E08EE093E05C
:104A5000E1CF60E085E093E0DDCF60E082EF92E0BF
:104A60000E94460F60E08DED92E00E94460F0E948A
:104A7000400D81FB662760F987ED92E00E948B0F65
:104A80008091F804882309F4DFCED6CE60E08CEE66
:104A900092E0E6CF60E086EE92E0E2CF8DE193E037
:104AA0000E94460FEDCF8091CF0261E070E081114E
:104AB000CBCE082F10E02B01082E02C0440C551C51
:104AC0000A94E2F7A90144215521452B09F448C075
:104AD0009091CE0290FD46C08295880F807680939B
:104AE00068019801369527953695279520936B0197
:104AF000815E8093690110926C0124E630E047E00A
:104B000050E066E671E088E70E943028892B09F0C2
:104B10009BCEA80175E0440F551F7A95E1F780916F
:104B2000CE0280FD2DC045515D4F04E610E020E22D
:104B300030E060E488E70E945728892B09F084CE92
:104B40000E941B0CC201809590954090E902509004
:104B5000EA02482259225092EA024092E90274CEB7
:104B60008F5FA7CF880F880F880F809368011092FE
:104B70006B01895F8093690183E080936C01BDCFF5
:104B8000EEEAF2E080E2DF011D928A95E9F7E4ECBB
:104B9000F1E0F8ABEFA700EC11E067E0A62E992456
:104BA0009394AFA5B8A96D91B8ABAFA7F801819167
:104BB0008F01840F952F911D9C0125513D4F3EA7DC
:104BC0002DA7E62FF0E0E255FD4F30E020E07A2CF3
:104BD000721AB92C022E01C0BB0C0A94EAF7CDA4BC
:104BE000DEA490E0D6018D916D018B21672D691BAC
:104BF0006770862E062E000C770BB82F01C0BB0FF6
:104C00008A94EAF78B2E7195619571096770772701
:104C100001C086956A95EAF7882A8081882A808271
:104C20009F5F9830F9F62F5F3F4F3196283031055E
:104C300071F6E8ECF1E02FA538A9E217F30709F0C7
:104C4000B0CF04E610E020E230E04EEA52E071CF4F
:104C50008091F100D8018D938D01B1E0EB1AF1083C
:104C600009F436CE8091E80085FDF2CF8091E8000E
:104C70008B778093E8000E945F06882399F328CE03
:104C80001A8289E08B8311C08A81823009F430C195
:104C9000833091F1813009F049C00E94CF070E9412
:104CA000E42A6B837C838D839E8380912E058430E0
:104CB00009F008CD1091E9001F709091EC00892F48
:104CC000817090FD80E8182B82E08093E90080914C
:104CD000E80080FF0DC050E040E060E270E0CE01EF
:104CE00001960E9490068091E8008E778093E800FC
:104CF0001F701093E900E6CCFE013396D1018D912F
:104D00001D018193B8EE2B16B2E03B06B9F7CDCF6B
:104D10008A81823059F46B817C818D819E810E94D1
:104D2000E42A86E290E00E94182BBFCF8FEF8983A0
:104D3000BCCF4C816B818A810E94F70D982789270F
:104D400098279E838D83B1CFED80FE80FE24EF24D3
:104D5000FE248A810B81EEE00E9F80011124FCE885
:104D60008F9F000D111D11248C8190E0880F991FD9
:104D7000080F191F6F2DC80187960E94182B6E2DE2
:104D8000C8018896D0CF0E947B0D8FCF80E18A83A7
:104D90008CCF81E08A838DE175CFCA80DB80DC24F3
:104DA000CD24DC248E010F5F1F4FEC80E00EF12E2E
:104DB000F11CC6018D519D4FE016F10609F475CF27
:104DC0002DE1C21621E0D20658F40E940A2BD80128
:104DD00014968C93FFEFCF1ADF0A0F5F1F4FE9CFB6
:104DE000F8011482F7CF0A811B81102701271027B1
:104DF0009E012F5F3F4F6901EC80E00EF12EF11C08
:104E0000C8018D519D4FE016F10609F44ECF0D31CA
:104E100031E0130728F4D60114966C910E94182BE8
:104E2000BFEFCB1ADB0A0F5F1F4FEACF0E946B0D5B
:104E30003CCF85E0ACCFCA80DB80DC24CD24DC24F1
:104E40008E010F5F1F4FEC80E00EF12EF11CC601AA
:104E50008796E016F10609F428CFECEBCE16E2E0D7
:104E6000DE0658F40E940A2BD80114968C93FFEFAB
:104E7000CF1ADF0A0F5F1F4FEACFF8011482F7CF76
:104E80000A811B811027012710279E012F5F3F4FAA
:104E90006901EC80E00EF12EF11CC80187960E1519
:104EA0001F0509F402CF0C3B32E0130728F4D601AA
:104EB00014966C910E94182BBFEFCB1ADB0A0F5F80
:104EC0001F4FEBCF09BD19BD09B400FEFDCF809186
:104ED000D8008F7D8093D8008091E000826080931D
:104EE000E0008091E00081FDFCCF0E94900F43CD57
:104EF00086E290E00E940A2B1B821C821D828E8318
:104F0000D4CE1092B9008CE08093B80008959F929F
:104F1000AF92BF92CF92DF92EF92FF920F931F93C7
:104F2000CF93DF93B82EEB010E941C166C01EE2488
:104F3000E394F12CC431D10560F025E0E22EF12C90
:104F4000CF3FDC0731F0CE0164E170E00E94AA2A75
:104F50007B0184EAA82E94E8992E1092BC00A092BE
:104F6000BC000E941C168C018091BC0087FF0DC004
:104F70008091B900887F883039F18091B900887FAD
:104F8000803111F10FEF1FEF09C00E941C16801B2A
:104F9000910B8E159F0540F30EEF1FEFCF3FDC07FF
:104FA000E1F2C6010E940D168C179D07B0F2C801F0
:104FB000DF91CF911F910F91FF90EF90DF90CF90F5
:104FC000BF90AF909F900895B092BB009092BC00AC
:104FD0000E941C168C018091BC0087FF0AC0809142
:104FE000B900887F883111F0803461F610E000E06C
:104FF000DECF0E941C16801B910B8E159F0558F367
:10500000CBCF0F931F93CF93DF93EB018093BB0024
:1050100084E88093BC000E941C168C018091BC0027
:1050200087FF11C02091B900287F81E090E02832ED
:1050300011F490E080E0919581959109DF91CF91F5
:105040001F910F910895CF3FDC0741F30E941C167A
:10505000801B910B8C179D0708F38EEF9FEFEECF0F
:10506000CF92DF92EF92FF920F931F93CF93DF9334
:105070006B018A017901B9010E948727E6010C0DB5
:105080001D1DC017D10761F424E92093BC00DF91F6
:10509000CF911F910F91FF90EF90DF90CF900895E7
:1050A00097FDF2CFB70189910E940128EACFCF92F4
:1050B000DF92EF92FF920F931F93CF93DF93C62F50
:1050C0006A017901B8010E94872797FD0CC0B801D9
:1050D0008C2F0E940128E601EC0CFD1CCE15DF058B
:1050E00011F097FF0CC024E92093BC00DF91CF9111
:1050F0001F910F91FF90EF90DF90CF900895B8012E
:1051000089910E940128EACF84E98093BC00089528
:105110008EE14A9B02C08150E1F74A9BFECF089581
:105120005A9880E28A95F1F75A9A0895FC013BE07B
:105130003A95F1F798E020E080E031E040E14A95CF
:10514000F1F7880F4A9B02C08160232742E04A950D
:10515000F1F7000040E14A95F1F7915079F790E1BD
:105160009A95F1F799B132E03A95F1F7000040E1F4
:105170004A95F1F792FB992790F992272081920F97
:1051800090830895EF92FF920F931F93CF93DF9335
:105190000F92CDB7DEB719828C017C01E60EF11CAF
:1051A0000E151F0561F481E09981911180E00F9047
:1051B000DF91CF911F910F91FF90EF9008950E9482
:1051C0008828CE0101960E949628F80181938F01CC
:1051D000E7CF529A5A9A089552985A9AEA9AE9E66B
:1051E000F0E080818F7C808308956150770B91E09F
:1051F00001C0990F6A95EAF720E031E0911108C0EB
:10520000222391F05A9A80E28A95F1F75A980895EC
:10521000492F482339F05A9A232740E24A95F1F75B
:105220009695ECCF5A98F9CF5A98EDCFFF920F93FD
:105230001F93CF93DF93EC018C01060F111DC01754
:10524000D10731F4DF91CF911F910F91FF90089515
:10525000F9900E94902868E08F2D0E94F528EFCFEA
:105260001F920F920FB60F921124EF92FF920F939D
:105270001F932F933F934F935F936F937F938F93DE
:105280009F93AF93BF93EF93FF93CF93DF930F92CF
:10529000CDB7DEB719820E948828CE0101960E9400
:1052A0009628A82FA695A695A695282F2295257015
:1052B0009A2F9570290F922F937026952695920F0D
:1052C000982797708981982B09F075C0A83008F04D
:1052D00072C080E18A95F1F75A9A529AB2E0BA9573
:1052E000F1F700C05A98EA2EF12CEAE0AE9FD00107
:1052F0001124A050BF4F1896ED91FC91199730974B
:10530000B1F06091AE017091AF0116962D913C9174
:105310001797260F371F13968D919C911497680F3E
:10532000791F15964C91159712968C9109958AE0E4
:105330008E9DF0018F9DF00D1124E050FF4F65818F
:10534000662351F02091AE013091AF0186819781A3
:10535000820F931F0E9416290E949028F0E1FA956F
:10536000F1F75A9852985A9A80E18A95F1F78AE0B3
:105370008E9D80018F9D100D112400501F4FD8016C
:1053800012966C911297662371F12091AE013091C3
:10539000AF0113968D919C91820F931F0E94C2289A
:1053A000D801ED91FC91882311F088E001C082E0E2
:1053B00080830E9488280F90DF91CF91FF91EF9119
:1053C000BF91AF919F918F917F916F915F914F911D
:1053D0003F912F911F910F91FF90EF900F900FBE73
:1053E0000F901F901895ED91FC91DFCF0F931F93B5
:1053F000CF93DF93EC0108970CF0A9C08AE08C9F53
:10540000F0018D9FF00D1124E050FF4F80819181BC
:10541000892B09F49CC0F894529A5A9885E08A9591
:10542000F1F700008C2F869585709C2F9570890F61
:10543000982F937086958695890F8E0193E0000FC3
:10544000111F9A95E1F7082B0E94902800C068E090
:10545000802F0E94F528A0E1AA95F1F752985A9A58
:105460004A9B27C087E090E04A9925C08AE08C9F3C
:1054700080018D9F100D112400501F4FF801658190
:105480006623A1F12091AE013091AF018681978111
:10549000820F931F0E94C228811128C0529A5A9AE3
:1054A000D801ED91FC9182E08083789482E090E0D5
:1054B00016C000C0D5CF0197B9F4529A5A9A8AE023
:1054C0008C9FF0018D9FF00D1124E050FF4F019053
:1054D000F081E02D81E08083789481E090E0DF919D
:1054E000CF911F910F91089500C0BECF0E948828D0
:1054F000B0E2BA95F1F75A98529AE0E1EA95F1F7DD
:105500008AE08C9FF0018D9FF00D1124E050FF4F39
:105510006281662351F02091AE013091AF01838109
:105520009481820F931F0E9416290E9490288AE07E
:105530008C9FF0018D9FF00D1124E050FF4F0190E2
:10554000F081E02D1082789490E080E0C8CF84E074
:1055500090E0C5CFAA1BBB1B51E107C0AA1FBB1F10
:10556000A617B70710F0A61BB70B881F991F5A95EF
:10557000A9F780959095BC01CD010895991B79E01C
:1055800004C0991F961708F0961B881F7A95C9F7D3
:105590008095089597FB072E16F4009407D077FDA9
:1055A00009D00E94AA2A07FC05D03EF49095819567
:1055B0009F4F0895709561957F4F0895EE0FFF1FDF
:1055C0000590F491E02D099469279627692778279B
:1055D000872778270895FB01DC0102C005900D9212
:1055E00041505040D8F70895FB01DC0104C08D9173
:1055F0000190801921F441505040C8F7881B990B45
:105600000895FB01DC0102C001900D924150504011
:10561000D8F70895F999FECF92BD81BDF89A9927E0
:1056200080B50895A8E1B0E042E050E00C943E2B34
:10563000262FF999FECF92BD81BDF89A019700B44B
:10564000021639F01FBA20BD0FB6F894FA9AF99AEB
:105650000FBE08950396272F0E94192B0E94182B26
:10566000252F0E94192B242F0C94192B0196272FDC
:105670000E94192B0C94182BDC01CB01FC01F99929
:10568000FECF06C0F2BDE1BDF89A319600B40D928E
:1056900041505040B8F70895F894FFCF770E770E39
:1056A000800E800E820E800E800E800E770E770E9A
:1056B000870E800E800E870E8B10B3105612B3101B
:1056C0005612E6100711561205121212221922194B
:1056D0007B197B19AC195719971A5719C619371A1C
:1056E000471A471A4026442688269926A426C32608
:1056F00096269626962696269626C626C926CD2630
:0A570000F326162719271B27402760
:10570A00FA010000000100000000FA010000000593
:10571A0001000000FA010506000000000000FA017D
:10572A00000000010B000000FA01000000010C005B
:10573A000000FA01040D000000000000FA01011146
:10574A0000000000000036323331F7F6FF6697C6D4
:10575A003435000000000001CC07750CCB07710C32
:10576A006D0CCA07F4F50021007F22000301F6F749
:10577A0031333236FF818283E200E900EA00B50064
:10578A00B600B700CD008301CC008A0192019401D2
:10579A002102230224022502260227022A02B3003A
:1057AA00B4006F00700006030608060106067C02B4
:1057BA0000FF0100010000FFFF0000010001FF00DF
:1057CA00000810181810080040226D3B011901AC9E
:0857DA00006F0B880BA80B0007
:00000001FF
