:100000000C940C0A0C94530A0C94530A0C941B295C
:100010000C94530A0C94530A0C94530A0C94530AEC
:100020000C94530A0C94530A0C942C160C94E81557
:100030000C940B1F0C94530A0C94530A0C94530AFF
:100040000C94530A0C94530A0C94530A0C94530ABC
:100050000C94530A0C940A170C94530A0C94530AE8
:100060000C94530A0C94530A0C94530A0C94530A9C
:100070000C94530A0C94530A0C94530A0C94530A8C
:100080000C94530A0C94530A0C94530A0C94530A7C
:100090000C94530A0C94530A0C94530A0C94530A6C
:1000A0000C94530A0C94530A0C94530A084AD73BF5
:1000B0003BCE016E84BCBFFDC12F3D6C74319ABD37
:1000C00056833DDA3D00C77F11BED9E4BB4C3E915B
:1000D0006BAAAABE000000803F05A84CCDB2D44E4A
:1000E000B93836A9020C50B9918688083CA6AAAA4C
:1000F0002ABE000000803F07634236B79BD8A71A8C
:1001000039685618AEBAAB558C1D3CB7CC5763BD99
:100110006DEDFD753EF6177231BF000000803F089F
:10012000000000BE922449123EABAAAA2ABECDCC42
:10013000CC4C3E00000080BEABAAAAAA3E00000044
:1001400000BF000000803F0000000000084178D39D
:10015000BB4387D1133D190E3CC3BD4282AD2B3E3C
:1001600068EC8276BED98FE1A93E4C80EFFFBE01DC
:10017000C4FF7F3F00000000000005010980A101CD
:10018000850319012AB700150126B70095017510DE
:100190008100C0050C0901A101850419012AA002F2
:1001A000150126A002950175108100C00501090204
:1001B000A1010901A1000509190129051500250161
:1001C00095057501810295017503810105010930CD
:1001D00009311581257F9502750881060938158139
:1001E000257F950175088106050C0A3802158125C1
:1001F0007F950175088106C0C005010906A10105AA
:100200000719E029E7150025019508750181029578
:1002100001750881010507190029FF150026FF0057
:1002200095067508810005081901290595057501D0
:100230009102950175039101C000C03E01000000CC
:10024000C0FCFFFFFF7C704040615E80C0BC0300CB
:100250000000000000000000003C03000000807867
:100260008700030F3FF8F0F020408080000001017C
:1002700002040810204080000000000000F8870001
:100280000106186080C03F0380780700000000006E
:100290000000000000000102040000F0CF00010691
:1002A0001860808079078078070000000000000057
:1002B000383838000000000000E01E0100030C3058
:1002C000C000F907807807000000000000C02C3251
:1002D00022000000000000000007030C30C00000F6
:1002E000F00F80780700000000000000000102000D
:1002F0000000000000000000001860800000E11E07
:1003000001F08F8080800000000E0E0E00000000C3
:100310000000000000000000000808090E0E01F0B7
:100320000F000000000001011919410A2284780021
:1003300000000000000080601800000000F00F02C4
:100340000202020202020202020101010100000097
:100350000000000000060970800000F01F1010105F
:100360001010080808040402020101010101020240
:1003700002020202020204020100C03E010000006B
:10038000C0FC0300030C30C000E11E00C0BC838031
:100390008080808000000000003C03000000807826
:1003A0008700030C30C000E01F01C03C03000000C8
:1003B00000000030310541120400000000F8870001
:1003C0000106186080C03F03807807020202020223
:1003D0000202020202010103050000F0CF00010643
:1003E0001860808079078078070000000000000016
:1003F000383838000000000000E0FEFFFFFFFCF08E
:10040000C000F907807807000000000000C02C320F
:1004100022000000000000000007030F3FFF03015F
:10042000030718F8070000000000000000010200A8
:10043000000000000000000000186080000FF000C5
:10044000000000033C000000000E0E0E0000000043
:100450000000000000000000000808090E0E01F373
:100460000F0000000000000000000000000000007D
:1004700000000000000080601800000000F00F0085
:10048000000000000000000000000000000000006C
:100490000000000000060970800000F01F1010101E
:1004A00010100808080404020201010101010202FF
:1004B00002020202020204020100C03E010000002A
:1004C000C0FC0300030C30C000E11E00C0BC8380F0
:1004D0008080808000000000003C030000008078E5
:1004E0008700030C30C000E01F01C03C0300000087
:1004F00000000030310541120400000000F88700C0
:100500000106186080C03F038078070202020202E1
:100510000202020202010103050000F0CF00010601
:1005200018608080790780780700000000000000D4
:10053000383838000000000000E01E0100030C30D5
:10054000C000F907807807000000000000C02C32CE
:1005500022000000000000000007030C30C0000073
:10056000F00F80780700000000000000000102008A
:100570000000000000000000001860800000E11E84
:1005800001F08F8080800000000E0E0E0000000041
:100590000000000000000000000808090E0E01F035
:1005A0000F000000000001011919410A228478009F
:1005B00000000000000080601800000000F00F0242
:1005C0000202020202020202020101010100000015
:1005D0000000000000060970800000F01F101010DD
:1005E00010100808080404020201010101010202BE
:1005F00002020202020204020100000000000000E8
:1006000000000000000000000000000000000000EA
:1006100000000000000000000000000000000000DA
:1006200000000000000000000000000000000000CA
:1006300000000000000000000000000000000000BA
:100AF0000000000000000000000000000000003EB8
:100B00005B4F5B3E003E6B4F6B3E001C3E7C3E1CD1
:100B100000183C7E3C18001C577D571C001C5E7F53
:100B20005E1C0000183C180000FFE7C3E7FF000050
:100B30001824180000FFE7DBE7FF0030483A060EF4
:100B400000262979292600407F05050700407F05FA
:100B5000253F005A3CE73C5A007F3E1C1C08000819
:100B60001C1C3E7F0014227F2214005F5F005F5F29
:100B70000006097F017F00006689956A0060606059
:100B800060600094A2FFA2940008047E0408001094
:100B9000207E20100008082A1C0800081C2A0808CB
:100BA000001E10101010000C1E0C1E0C0030383EE1
:100BB000383000060E3E0E06000000000000000067
:100BC000005F000000000700070000147F147F147E
:100BD00000242A7F2A120023130864620036495633
:100BE000205000000807030000001C224100000004
:100BF00041221C00002A1C7F1C2A0008083E08080D
:100C0000000080703000000808080808000000603C
:100C10006000002010080402003E5149453E0000DB
:100C2000427F4000007249494946002141494D3305
:100C3000001814127F10002745454539003C4A49E9
:100C4000493100412111090700364949493600461A
:100C50004949291E00000014000000004034000033
:100C6000000008142241001414141414000041223E
:100C70001408000201590906003E415D594E007CEE
:100C80001211127C007F49494936003E4141412200
:100C9000007F4141413E007F49494941007F0909A8
:100CA0000901003E41415173007F0808087F0000A0
:100CB000417F4100002040413F01007F0814224154
:100CC000007F40404040007F021C027F007F0408FC
:100CD000107F003E4141413E007F09090906003E68
:100CE0004151215E007F09192946002649494932B0
:100CF0000003017F0103003F4040403F001F2040B0
:100D0000201F003F4038403F006314081463000375
:100D100004780403006159494D4300007F4141417B
:100D200000020408102000004141417F000402013C
:100D3000020400404040404000000307080000203B
:100D400054547840007F28444438003844444428B0
:100D500000384444287F0038545454180000087E5A
:100D600009020018A4A49C78007F080404780000FD
:100D7000447D4000002040403D00007F102844009A
:100D80000000417F4000007C04780478007C080467
:100D9000047800384444443800FC1824241800180F
:100DA000242418FC007C08040408004854545424EB
:100DB0000004043F4424003C4040207C001C2040B0
:100DC000201C003C4030403C004428102844004C8B
:100DD0009090907C004464544C44000008364100DC
:100DE0000000007700000000413608000002010208
:100DF0000402003C2623263C0000000000000040C6
:100E00004040F0F8F8FF38FFF8F83FF8F8FF38FFF7
:100E1000F8F8F040404000000000000080C0C0C072
:100E2000800000C0C08000000080C0C000C0C000C2
:100E30000080C0C00000000000C0C0C0C0C000C032
:100E4000C0000000000000000000000000000000E2
:100E50000000000000000000000000000000000092
:100E60000000000000000000000000000000000082
:100E70000000000000000000C0F0F8FC3E1E06016B
:100E80000000007F4141417F007F4141417F0000E0
:100E900080C0E07E5B4F5BFEC00000C000DCD7DEA0
:100EA000DEDED7DC00C00000000000000000000013
:100EB00000000000000000000000000000000049E9
:100EC0004949FFFFFFFFE0DFBFBF00BFBFDFE0FF1B
:100ED000FFFFFF49494900000000001F3F6060E03C
:100EE000BF1F007F7F071E381E077F7F007F7F0E9A
:100EF0001F3B716000000000007F7F0C0C0C007E27
:100F00007E007F7E0303007F7E03037E7E03037FDC
:100F10007E000F3E703C063C703E0F00327B49491C
:100F20003F7E007F7E0303001E3F69696F2600003D
:100F30000000000000000000030F1F3F3C787060BD
:100F40000000007F4141417F007F4141417F0030EF
:100F50007B7F7830202030787F3B0003000F7F0FAD
:100F60000F0F7F0F000300000000000000000000D2
:100F70000000000000000000000000000000000170
:100F80000101070F0F7F0F7F0F0F7E0F0F7F0F7F66
:100F90000F0F070101010000000000000000000029
:100FA000010100000000000000000000000000003F
:100FB0000000000000000000000000000000000031
:100FC0000000000000000000000000000000000021
:100FD0000000000000000000000000000000000011
:100FE0000000000000000000000000000000000001
:100FF00000000000000000000000000000000000F1
:1010000000000000000000000000000000000000E0
:1010100000000000000000000000000000000000D0
:1010200000000000000000000000000000000000C0
:1010300000000000000000000000AF00AE29001E0C
:10104000001F002000210022002B0014001A0008BD
:101050000015001700E00004001600070009000A50
:1010600000E1001D001B000600190005002F00E331
:1010700000E2002B5D2C00A8002A00270026002596
:1010800000240023003100130012000C0018001C83
:1010900000340033000F000E000D000B00E5003897
:1010A0000037003600100011003000E600E4002C8C
:1010B0005D2800000035001E001F002000210022D6
:1010C00000290014001A00090013000A002B000474
:1010D000001500160017000700E1001D001B0006A8
:1010E0000019000500E300E200E0002B5D2800A8E5
:1010F000003500270026002500240023002A0033A5
:10110000001C0018000F000D00340012000C000835
:101110000011000B00E50038003700360010000E0B
:1011200000E700E600E4002C5D2C0000003A003BE4
:10113000003C003D003E003F0035001E001F002027
:101140000021002200335D1E021F02200221022224
:101150000201002E002D002E022F0230020100019C
:10116000000100010001000100450044004300426D
:101170000041004000010027002600250024002334
:101180000031022702260225022402230201003137
:10119000003302330030002F000100010001000184
:1011A0000001000100010001000100010001000137
:1011B000000100490046006500000000000100E257
:1011C00000E000E1000000390001007A007B007CB3
:1011D000007D00000001000100010001000100AEDF
:1011E000000100010001000100010001002A00329D
:1011F0005D2F5D52002E5D4B002A004C004F0051C8
:101200000050004E0001000000315D0000305D0024
:1012100000010001000100010001000100000000C8
:10122000000000000000000000005C0000295D2AB2
:101230005D015D000000000000015D000000000095
:10124000000000000000000000000000000100019C
:10125000000100010001000000000000000000008B
:10126000000000000000000000000000000000007E
:101270000000000000A900A800AA00000000000073
:1012800000AB00AE00AC0000000100010001000155
:10129000000100000000000000000000000000004D
:1012A000000000000000000000000000000000003E
:1012B000000000000000000000000000000000002E
:1012C0000000000000010001000100010001000019
:1012D000000000000000000000000000000000000E
:1012E00000000000000000000000000000000000FE
:1012F00000355D345D0000000000000000000000CB
:101300000001000100010001000100000000DA02FC
:1013100081FFD9F1DB20A4A62EAF00A0C000A1C898
:1013200000AED580A81FD300408D14200043505339
:101330004C4B000A0A00556E646566004D6F75736C
:10134000650A0041646A0A004C6F77657200526159
:1013500069736500426173650A004C41594552004A
:101360000A0A00556E64656600436C6D6B00517728
:1013700072740057494E004D414300004D4F4445A3
:10138000000A0A0009025400030100A0FA0904003F
:1013900000010301010009211101000122400007A1
:1013A00005810308000A0904010001030102000984
:1013B0002111010001224D000705820308000A09DE
:1013C0000402000103000000092111010001223282
:1013D000000705830320000A120110010000000825
:1013E00032FC87020100010200010C0353006F0070
:1013F00066006C00650000001A034A006F0073006D
:10140000650066004100640061006D0063006900D2
:101410006B0000000403090411241FBECFEFDAE0C3
:10142000DEBFCDBF04B603FE27C080919F0490911C
:10143000A004A091A104B091A2048730904BA740D2
:10144000B04BD1F410929F041092A0041092A1040A
:101450001092A20414BE84B7877F84BF0FB6F8949D
:10146000A895809160008861809360001092600070
:101470000FBEE0E0F8E3099511E0A0E0B1E0E2E69C
:10148000F8E602C005900D92A039B107D9F724E023
:10149000A0E9B1E001C01D92AF39B207E1F70E94A7
:1014A000FE1F0C9425340C940000CF93DF934091E1
:1014B0007D0450917E044D5752409A01205C3E4F6E
:1014C00021303240C0F020E032E0241B350B609127
:1014D0007B0270917C02FC01CA01240F351FC1E020
:1014E000D0E08217930750F070937C0260937B02E8
:1014F000DF91CF91089520E431E0E9CF4491DC0100
:10150000A358BD4F5C91451781F04C93AC01A5E009
:1015100056954795AA95E1F7DE0102C0AA0FBB1FB9
:101520004A95E2F7AD016A2B752B01963196D9CF1A
:10153000E8EDF0E080818E7F80831092E2001092CF
:10154000DA001092E100A0EEB0E08C9181608C9303
:1015500080818F77808319BCA7EDB0E08C918E7F5E
:101560008C9380818F7E808310925D0208952091FC
:10157000E4003091E50095E6A9012091EC00822F6E
:10158000817020FF06C08091E80080FF06C080E0E7
:1015900008952091E80022FD1AC080916A028823F4
:1015A00089F0853089F08091EB0085FD0FC0209196
:1015B000E4003091E50042175307F9F29150E1F64B
:1015C00084E0089582E0089583E0089581E008951D
:1015D000EF92FF920F931F93CF937C018B010E9498
:1015E000B70AC82F811117C08091E80085FD0BC094
:1015F0008091E8008E778093E8000E94B70A8823E4
:1016000099F3C82F08C0F70181917F018093F10001
:101610000150110949F78C2FCF911F910F91FF9025
:10162000EF90089580916C0287FF13C08091E800CD
:1016300082FF06C08091E8008B778093E80004C0A9
:1016400080916A028111F2CF089580916A02882305
:10165000D9F38091E80080FFF8CF8091E8008E7781
:10166000ECCF982F9093E900242F762F50E0891724
:1016700031F07091EC002091ED005091F00021FDCF
:1016800007C09F5F973071F78093E90081E008956C
:101690003091EB003E7F3093EB003091ED003D7FC9
:1016A0003093ED003091EB0031603093EB0070939C
:1016B000EC002093ED005093F0002091EE0027FD08
:1016C000E0CF80E00895CF92DF92EF92FF920F93E8
:1016D0001F93CF93DF93C8EDD0E088818F7E8883FE
:1016E000E7EDF0E080818160808384E082BF81E06B
:1016F00080935D0288818E7F888302EE10E0F8017E
:1017000010821092DA0081EEC82ED12CF6011082E0
:1017100088818F77888388818068888388818F7D9E
:10172000888319BC10926A0210926B0210926902AF
:101730001092680290EEE92EF12CF70180818B7FE8
:10174000808388818160888342E060E080E00E943D
:10175000310BF60180818E7F8083F801808181606A
:101760008083808188608083F70180818E7F808381
:10177000888180618883DF91CF911F910F91FF90C5
:10178000EF90DF90CF900895FC01809172029091CC
:10179000730286179707A0F06115710529F49091DF
:1017A000E8009E779093E80090E06115710551F490
:1017B000911108C08091E80082FF34C080E0089554
:1017C000BC01F2CF80916A028823C1F18530C1F15A
:1017D0008091E80083FD30C08091E80082FDEACF6F
:1017E0008091E80080FFE1CF8091F3002091F2002A
:1017F000382F6115710519F02830310558F091E046
:101800002830310509F090E02091E8002E772093F0
:10181000E800CBCF81918093F100615071092F5F77
:101820003F4FE7CF80916A02882341F0853041F035
:101830008091E80083FFBECF81E0089582E00895A3
:1018400083E0089580915F0208959C014FB7F8945A
:101850008091FE019091FF01A0910002B0910102E0
:101860004FBF821B930B08952FB7F8946091FE0130
:101870007091FF0180910002909101022FBF0895A5
:101880009C01FC0132969FEF80E04191461751F098
:101890009F3F19F4411101C0982F8F5F8630A9F73F
:1018A0009F3F09F40895290F311D97FD3A95F901DD
:1018B000628308958091DA019091D901892B9091EA
:1018C000D801892B80939001E0914802F091490260
:1018D000309731F00280F381E02D80E991E00994A6
:1018E0000895E92FEE0FE90FEE0F8E0F982F9770E6
:1018F00086958695869525E0829FF0011124E05516
:10190000FE4F50E040E080E0219130E0092E02C01F
:10191000369527950A94E2F721703327042E01C0EB
:10192000220F0A94EAF7822B4F5F5F4F4530510533
:1019300059F70895E92FEE0FE90FEE0F8E0F982F4C
:10194000977041E001C0440F9A95EAF78695869515
:10195000869595E0899FF0011124E055FE4F30E017
:1019600020E070E05191DF011197CB01022E02C0FF
:10197000969587950A94E2F781708195852784234F
:1019800085278C932F5F3F4F2530310559F70895F8
:10199000882341F080959091DA0189238093DA01C0
:1019A0000C945A0C0895882339F09091DA01982B01
:1019B0009093DA010C945A0C08952091AB01309168
:1019C000AC012817390771F09093AC018093AB01FB
:1019D000E0914802F0914902309721F00084F185AE
:1019E000E02D099408952091A9013091AA012817AA
:1019F000390771F09093AA018093A901E091480200
:101A0000F0914902309721F00680F781E02D09948A
:101A100008951092D9011092D8010E945A0C90E0BA
:101A200080E00E94F30C90E080E00C94DD0C609369
:101A30007702709378028093790290937A020C94E3
:101A4000090D0F931F936091770270917802809136
:101A5000790290917A028B019C010C701127222748
:101A600033270C3011052105310529F460611F91E0
:101A70000F910C94170D6F7EFACF0F931F9341E0D7
:101A800050E060E070E004C0440F551F661F771FF0
:101A90008A95D2F7CB01BA016095709580959095A3
:101AA00000917702109178022091790230917A02A8
:101AB00060237123822393231F910F910C94170DA0
:101AC0000F931F9341E050E060E070E004C0440FCA
:101AD000551F661F771F8A95D2F7809177029091E4
:101AE0007802A0917902B0917A028A019B01082BB9
:101AF000192B2A2B3B2BC901B8011F910F910C9474
:101B0000170D6093F8017093F9018093FA01909397
:101B1000FB010C94090D8823B1F19CEF980F913AC9
:101B200070F4E2E9F1E09191891303C0DF011197AC
:101B30001C9241E0E839F407B1F70C945A0C90E29A
:101B4000980F983088F4877021E030E0A90102C036
:101B5000440F551F8A95E2F7CA0180959091DA01EA
:101B600089238093DA01E9CF9BE5980F933020F425
:101B700090E080E00C94F30C885A873120F490E0D8
:101B800080E00C94DD0C0895CF93C82F882309F4CE
:101B90004EC08CEF8C0F813AF8F4E2E9F1E088E96D
:101BA00091E0DF012D91C21759F08A179B07D1F7F9
:101BB0006C2F80E991E00E94400CCF910C945A0C5C
:101BC0002191C21303C0DF0111971C928E179F074A
:101BD000B9F70E945A0CECCF80E28C0F883068F481
:101BE000C77021E030E001C0220FCA95EAF780916A
:101BF000DA01822B8093DA01E0CFEBE5EC0FE330E2
:101C000040F4F0E0E95DFE4F808190E0CF910C94CC
:101C1000F30CC85AC73158F4EC2FF0E0EE0FFF1F59
:101C2000E65DFE4F80819181CF910C94DD0CCF91C8
:101C30000895E0914802F0914902309721F0019017
:101C4000F081E02D099480E00895F894E82FE29562
:101C5000EF70F0E031A1282F2F7081E090E001C0FB
:101C6000880F2A95EAF7982F9095932391A392A134
:101C7000892B82A3789408959091FC0192FF06C06D
:101C8000282F2871283079F4877F84602091FD0106
:101C900020FF06C0282F2871283061F4877F8160DB
:101CA00094FD877E0895282F2471243079F78B7F47
:101CB0008860ECCF282F2171213091F78E7F8860CA
:101CC000EFCFCF93DF93972F70E026E0929F600DC8
:101CD000711D1124FB013CE3839FE00DF11D1124D4
:101CE000EE0FFF1FE35CFF4EC591D491CE01C238C9
:101CF000D10589F1B8F5C133D10509F493C020F5B8
:101D0000C932D10509F487C0CA32D10509F491C09E
:101D1000C11520E5D20708F0A0C0C11530E4D307F3
:101D200008F00EC1CF3BD10508F08AC0C83AD105F2
:101D300008F0FBC0C53AD10508F0EFC0C430D105AA
:101D4000F8F42197E9F040C0C533D10509F45CC02F
:101D5000C933D105E9F62091FC01237089F080EEAA
:101D600090E00EC0C33ED10591F168F4C03ED105AC
:101D7000F9F0C23ED10561F62091FC0122FD20C0A0
:101D8000DF91CF910895C63ED10561F1C73ED105DF
:101D900081F1C43ED10509F0BBCF2091FD0121FFA7
:101DA000EFCF8091FC0184FD0FC087EE90E0E8CF7B
:101DB0002091FC0120FDE6C03091FD0130FFE0CF15
:101DC00083EE90E024FFDCCF90E080E0D9CF20913B
:101DD000FC0122FDDAC03091FD0130FDC0CF24FFAF
:101DE000CFCFF2CF2091FC0123FFCACF24FDECCF4F
:101DF000DCCF2091FC0123FDCBC03091FD0131FFF0
:101E0000EECF84EE90E0BCCF2091FC0125FFB8CF4F
:101E100089E290E0B5CF2091FC0125FFB1CF85E3A9
:101E200090E0AECF2091FC0126FFAACF8AE290E09D
:101E3000A7CF2091FC0126FFA3CF81E390E0A0CFA4
:101E4000C13ED10508F2C83ED10508F499CFDA9514
:101E5000C115DF4108F494CFB7CFC11533E5D307DF
:101E600030F5C11582E5D80708F073C0C11591E5BA
:101E7000D90708F069C09E0144E0369527954A9538
:101E8000E1F723708C2F86958695837030E2839FCF
:101E9000C0011124922BC37041E050E002C0440FF6
:101EA000551FCA95E2F7842B952B9C6869CFC11505
:101EB00029E5D207F8F4C11538E5D30708F05DC06D
:101EC000C11584E5D80708F07FCF9E012370332722
:101ED00081E090E002C0880F991F2A95E2F7EC2F6D
:101EE000E695E69530E2E39FF00111248E2B9F2BBF
:101EF0009A6846CFC1159AE5D90708F065CF8C2FAF
:101F00008F700E943C0E9E0194E0369527959A951D
:101F1000E1F72F70922F906933CFC55AD0E0C95D99
:101F2000DE4F888190E090642BCFC85AEC2FF0E010
:101F3000EE0FFF1FE65DFE4F80819181946420CFFC
:101F4000CE019F70906A1CCF9C2F8827816F906A6A
:101F500017CF9E012370332781E090E002C0880FE5
:101F6000991F2A95E2F7EC2FE695E69520E2E29F8D
:101F7000F00111248E2B9F2B98CF9C2F8827806FE8
:101F8000906AFECE89E390E0FBCE82EE90E0F8CE40
:101F900086EE90E0F5CEBF92CF92DF92EF92FF9265
:101FA0000F931F93CF93DF938C01C0907702D09053
:101FB0007802E0907902F0907A028091F801909195
:101FC000F901A091FA01B091FB01C82AD92AEA2AA5
:101FD000FB2ACFE1D0E0BC2ED701C6010C2E04C0F5
:101FE000B695A795979587950A94D2F780FD0EC070
:101FF000219788F7B12C8B2DDF91CF911F910F91F5
:10200000FF90EF90DF90CF90BF900895B8018C2F94
:102010000E94610E019761F3EECFCF92DF92EF92B3
:10202000FF926C01EE24FF2420E0C114D104E104EE
:10203000F10419F0C701B60120E1C72ED82EE92E10
:10204000FF24C114D104E104F10419F0285FC70191
:10205000B6016B017C0154E0F694E794D794C794E1
:102060005A95D1F7C114D104E104F10419F02C5FA1
:10207000C701B6016B017C0142E0F694E794D79466
:10208000C7944A95D1F7C114D104E104F10419F0C1
:102090002E5FC701B6019695879577956795672B53
:1020A000682B692B09F02F5F822FFF90EF90DF9054
:1020B000CF90089580910B02893220F489EB94E04F
:1020C0000C94550A8C33C0F08091980190E00196F1
:1020D000817099278093980121E030E0281B390B0B
:1020E00040E451E0249FC001259F900D349F900D46
:1020F0001124875C9D4FE4CF0895DC01FB018081B2
:102100009181803891054CF08FE78C93808191818B
:102110008F57910991838083089581382FEF92071B
:102120003CF481E88C938081918181589F4FF2CF5C
:102130008C93118210820895CF92DF92EF92FF92DA
:102140000F931F93CF93DF936C017B0164E670E0E4
:1021500088E70E942E2AEC0197FD12C010E000E0F3
:10216000F601E00FF11F849164E670E00E948A2A74
:10217000EC01892B29F40F5F1F4F0E151F0581F706
:102180000E94A42BCE01DF91CF911F910F91FF9060
:10219000EF90DF90CF9008951092DA01E2E9F1E03C
:1021A00086E0DF011D928A95E9F70C94090D1F93D3
:1021B000CF93DF93CDB7DEB7AA970FB6F894DEBF03
:1021C0000FBECDBF8CE692E02091F100DC012D9393
:1021D000CD01B2E084379B07B9F780916D0283305F
:1021E00009F471C0B8F4813009F448C0823009F4B0
:1021F000B2C08091E80083FF3AC180916C02909157
:102200006D029A3008F033C1E92FF0E0E95DFB4C34
:102210000C94FB2B8A3009F48DC08B3009F470C00C
:10222000893039F780916C02813219F78091700200
:1022300090917102009711F00297D9F68091E80011
:10224000877F8093E8008091E80082FF37C09091FB
:10225000F3008091F200029729F48091F1008B7FC6
:10226000813021F48091F10080935F028091E80039
:102270008B778093E8000E94120BBBCF80916C0299
:10228000813A09F0B6CF8091E800877F8093E8001B
:102290008091700290917102892B61F468E080E670
:1022A00092E070E00E94C40B8091E8008B778093ED
:1022B000E8009FCF60E090E080E0F3CF80916A0279
:1022C0008111C1CF96CF80916C02813A09F091CFF4
:1022D0008091700290917102892B09F08ACF8091D0
:1022E000E800877F8093E8008091E80080FFFCCFC2
:1022F000809114018093F1008091E8008E77B9CF2E
:1023000080916C02813209F074CF809170029091BB
:102310007102892B09F06DCF8091E800877F80934F
:10232000E8000E94120B80916E02809314010E94BB
:10233000CC105FCF80916C02813209F05ACF80912E
:10234000E800877F8093E8000E94120B80916F0263
:1023500080935E024ECF80916C02813A09F049CFA2
:102360008091E800877F8093E8008091E80080FFFB
:10237000FCCF80915E02BECF803899F0823809F0A0
:1023800076C0809170028F70873008F070C08093A3
:10239000E9008091EB0085FB882780F91092E90025
:1023A00006C08091680290916902911182609091BB
:1023B000E800977F9093E8008093F1001092F1007D
:1023C0008091E8008E77B0C1882309F49DC18230E6
:1023D00009F04DC080916E028111A1C180917002FF
:1023E0008F702FEF280F263008F041C08093E9004E
:1023F0002091EB0020FF93C1933031F48091EB00EA
:1024000080628093EB008BC19091EB009061909380
:10241000EB0021E030E001C0220F8A95EAF720931B
:10242000EA001092EA008091EB008860EACF811107
:102430001EC010916E021F778091E3008078812B7F
:102440008093E3008091E800877F8093E8000E94FA
:10245000120B8091E80080FFFCCF8091E300806840
:102460008093E30082E0111183E080936A028091FF
:10247000E80083FF0AC08091E800877F8093E8002E
:102480008091EB0080628093EB00AA960FB6F894DF
:10249000DEBF0FBECDBFDF91CF911F910895805851
:1024A000823028F720916E0230916F022C3DE3E0DC
:1024B0003E07A1F583E08A838AE289834FB7F894C7
:1024C000DE01139620E03EE051E2E32FF0E050936E
:1024D0005700E49120FF03C0E295EF703F5FEF707B
:1024E0008E2F90E0EA30C0F0C7968D939D932F5FBA
:1024F000243159F74FBF8091E800877F8093E8002F
:102500006AE270E0CE0101960E94C40B8091E8005F
:102510008B778093E800ABCFC096E7CF80917002B5
:1025200090917102432F55274330510509F44AC059
:1025300078F54130510509F47AC084E590E0E4E88B
:10254000F3E14230510509F092CF2091E800277F56
:102550002093E80020917202309173028217930752
:1025600008F49C0140E02115310509F065C04111D6
:1025700063C08091E80082FDC9CF80916A02882300
:1025800029F2853019F28091E80083FFF2CFBECFA7
:102590004132510509F43CC04232510509F067CF80
:1025A0008330910508F063CFFC01EE0FFF1FED575C
:1025B000FE4F0190F081E02D80589E4FDC018C9100
:1025C00090E01AC0332721303105D1F021153105B3
:1025D00061F02230310509F04ACFEAEEF3E1E491EF
:1025E0008E2F90E0EAEEF3E107C0E4E1F4E1E4913C
:1025F0008E2F90E0E4E1F4E1009709F438CFA5CF05
:10260000E8EFF3E1E4918E2F90E0E8EFF3E1F4CF0F
:102610008330910508F02BCF880F991FFC01E757F5
:10262000FE4F0190F081E02D89E090E08ECF82E1B5
:1026300090E0E8EDF3E189CF80916A02882309F404
:1026400065CF853009F462CF8091E80083FD5ECFCD
:102650008091E80082FD8DCF8091E80080FF83CFDC
:102660009091F3008091F2002115310519F0883026
:10267000910550F041E0089709F040E08091E800B2
:102680008E778093E8006FCF44914093F1003196AC
:10269000215031090196E8CF803809F0E8CE8091C9
:1026A000E800877F8093E80080916B028093F100BF
:1026B00087CE8111DCCE10916E02123008F0D7CE99
:1026C0008091E800877F8093E80010936B020E945E
:1026D000120B112311F084E005C08091E30087FD07
:1026E000FACF81E080936A0242E061EC81E00E94CF
:1026F000310B42E061EC82E00E94310B42E261EC7E
:1027000083E00E94310BB3CE80916E02813009F0DC
:10271000AECE81E0933009F080E0809369021092A0
:10272000E9008091E800877F8093E8000E94120B07
:102730009ECECF93DF9300D000D00F92CDB7DEB7FF
:1027400019828A836B834C832D8324E630E045E035
:1027500050E0BE016F5F7F4F84E10E94012B0F901C
:102760000F900F900F900F90DF91CF910895CF931E
:1027700084E090E00E94022FC82F81E290E00E9446
:10278000022F982F8C2FCF910895CF93DF9300D0F5
:102790000F92CDB7DEB790916A02943019F5898314
:1027A0007B836A8383E08093E9008FEF9091E80058
:1027B000815095FD06C095ED9A95F1F700008111C5
:1027C000F5CF8091E80085FF0DC050E040E063E068
:1027D00070E0CE0101960E94E80A8091E8008E77B1
:1027E0008093E8000F900F900F90DF91CF910895A4
:1027F000BC0184E00C94C513BC0183E00C94C513A8
:102800009C0182E08093E9009FEF8091E800915065
:1028100085FD06C085ED8A95F1F700009111F5CF91
:102820008091E80085FF0CC050E040E065E070E07A
:10283000C9010E94E80A8091E8008E778093E80041
:102840000895CF93DF93EC0181E08093E9008FEF4F
:102850009091E800815095FD06C095ED9A95F1F7AD
:1028600000008111F5CF8091E80085FF14C050E091
:1028700040E068E070E0CE010E94E80A8091E80044
:102880008E778093E80088E0FE01A0E6B2E0019038
:102890000D928A95E1F7DF91CF910895CF93C82FDC
:1028A0000E94C40D2FEF81EE94E0215080409040B3
:1028B000E1F700C000008C2FCF910C948B0DCF93CB
:1028C000DF93D82FC62F60917702709178028091A4
:1028D000790290917A020E940D10823028F08330A4
:1028E00069F0DF91CF910895D111FBCF8AEAC11130
:1028F00001C089EADF91CF910C944E14D111F1CF30
:102900008CEAC111F7CF8BEAF5CF80919D0181113F
:1029100011C08091D80080618093D8008AE18A95A7
:10292000F1F700C09091D900892F817090FF82E06B
:1029300080939D0181E090919D01913009F080E0AC
:1029400008956CEE7EEF90E080E00E942E2F60E014
:1029500082E090E00E94102F60E083E090E00E940F
:10296000102F1092F8011092F9011092FA011092B2
:10297000FB0160E084E090E00E94102F60E081E2C3
:1029800090E00E94102F60E085E090E00E94102F00
:1029900060E086E090E00E94102F6FEF87E090E00B
:1029A0000E94102F40E050E0BA0188E090E00E94C1
:1029B000222F60E08DE090E00E94102F40E050E078
:1029C000BA0188E190E00E94222F60E087E190E068
:1029D0000E94102F40E050E0BA018CE190E00E948C
:1029E000222F60E080E290E00E94102F40E050E053
:1029F000BA0188E190E00E94222F40E050E0BA0145
:102A00008FE090E00E94222F40E050E0BA0183E185
:102A100090E00C94222F1F93CF93DF93162F8A30D0
:102A200031F481E0DF91CF911F910C94B0158D307E
:102A300011F480E0F7CFC0917D04D0917E0496E040
:102A4000FE01A3EAB1E001900D929A95E1F7803E74
:102A5000A8F186E0FE0111928A95E9F7C0917D0404
:102A6000D0917E04111136C046E050E0BE0183EAE9
:102A700091E00E94632C9E012D573240892BA9F5CD
:102A80002A5F3F4F40910A02642F70E0C9010E9403
:102A9000B42B481B463010F4240F311D211572E071
:102AA000370710F030E020E023583D4F30937E048C
:102AB00020937D04DF91CF911F910895F6E08F9FC1
:102AC000B00111246750754F46E050E0CE010E94DE
:102AD0005A2CC4CF9E012A5F3F4FFE012E173F079D
:102AE00019F2808180958193F9CFC90145E09695CF
:102AF00087954A95E1F741E050E0BA0102C0660FC0
:102B0000771F8A95E2F7CB0160917B0270917C027E
:102B1000862B972BB9016B5F7F4FE5E07695679524
:102B2000EA95E1F702C0440F551F6A95E2F7842B3E
:102B3000952B90937C0280937B02A2CF1F93CF931F
:102B4000DF93EC01162FFE018491811104C0DF9107
:102B5000CF911F910895612F0E940B152196F3CFFD
:102B6000CF93382FE0917D04F0917E04ED57F24031
:102B700020910A02622F70E0CF010E94B42B281B23
:102B8000822F332369F066E00E94A82BC82FC15022
:102B900010F4CF91089560E080E20E940B15F7CF0A
:102BA0009F01280F311D2115324018F080E0F0E020
:102BB000E0E08E0F9F2F911D83589D4F90937E04D0
:102BC00080937D04E6CF0E949E1581E00C94B015A1
:102BD0001F920F920FB60F9211242F933F934F9392
:102BE0005F936F937F938F939F93AF93BF93CF9395
:102BF000DF93EF93FF93D091E900DF708091EC00B9
:102C0000C82FC17080FDC0E81092E9008091F000EB
:102C1000877F8093F00078940E94D7101092E9008B
:102C20008091F00088608093F000CD2BCF70C0932E
:102C3000E900FF91EF91DF91CF91BF91AF919F910B
:102C40008F917F916F915F914F913F912F910F9055
:102C50000FBE0F901F9018951F920F920FB60F92F4
:102C600011242F933F934F935F936F937F938F9391
:102C70009F93AF93BF93EF93FF938091E10082FF07
:102C800009C08091E20082FF05C08091E1008B7F46
:102C90008093E1008091DA0080FF24C08091D80009
:102CA00080FF20C08091DA008E7F8093DA008091CF
:102CB000D90080FF9FC080E189BD82E189BD09B450
:102CC00000FEFDCF81E080936A0280915D02811158
:102CD00009C00E94980A0E94630B8091E200846000
:102CE0008093E2008091E10080FF17C08091E200B4
:102CF00080FF13C08091E2008E7F8093E20080917C
:102D0000E20080618093E2008091D800806280932D
:102D1000D80019BC85E080936A028091E10084FFAD
:102D20002DC08091E20084FF29C080E189BD82E14D
:102D300089BD89B5982F917080FFFBCF8091D80015
:102D40008F7D8093D8008091E1008F7E8093E10099
:102D50008091E2008F7E8093E2008091E2008160AA
:102D60008093E20080916B02882309F449C084E0DB
:102D700080936A020E94CC100E94190E8091E1009B
:102D800083FF27C08091E20083FF23C08091E10090
:102D9000877F8093E10082E080936A0210926B0249
:102DA0008091E1008E7F8093E1008091E2008E7F30
:102DB0008093E2008091E20080618093E20042E033
:102DC00060E080E00E94310B8091F0008860809389
:102DD000F000FF91EF91BF91AF919F918F917F9103
:102DE0006F915F914F913F912F910F900FBE0F9078
:102DF0001F90189519BC10926A0210925D0272CF52
:102E00008091E30087FD93E090936A02B3CF8091B5
:102E10000B02089578941F921FB61F9211248F936E
:102E20009F93AF93BF938091FE019091FF01A0917A
:102E30000002B09101020196A11DB11D8093FE0117
:102E40009093FF01A0930002B0930102BF91AF9154
:102E50009F918F911F901FBE1F9018952FB7F894C8
:102E60008091FE019091FF01A0910002B0910102BA
:102E70002FBF0895CF93DF93C0917F04D09180043A
:102E8000CE010E94250C892BA1F0CE010E94250CB9
:102E9000893B9B4070F40E942E179093800480938E
:102EA0007F0420E540E060E080E0DF91CF910C946A
:102EB00099138091150181110EC020E540E060E07A
:102EC0000E9499130E942E179093800480937F0490
:102ED000DF91CF910895CE010E94250C893B9B4044
:102EE000B8F320E0DFCF0F931F93CF93DF93C62F6C
:102EF000D42F022FFC0182818823A1F060937602F7
:102F00000E942E179093750280937402C77081E01F
:102F100001C0880FCA95EAF7DF91CF911F910F91F9
:102F20000C94D30C80917602681335C080917402A2
:102F3000909175020E94250C8436910560F510E28F
:102F40001D0FCD17B9F080E28C0F883040F4C770A8
:102F500081E001C0880FCA95EAF70E94C80C1830BA
:102F600048F481E09D2F977001C0880F9A95EAF789
:102F70000E94D30C802F0E944E14183098F4D77002
:102F800081E001C0880FDA95EAF7DF91CF911F91B8
:102F90000F910C94C80CC77081E001C0880FCA95CE
:102FA000EAF7F3CFDF91CF911F910F9108954F92E0
:102FB0005F926F927F928F929F92AF92BF92DF92B9
:102FC000EF92FF920F931F93CF93DF9300D000D027
:102FD0000F92CDB7DEB77C01FC0183819481892BF0
:102FE00039F01081D180812F8D218F3F09F0C2C52A
:102FF0000F900F900F900F900F90DF91CF911F9136
:103000000F91FF90EF90DF90BF90AF909F908F90C7
:103010007F906F905F904F9008950E94CB0F082F84
:10302000682F89819A810E949A0CE12FF0E026E0B6
:10303000D29EE00DF11D11243CE3039FE00DF11D34
:103040001124EE0FFF1FE35CFF4E05911491F70171
:103050008281882309F460C0C80190568115F0E28E
:103060009F0750F0905E811520E1920728F0915C57
:1030700081159F4108F097C0C80199279C012450F1
:1030800031092432310520F08B970E9708F044C0A7
:103090008091AD019091AE010097C1F10E94250C85
:1030A000A0900B02B12C9C0150E040E060E67AEE6B
:1030B00080E090E00E94DC2BCA01B90125E030E0FD
:1030C00040E050E00E94DC2B622F70E06A197B091F
:1030D000072E000C880B990B0E94CE3027EA39E7A7
:1030E00047E45DE30E94CD312B013C01B501BB0CEF
:1030F000880B990B0E94CE309B01AC01C301B20139
:103100000E94452F0E949D3060930B020E942E1753
:103110009093AE018093AD010D328DE5180709F44F
:10312000F0C008F089C00D37110509F414C208F089
:1031300043C00B37110509F41DC208F0D3C10A378B
:10314000110509F426C2043FFCE51F0709F450C22B
:1031500008F03CC2093D3CE5130709F445C20A3DAD
:103160008CE5180709F450C2083D9CE5190709F0E1
:1031700011C126E241EE61EEC7010F900F900F9052
:103180000F900F90DF91CF911F910F91FF90EF90D3
:10319000DF90BF90AF909F908F907F906F905F90E7
:1031A0004F900C94731790E080E00F3F110511F0E1
:1031B00008F064CFC80162CF0A32EDE51E0709F4BA
:1031C0006EC048F509322DE5120709F0BCCFF701B2
:1031D0008281882309F40CCF61E083E090E00E94B3
:1031E000102F61E070E080E090E00F900F900F9062
:1031F0000F900F90DF91CF911F910F91FF90EF9063
:10320000DF90BF90AF909F908F907F906F905F9076
:103210004F900C94810D0B323DE5130709F44EC01D
:103220000C328DE5180709F08ECFF70182818823D3
:1032300009F465C083E047C001339DE5190709F42F
:1032400033C198F4F70192818091FD010F32FDE5C1
:103250001F0709F40CC108F48EC08170992309F48A
:103260001FC18111F5C08AE493C003333DE5130704
:1032700009F479C008F427C104339DE5190709F45E
:1032800097C10533EDE51E0709F05DCF809150022F
:10329000F7019281992309F497C1826090C1F701E7
:1032A0008281882309F4A4CE62E083E090E00E944A
:1032B000102F62E070E080E090E097CFF70182810C
:1032C000882321F082E00E94600D03C082E00E940A
:1032D0003D0D0F900F900F900F900F90DF91CF91B9
:1032E0001F910F91FF90EF90DF90BF90AF909F9054
:1032F0008F907F906F905F904F900C94210D83E0A2
:10330000E6CFF70182818823B9F084E00F900F9017
:103310000F900F900F90DF91CF911F910F91FF9021
:10332000EF90DF90BF90AF909F908F907F906F90C5
:103330005F904F900C94600D84E00F900F900F9071
:103340000F900F90DF91CF911F910F91FF90EF9011
:10335000DF90BF90AF909F908F907F906F905F9025
:103360004F900C943D0DF7018281882311F085E088
:10337000CDCF85E0E2CF8170992309F46BC088231B
:1033800009F466C084E00E943C0E0E94D30C80E5E4
:103390000E94C40DF7018281882309F4FCC31092B6
:1033A00076020230FCE51F0708F40CC406312CE558
:1033B000120738F098012B5F3C452930310508F0A1
:1033C00001C40E94B7139093FD018093FC0100316A
:1033D0003CE5130709F4C8C108F056C108309CE564
:1033E000190709F4B7C108F025C10430FCE51F072F
:1033F00009F4A8C108F00BC102303CE5130709F439
:1034000097C103301C4509F499C16091FC011091EA
:10341000FD0184E090E00E94102F612F81E290E096
:103420000E94102F0F900F900F900F900F90DF9130
:10343000CF911F910F91FF90EF90DF90BF90AF90D1
:103440009F908F907F906F905F904F900C94CC10D6
:1034500081E099CF882349F084E00E943C0E0E94CD
:10346000C80C80E50E948B0D95CF81E0F6CF81706E
:10347000992359F0882339F084E00E943C0E0E9481
:10348000D30C8FE485CF81E0F8CF882339F084E036
:103490000E943C0E0E94C80C8FE4E4CF81E0F8CF7C
:1034A0008111E3CF8AE4DECF8091FD018170F701C5
:1034B0009281992321F08111E6CF8DE469CF8111AA
:1034C000EDCF8DE4CFCF81E00E943C0EF7019281D9
:1034D000992321F00E94D30C8AE25ACF0E94C80C93
:1034E0008AE2C0CF81E00E943C0EF70192819923CD
:1034F000C9F00E94D30C86E00F900F900F900F90B0
:103500000F90DF91CF911F910F91FF90EF90DF907F
:10351000BF90AF909F908F907F906F905F904F90F3
:103520000C94C40D0E94C80C86E00F900F900F9071
:103530000F900F90DF91CF911F910F91FF90EF901F
:10354000DF90BF90AF909F908F907F906F905F9033
:103550004F900C948B0D81E00E943C0EF7019281FC
:10356000992321F00E94D30C89E1C6CF0E94C80C98
:1035700089E1DBCF81E00E943C0EF7019281992323
:1035800021F00E94D30C8BE1B7CF0E94C80C8BE1D5
:10359000CCCF81E00E943C0EF7019281992321F06B
:1035A0000E94D30C8DE1A8CF0E94C80C8DE1BDCF45
:1035B00080915002F7019281992321F081608093DC
:1035C000500216CD8E7FFBCF8D7FF9CF063FECE505
:1035D0001E07B1F088F0073F2CE5120709F0DACE9C
:1035E00027E245EE66EEC8CD27E245EE65EEC4CD96
:1035F00026E241EE60EEC0CD27E245EE64EEBCCDA2
:1036000026E241EE62EEB8CD28E241E0EFCF8091B4
:10361000FC01806106309CE5190709F48CC080919B
:10362000FC01886007301C4508F485C08091FC01CE
:10363000806281C08091FC018D7F0C30FCE51F070A
:1036400009F479C070F48091FC018C600A303CE58B
:10365000130709F470C008F481C08091FC018E7FCB
:103660006AC08091FC01877F0E309CE5190709F440
:1036700062C08091FC018B7F0F301C4508F45BC059
:103680008091FC018F7E57C00C3FFCE51F0709F4B9
:103690005DC030F503313CE5130709F46DC078F4E3
:1036A00001319CE5190709F463C002311C4509F09A
:1036B000ACCE0E94CC108091FC018F773CC00531CC
:1036C000FCE51F0709F460C008F474C08091FD0197
:1036D00081600B3F1C4509F098CE8093FD0195CE8B
:1036E00001158DE5180709F44BC088F48091FD01A0
:1036F0008D7F0E3FECE51E0781F38091FD018E7FEB
:103700000F3F1C4550F38091FD018360E6CF0230EE
:103710002DE5120709F457C008F442C060E00330F9
:103720001D4509F072CE8EE090E00E94102F6DCE04
:103730008091FC0181608093FC0167CE8091FC0147
:103740008260F9CF8091FC018460F5CF8091FD010A
:103750008260C3CF8091FC018064EDCF0E94CC10C9
:103760008091FC018068E7CF8091FC018F7DE3CFE1
:103770008091FC018F7BDFCF8091FC01837FDBCFC9
:103780008091FD018C7FA9CF8091FC0182FB99275C
:1037900090F921E0922790FB82F990FB83F9CBCF3F
:1037A0008091FD01982F909591708E7F892B90FBD1
:1037B00081F993CF0E94CC109091FC01892F97FB47
:1037C00087F98058B8CF61E0AECF85E3EDC188239B
:1037D00049F001159CE5190709F450C00F3D1C453F
:1037E00009F468C0F70100811181882309F478C0C9
:1037F000C8010E94CB0FD82E682FC8010E949A0CD6
:10380000B8018D2D0E94610ED82EB82EF70182814D
:1038100081111092D901192F12951F70143009F4DB
:10382000B2C008F062C0123008F471C0212F2850D5
:10383000330B2230310510F40E94190E85E0F70198
:10384000DE01119601900D928A95E1F789819A81A6
:103850000E94710C9A81E981F0E036E0939FE00DBF
:10386000F11D11249CE3899FE00DF11D1124EE0F41
:10387000FF1FE35CFF4E85919491BACB0E94CC1060
:10388000FFEF24E33CE0F15020403040E1F700C07E
:10389000000087E797E7909301088093000888E18C
:1038A0009AE00FB6F894A895809360000FBE9093AD
:1038B0006000FFCF0F900F900F900F900F90DF914F
:1038C000CF911F910F91FF90EF90DF90BF90AF903D
:1038D0009F908F907F906F905F904F900C94A11469
:1038E000C8010E94710CD82E8BCF183009F467C024
:1038F000193009F09BCF092F0F70882309F433C1C9
:10390000802F0E94600D8D2D0E94D30C8FCF092F28
:103910000F70907F11F00295007F8823C9F000237B
:1039200069F080E28D0D883010F0B1100BC08091ED
:10393000DA01082B0093DA010E945A0C8D2D0E94A7
:10394000C40D74CF8091D901082B0093D901F4CF15
:103950008D2D0E948B0D002309F468CF009580E225
:103960008D0D883010F0B11008C08091DA01082365
:103970000093DA010E945A0C59CF8091D901082393
:103980000093D901F7CF292F26952695237051F062
:10399000213009F04BCF882379F08D2D93700E9450
:1039A000DD0C44CF882329F08D2D93700E94F30CF9
:1039B0003DCF90E080E0FACF90E080E0F0CF292F7B
:1039C000237009F065C0811131CF8D2D82958695C8
:1039D0008770880F880F6D2D6F70862E912CB12CFB
:1039E000A12C082E04C0880C991CAA1CBB1C0A948C
:1039F000D2F740E050E0BA01D4FE0FC04FE050E0F3
:103A000060E070E004C0440F551F661F771F8A9561
:103A1000D2F74095509560957095969596959370D0
:103A2000923019F1D8F44090F8015090F90160906B
:103A3000FA017090FB01913069F0482959296A29EF
:103A40007B29CB01BA0164217521862197210E942F
:103A5000810DECCE84289528A628B728CB01BA0181
:103A6000682979298A299B29F2CF482959296A2965
:103A70007B298090F8019090F901A090FA01B09014
:103A8000FB01CB01BA01682579258A259B25DFCF6B
:103A90002695882311F0292F2170222309F4C6CE00
:103AA0008D2D829586958770880F880F6D2D6F708C
:103AB000862E912CB12CA12C082E04C0880C991CA8
:103AC000AA1CBB1C0A94D2F740E050E0BA01D4FE15
:103AD0000FC04FE050E060E070E004C0440F551F9D
:103AE000661F771F8A95D2F740955095609570951F
:103AF000969596959370923019F1D8F4409077028C
:103B0000509078026090790270907A02913069F05A
:103B1000482959296A297B29CB01BA0164217521D9
:103B2000862197210E94170D81CE84289528A628EA
:103B3000B728CB01BA01682979298A299B29F2CFB4
:103B4000482959296A297B29809077029090780228
:103B5000A0907902B0907A02CB01BA01682579254C
:103B60008A259B25DFCF8D2D0E94C80C802F0E94B7
:103B70003D0D5CCE85E0DE01119601900D928A9597
:103B8000E1F7F701228189819A81211146CA0E94B9
:103B9000710C082F4ACA06311C4509F023CE8091CA
:103BA000AF01811112CE89E2E2E9F1E028E931E0CA
:103BB0009191891303C0DF0111971C922E173F07C3
:103BC000B9F714C006312CE5120709F000CE809138
:103BD000DA018A7A91E009F490E09093AF0169E20A
:103BE000811165E380E991E00E94400C0F900F90F5
:103BF0000F900F900F90DF91CF911F910F91FF9039
:103C0000EF90DF90BF90AF909F908F907F906F90DC
:103C10005F904F900C945A0CAF92BF92CF92DF926C
:103C2000EF92FF920F931F93CF93DF9388E5E82ED7
:103C300081E0F82E0BED11E05801D0E0CC24C394C4
:103C4000D12CD7018D917D01F894E82FE295EF708A
:103C5000F0E021A18F70A60102C0440F551F8A9584
:103C6000E2F7CA01922F982B91A392A18095892304
:103C700082A3789450EA5A95F1F7E2E6F1E030E059
:103C800020E0C0E04191A42FA295AF70B0E09096E3
:103C90008C9190E04F7002C0959587954A95E2F718
:103CA00080FD46C08C2D022E01C0880F0A94EAF7D1
:103CB000C82B2F5F3F4F2630310521F7F701319791
:103CC00080810E94250ED5018C91C81799F1CC9363
:103CD00081E0D82BBFEFAB1ABB0AEDE5EE16E1E0B1
:103CE000FE0609F0AECFC091E601DD2329F181E0A7
:103CF00080939B010E942E1790939A0180939901C3
:103D00008091990190919A010E94250C0697C0F02C
:103D1000EC2FF0E0E751FE4F80EE91E0D8012D91BD
:103D20008D0121938A179B07C9F710929B0108C048
:103D300080E0BECF80E0CDCF80919B018111E0CFAC
:103D40000E948514882309F45EC08091E50190E00B
:103D500087519E4F0E946627811152C080919C011D
:103D60008F5F80939C01863050F0E091E501F0E098
:103D7000E751FE4F108211821282138214828091C9
:103D8000AD019091AE010E94250C893E934060F1F7
:103D900060910B02062F10E066277727601B710BDE
:103DA000072E000C880B990B0E94CE3027EA39E7CA
:103DB00047E45DE30E94CD316B017C01B801110F36
:103DC000880B990B0E94CE309B01AC01C701B60154
:103DD0000E94452F0E949D3060930B020E942E1777
:103DE0009093AE018093AD018D2FDF91CF911F9104
:103DF0000F91FF90EF90DF90CF90BF90AF9008951C
:103E000010929C01BCCF8091E60190E087519E4FBB
:103E10000E94D527E9CF1F921FB61F9211248F93BE
:103E20009F93AF93BF938091E801811113C080915C
:103E3000FE019091FF01A0910002B0910102419614
:103E4000A11DB11D8093FE019093FF01A09300027C
:103E5000B0930102BF91AF919F918F911F901FBEB0
:103E60001F901895809136020895809136029091A6
:103E70003702911103C091E089270895882369F0E2
:103E800062E070E08BE390E10E949C10892B19F0B6
:103E90008091360208951092360280913602EBCF5F
:103EA000CF93C0913602809137028823D1F00E94CF
:103EB000340C605A75418F4F9F4F6093320270935C
:103EC00033028093340290933502C11108C062E03E
:103ED00070E089E390E10E949C10892B29F0C09149
:103EE00036028C2FCF91089581E080933602F7CF70
:103EF000FF920F931F93CF93DF93D091E7010D2F84
:103F000010E00D501E4FFC01C081F8018081C81BDC
:103F1000FC2E1F1464F08C2FC7FD80E0C81BC1115C
:103F200010C0DF91CF911F910F91FF900895FA94E7
:103F3000F80180818F5F808360E08D2F0E945F1485
:103F4000E8CFCF5FF80180818150808361E08D2FC1
:103F50000E945F14E4CFE091F601F0E0ED50FE4FD7
:103F60002081FC012083089580930B020895CF9354
:103F7000DF9300D000D00F92CDB7DEB749835A83CC
:103F80006B837C838D8385E0FE013196AEE9B1E0E1
:103F900001900D928A95E1F70F900F900F900F907E
:103FA0000F90DF91CF910895CF93DF9300D000D091
:103FB0000F92CDB7DEB785E0EEE9F1E0DE011196B4
:103FC00001900D928A95E1F729813A814B815C81BC
:103FD0006D8170E080E090E00F900F900F900F9057
:103FE0000F90DF91CF9108958EE090E00E94022F14
:103FF00091E0811101C090E0892F0895CDB7DEB71F
:104000002F970FB6F894DEBF0FBECDBF84B7877F62
:1040100084BF0FB6F894A895809160008861809362
:104020006000109260000FBE80E890E00FB6F89438
:1040300080936100909361000FBE85B7806885BF53
:1040400085B7806885BF0E94980A0E94630B8091A3
:10405000E20084608093E200789480916A02882371
:10406000A1F01091E9001F709091EC00892F8170F0
:1040700090FD80E8182B1092E9008091E80083FD04
:104080000E94D7101F701093E90082E084BD93E076
:1040900095BD9AEF97BD80936E000E94F41F8093A8
:1040A00000010E94851481110E945A27809100010D
:1040B0008091000195E0811190E09093E60185E008
:1040C000891B8093E50186E60E94250E87E90E9400
:1040D000250E86EC0E94250E84E30E94250E85E3C2
:1040E0000E94250E86EF0E94250E87EF0E94250E66
:1040F00081E30E94250E83E30E94250E82E30E9445
:10410000250E86E30E94250EEBEDF1E085EE91E0B1
:10411000A9EEB1E011921D928E179F07D9F790E09A
:1041200080E00E940A2F8C3E9E4F11F00E94A11445
:104130000E948514811102C00E94602783E0809351
:10414000300280E280930A020E94282A6DE070E02B
:1041500080E293E10E949C10892BE9F58091300266
:1041600063E070E081FD9DC18DE193E10E949C10B0
:10417000892B89F56DE070E08DE093E10E949C1041
:10418000892B49F50E94340C605A75418F4F9F4F1F
:10419000609332027093330280933402909335021D
:1041A000EDE7F2E080E092E0DF019C011D922150FA
:1041B0003040E1F7F0937E04E0937D048FEF9FEFB2
:1041C00090937C0280937B0281E0809337028093FE
:1041D00036021092310290E080E00E940A2F8C3E5D
:1041E0009E4F11F00E94A11482E090E00E94022FE5
:1041F000809352020E94B7139093FD018093FC01BB
:1042000083E090E00E94022F682F70E090E080E051
:104210000E94810D80910001811106C084EF80937E
:10422000020185EF8093010120910201A22FA29546
:10423000AF70B0E091963C9191972F7081E090E043
:10424000BC01022E01C0660F0A94EAF7462F409582
:10425000432391964C93919792963C919297362B4B
:1042600092963C93929740910101E42FE295EF7072
:10427000F0E031A14F70042E01C0880F0A94EAF7D4
:10428000982F9095932391A392A1892B82A3909626
:104290008C9190E002C0959587952A95E2F7817000
:1042A00020A130E002C0359527954A95E2F792E0CB
:1042B00020FF90E0892B8093F7019091000181E02D
:1042C00098279093F601891B8093E70126E440E04C
:1042D00060E080E00E9499138AE091E090934902A7
:1042E00080934802CE0101961C0180916A028530BC
:1042F00009F4DAC00E940C1ED82E0E94851488236F
:1043000009F416C1E3E5F2E0A9EEB1E010E000E047
:10431000B02EED9081918E1509F404C18E25C12C2B
:10432000FF24F394982F9F2109F4F7C00E942E17C1
:10433000C982BA82EF2021E009F420E02B8381605A
:104340009D838C83C1010E94D717F801ED5AFD4F60
:104350008081F826F0828091F701E82FEE0FEE0FB2
:1043600080910201A82FA295AF70B0E090962C9199
:1043700030E08F7002C0359527958A95E2F721705D
:10438000332780910101A82FA295AF70B0E09096DD
:104390004C9150E08F7002C0559547958A95E2F791
:1043A000CA018170992740FF02C082E090E0822B11
:1043B0008E2B8093F7011091F6018F70E82FF0E0BB
:1043C000E859FE4F80819091F501890F8093F501A6
:1043D00082306CF0E12F012E000CFF0BED50FE4FF0
:1043E00080818F5F808360E0812F0E945F148091C5
:1043F000F5018F3F6CF4E12F012E000CFF0BED5007
:10440000FE4F80818150808361E0812F0E945F1484
:104410008091F501082E000C990B62E070E00E947B
:10442000C82B8093F50180913702882309F406C1D7
:104430008DE792E090937E0480937D040E94851422
:10444000882309F47EC160E081E893E10E949E1513
:1044500060E08CE793E10E94E31560E08BE793E175
:104460000E94E3158091FD0160E080FF6EC087E748
:1044700093E10E94E3156091F8017091F901809138
:10448000FA019091FB010E940D10882309F460C08D
:10449000813009F488C060E083E693E10E949E15B4
:1044A0005CC08AE193E162CE80916A02843021F19E
:1044B0001092E80180E4A8E1B0E00FB6F894A89566
:1044C000A09360000FBE8093600083B7817F8460FB
:1044D00083BF83B7816083BF7894889583B78E7FCD
:1044E00083BF0FB6F894A89580916000886180938F
:1044F0006000109260000FBE80916902882309F469
:10450000F4CE0E940C1EE9EEF1E08191811190C47D
:10451000B1E0E33FFB07C9F7E8CEC394FF0C26E008
:10452000C21200CF0F5F1F4F0A30110509F0F0CE05
:104530000E942E172FEF29832A831B8281609D837F
:104540008C83C1010E94D71706CF83E793E191CFF7
:1045500060E08EE693E10E94E31560E080E693E17F
:104560000E949E1560E08AE593E10E94E315609148
:104570007702709178028091790290917A020E947C
:104580000D10823009F4D1C090F0843009F4D1C00C
:1045900008F4C7C0853009F4D0C060E086E393E139
:1045A0000E94E31509C060E089E693E1D4CF60E0A2
:1045B00084E593E10E949E1560E083E393E10E940D
:1045C0009E15E0914802F091490280E0309721F079
:1045D0000190F081E02D099581FB662760F98DE25D
:1045E00093E10E94E31580913702882371F02091B6
:1045F0007B0230917C022115310539F08091310226
:1046000061E070E0882309F45AC180913602882362
:10461000A9F00E94340C00913202109133022091D3
:10462000340230913502601B710B820B930B6F3F8C
:104630007F4F8F4F9F4710F40E94351FD1100E946B
:10464000501F0E94D41F3F83488759876A872B8752
:104650008091770290917802A0917902B0917A02CC
:104660000097A105B10561F035E0B695A79597953E
:1046700087953A95D1F780FF03C0809150028B87D0
:104680000E943A170E94F41F8111E0C1198204E6CA
:1046900010E021E030E0A10169EF84E10E94552B98
:1046A000898180FD51C28091420290914302209104
:1046B000400230914102822B932B20913C02309199
:1046C0003D02822B932B20913E0230913F02822BA0
:1046D000932B892B09F4BFC162E472E08BE392E073
:1046E0000E947D1060E472E08AE392E00E947D10F7
:1046F0006EE372E089E392E00E947D106CE372E069
:1047000088E392E00E947D1080913B028F8380912C
:104710003A028887809139028987809138028A8796
:10472000C2CF60E08EE493E145CF60E088E493E19E
:1047300041CF60E083E493E13DCF60E08CE393E11F
:1047400039CF80910B02882309F46FC00E94501F5B
:10475000409106025091070260910802709109028F
:104760002FB7F8948091FE019091FF01A091000273
:10477000B09101022FBF841B950BA60BB70B893C90
:104780009105A105B10560F00E94340C609306020A
:104790007093070280930802909309020E945A10B6
:1047A0000E94340C6093020270930302809304020F
:1047B0009093050280910A02FCE08F9FC0011124B2
:1047C000811522E0920714F090E080E083589D4F1D
:1047D00090937E0480937D0480910B021F928F93AF
:1047E0008EE191E09F938F93ECE0F2E0FF93EF93E3
:1047F0000E94702CECE0F2E001900020E9F7CF017C
:1048000001977C010F900F900F900F900F900F90D9
:104810000CE012E00E151F0508F0E5CE60E0D801AF
:104820008D918D010E940B15F5CF409102025091A0
:10483000030260910402709105022FB7F8948091F1
:10484000FE019091FF01A0910002B09101022FBFE3
:10485000841B950BA60BB70B81369A4EA105B105AB
:1048600018F00E94351FA6CF409106025091070212
:1048700060910802709109022FB7F8948091FE01AF
:104880009091FF01A0910002B09101022FBF841B03
:10489000950BA60BB70B893C9105A105B10508F452
:1048A00089CF0E94340C60930602709307028093B4
:1048B0000802909309020E945A107CCF8F5F082F44
:1048C00010E07B01082E02C0EE0CFF1C0A94E2F7F8
:1048D000A9014E215F21452B89F39091300290FD73
:1048E00043C08295880F80768093050198013695A4
:1048F00027953695279520930801815E80930601C0
:104900001092090124E630E047E050E063E071E0F6
:1049100088E70E94012B892B09F077CEA80175E06A
:10492000440F551F7A95E1F78091300280FD2AC02F
:1049300043585D4F04E610E020E230E060E488E791
:104940000E94282B892B09F060CE0E94501FE09412
:10495000F09480917B0290917C02E822F922F092FF
:104960007C02E0927B0251CE880F880F880F8093E3
:10497000050110920801895F8093060183E080930E
:104980000901C0CFE0E1F2E020E211922A95E9F7B7
:104990008CE791E09D878C8708E711E09924939438
:1049A000AC85BD852D91BD87AC87F80141908F0105
:1049B000440E552E511CC20183589D4F2C01E22FED
:1049C000F0E0E05FFD4F30E020E067E0762E721A05
:1049D000C92C022E01C0CC0C0A94EAF7520190E0D7
:1049E000D5018D915D018C21672D691B6770862E25
:1049F000062E000C770BB82F01C0BB0F8A94EAF784
:104A00008B2E7195619571096770772701C0869526
:104A10006A95EAF7882A8081882A80829F5F983089
:104A2000F9F62F5F3F4F31962830310571F6E0E8F7
:104A3000F1E02C853D85E217F30709F0B1CF04E6DC
:104A400010E020E230E040E152E078CF0E9485148F
:104A5000882309F41BCE60917702709178028091CF
:104A6000790290917A020E940D10823009F493C16C
:104A700040F0843009F496C108F488C1853009F407
:104A800095C10E943A178091770290917802A09187
:104A90007902B0917A020097A105B10509F48AC1A3
:104AA00022E0B695A795979587952A95D1F780FF2F
:104AB00081C1B1E0B0934F02EB85EE834E2F5F8151
:104AC000688579858A850E94B71F0E94D41F298333
:104AD0003A834B835C836D830E94F41F882309F41F
:104AE0006CC13A812B819D818C811A821B821D822F
:104AF0001C8240914F02411190C13A832B839981CE
:104B000080914A029813AAC18A8190914B0288230E
:104B100011F08913A3C18B8190914C02882311F06D
:104B200098139CC18D8190914E02882311F09813A7
:104B300095C18C8190914D02882311F098138EC1FC
:104B400021E02093150197C1809146029091470280
:104B5000009709F0FBC00E942E17816090934702D6
:104B600080934602D101E5E01D92EA95E9F704E65B
:104B700010E025E030E0A10164E084E10E94552BC3
:104B80006B819C811A8109818D8180FDE5C0691B43
:104B9000770B072E000C880B990B0E94CE306C8788
:104BA0007D878E879F87812F801B990BBC01072EE5
:104BB000000C880B990B0E94CE304B015C012C85B8
:104BC0003D854E855F85CA01B9010E94CD316B01DB
:104BD0007C01A5019401C501B4010E94CD319B0166
:104BE000AC01C701B6010E94452F0E9498326B01AB
:104BF0007C0120E030E040EC5FE30E943A322B0180
:104C00003C0120E030E040E050E4C701B6010E94E2
:104C1000C03118160CF0B1C0009144021091450249
:104C2000C8010E94250C892B09F0A0C00E942E17F4
:104C30009093450280934402A7019601C701B601F3
:104C40000E94452F20E030E040EC5FE30E943A32C2
:104C50009B01AC01C301B2010E94452F6B017C0195
:104C60002C853D854E855F85C501B4010E94C42F0A
:104C700020E030E0A9010E94452F2B013C010E9459
:104C800023309B01AC01C701B6010E94CD314B011D
:104C90005C016091420270914302072E000C880B68
:104CA000990B0E94CE30A50194010E94452F0E94CD
:104CB00096307093430260934202C301B2010E9496
:104CC0008A329B01AC01C701B6010E94CD316B0154
:104CD0007C016091400270914102072E000C880B0C
:104CE000990B0E94CE30A70196010E94452F0E9489
:104CF0009630709341026093400260913E02709141
:104D00003F02072E000C880B990B0E94CE30A701A2
:104D100096010E94442F0E94963070933F02609348
:104D20003E0260913C0270913D02072E000C880B00
:104D3000990B0E94CE30A50194010E94452F0E943C
:104D4000963070933D0260933C02ADCC0E94250CDE
:104D5000069708F000CFA7CC87FF04C0FB85F16061
:104D6000FB87A1CC2B852E7F2B879DCCC8010E9471
:104D7000250C8838934108F459CF0E942E17909340
:104D8000450280934402A301920164CF20E04FE5E5
:104D900069E980E004C020E040E061E789E90E9421
:104DA000991371CE20E04EE660E0F8CF20E049E9AB
:104DB00069E4EFCF10924F027FCE0E9485148111DB
:104DC00090CE09818A816B812C814D8190914A021C
:104DD000091318C090914B02882311F0891312C057
:104DE00090914C02662311F069130CC090914E0211
:104DF000442311F0941306C090914D02222381F0B8
:104E0000291771F01092150190914F0291110CC069
:104E100020E040E00E9458282EC09D838C836FCEF6
:104E2000F1E0F0931501F0CF00E060E080E0F2CF18
:104E300080E189BD82E189BD09B400FEFDCF80918A
:104E4000D8008F7D8093D8008091E00082608093AD
:104E5000E0008091E00081FDFCCF47CA109215016F
:104E6000E0914802F0914902309729F00480F581E1
:104E7000E02DC10109951A821B821C821D8285E0EA
:104E8000F101AAE4B2E001900D928A95E1F749811F
:104E90005A816B817C818D810E94B71F0E94190EFF
:104EA00090915102891709F420CA0E94190E80932B
:104EB00051021BCA61E070E086E191E00C94C828C1
:104EC00061E070E086E191E00C94D1280F931F938C
:104ED000CF93DF9300D000D00F92CDB7DEB78C0117
:104EE00090E080E00E94AA29009709F05CC0F801D8
:104EF000DC01A457BB4F2C9121930196853091057D
:104F0000B9F781E994E00E94781F0E940717809307
:104F100082040E94F41F8823B9F00E94D41F2983C1
:104F20003A834B835C836D83509192045A836091E2
:104F300093046B83809194048D83709195047C839A
:104F4000409196040E94B71F0E94321F80938304F1
:104F50008091770290917802A0917902B0917A02C3
:104F60008093840490938504A0938604B09387046F
:104F70008091F8019091F901A091FA01B091FB01A3
:104F80008093880490938904A0938A04B0938B043F
:104F900081E00F900F900F900F900F90DF91CF91C5
:104FA0001F910F91089580E0F4CF30E020E0FC01E4
:104FB0004191CF01F901E457FB4F40832F5F3F4FF1
:104FC00025303105A1F781E994E00E94AB1F809163
:104FD00082040E94B41F0E94F41F811114C08091AA
:104FE0009B048093920480919A048093930480910F
:104FF00099048093940480919804809395048091FF
:1050000097048093960480918304882309F44DC00B
:105010000E94501F40918404509185046091860441
:10502000709187048091770290917802A091790223
:10503000B0917A02481759076A077B0781F080917F
:10504000840490918504A0918604B0918704809394
:10505000770290937802A0937902B0937A024091FC
:1050600088045091890460918A0470918B04809126
:10507000F8019091F901A091FA01B091FB01481754
:1050800059076A077B0781F0809188049091890411
:10509000A0918A04B0918B048093F8019093F90158
:1050A000A093FA01B093FB0108950E94351FB2CF7F
:1050B0000F9380939B0460939A04409399042093E8
:1050C0009804009397040F9108958EE14A9B02C0C3
:1050D0008150E1F74A9BFECF08955A9880E28A9565
:1050E000F1F75A9A0895FC013BE03A95F1F720E078
:1050F00090E080E031E040E14A95F1F7880F4A9B6B
:1051000002C08160232742E04A95F1F7000040E1A8
:105110004A95F1F79F5F6913EECF90E19A95F1F709
:1051200099B132E03A95F1F7000040E14A95F1F784
:1051300092FB992790F992272081920F90830895EE
:10514000EF92FF920F931F93CF93DF930F92CDB700
:10515000DEB719828C017C01E60EF11C0E151F05CD
:1051600061F481E09981911180E00F90DF91CF91FE
:105170001F910F91FF90EF9008950E94652868E0BD
:10518000CE0101960E947328F80181938F01E6CF2A
:1051900090939E0480939D0460939C04529A5A9A23
:1051A000089590939E0480939D0460939C0452986C
:1051B0005A9AEA9AE9E6F0E080818F7C808308952C
:1051C0006150770B91E001C0990F6A95EAF720E0F2
:1051D00031E0911108C0222391F05A9A80E28A9519
:1051E000F1F75A980895492F482339F05A9A2327FE
:1051F00040E24A95F1F79695ECCF5A98F9CF5A9834
:10520000EDCFFF920F931F93CF93DF93EC018C01AF
:10521000060F111DC017D10731F4DF91CF911F91F7
:105220000F91FF900895F9900E946D2868E08F2DEE
:105230000E94E028EFCF1F920F920FB60F92112419
:105240000F931F932F933F934F935F936F937F938E
:105250008F939F93AF93BF93EF93FF93CF93DF937E
:105260000F92CDB7DEB719820E94652867E0CE01A4
:1052700001960E947328082F069506950695982F8B
:1052800092959570202F2570920F292F2370969557
:1052900096958770920F891344C08981811141C00E
:1052A00080919C048017E8F120E12A95F1F75A9A41
:1052B000529A82E08A95F1F700C0A8E00A9FC001E7
:1052C000112400919D0410919E04080F191F5A98F3
:1052D000F8016581662321F0868197810E9401296A
:1052E0000E946D28F0E1FA95F1F75A9852985A9A6F
:1052F00020E12A95F1F7D80112966C911297662356
:1053000031F113968D919C910E94A028D801ED91C6
:10531000FC91882311F088E001C082E080830E9424
:1053200065280F90DF91CF91FF91EF91BF91AF91E1
:105330009F918F917F916F915F914F913F912F91AD
:105340001F910F910F900FBE0F901F901895ED9128
:10535000FC91E1CF0F931F93CF93DF9320919C0497
:10536000281719060CF471C08C0193E0000F111F6F
:105370009A95E1F7C0919D04D0919E04C00FD11F72
:10538000F894529A5A9825E02A95F1F70000982F40
:10539000969595708570980F892F83709695969540
:1053A000980F092B0E946D2800C067E0802F0E9493
:1053B000E02880E18A95F1F752985A9A4A9B17C0E3
:1053C00087E090E04A9915C06D81662321F18E81B6
:1053D0009F810E94A02881111EC0529A5A9AE8818A
:1053E000F98182E08083789482E090E00DC000C073
:1053F000E5CF019771F4529A5A9AE881F98181E0D8
:105400008083789481E090E0DF91CF911F910F919C
:10541000089500C0D7CF0E94652820E22A95F1F7B1
:105420005A98529A80E18A95F1F76A81662321F0B1
:105430008B819C810E9401290E946D28E881F9815D
:105440001082789490E080E0DFCF84E090E0DCCFC1
:105450001092B9008CE08093B8000895EF92FF920B
:105460000F931F93CF93DF93182FEB011092BC0083
:1054700084EA8093BC000E942E177C018091BC00BE
:1054800087FF27C08091B900887F883029F08091FC
:10549000B900887F8031D9F51093BB0084E88093F0
:1054A000BC000E942E178C018091BC0087FF24C095
:1054B0002091B900287F90E080E02831B1F081E0B0
:1054C00090E0203411F490E080E09195819591096D
:1054D0000CC0CF3FDC0791F20E942E178E199F0956
:1054E0008C179D0758F28EEF9FEFDF91CF911F91A0
:1054F0000F91FF90EF900895CF3FDC07A9F20E9433
:105500002E17801B910B8C179D0770F2ECCF8FEF3D
:105510009FEFEBCF0F931F93CF93DF93EB0180931C
:10552000BB0084E88093BC000E942E178C01809100
:10553000BC0087FF11C02091B900287F81E090E076
:10554000283211F490E080E0919581959109DF91E6
:10555000CF911F910F910895CF3FDC0741F30E9437
:105560002E17801B910B8C179D0708F38EEF9FEF72
:10557000EECF0F931F93CF93DF93EC0184EC8093D6
:10558000BC000E942E178C018091BC0087FF08C0D0
:105590008091BB0090E0DF91CF911F910F91089512
:1055A000CF3FDC0789F30E942E17801B910B8C17CD
:1055B0009D0750F38EEF9FEFEECF0F931F93CF9386
:1055C000DF93EC0184E88093BC000E942E178C01CD
:1055D0008091BC0087FF08C08091BB0090E0DF9104
:1055E000CF911F910F910895CF3FDC0789F30E945F
:1055F0002E17801B910B8C179D0750F38EEF9FEF9A
:10560000EECFCF92DF92EF92FF920F931F93CF9343
:10561000DF936B018A017901B9010E942E2AE6010C
:105620000C0D1D1DC017D10761F424E92093BC00A7
:10563000DF91CF911F910F91FF90EF90DF90CF906E
:10564000089597FDF2CFB70189910E948A2AEACF87
:10565000CF92DF92EF92FF920F931F93CF93DF933E
:10566000C62F6A017901B8010E942E2A97FD0CC04D
:10567000B8018C2F0E948A2AE601EC0CFD1CCE1585
:10568000DF0511F097FF0CC024E92093BC00DF91E7
:10569000CF911F910F91FF90EF90DF90CF900895E1
:1056A000B80189910E948A2AEACFCF92DF92EF92C5
:1056B000FF920F931F93CF93DF93F82EE62EEA010C
:1056C0006901B8010E942E2A97FD15C0B8018E2DE0
:1056D0000E948A2A97FD0FC0B8018F2D81600E9419
:1056E0002E2AF12CE12C21E0C21AD108EC14FD0481
:1056F00000F597FF11C024E92093BC001816190685
:1057000014F490E080E0DF91CF911F910F91FF9012
:10571000EF90DF90CF900895C8010E94B92A97FDBD
:1057200004C0FE01EE0DFF1D80832FEFE21AF20A86
:10573000DDCF97FDE0CFC8010E94DD2A97FDDBCFCA
:10574000CC0DDD1D8883D7CF84E98093BC000895FC
:10575000991B79E004C0991F961708F0961B881FC3
:105760007A95C9F780950895AA1BBB1B51E107C024
:10577000AA1FBB1FA617B70710F0A61BB70B881FE1
:10578000991F5A95A9F780959095BC01CD01089570
:1057900097FB072E16F4009407D077FD09D00E94DE
:1057A000B42B07FC05D03EF4909581959F4F08954A
:1057B000709561957F4F0895052E97FB1EF4009418
:1057C0000E94F32B57FD07D00E94012C07FC03D049
:1057D0004EF40C94F32B50954095309521953F4F06
:1057E0004F4F5F4F089590958095709561957F4FCD
:1057F0008F4F9F4F0895EE0FFF1F0590F491E02DFE
:105800000994A1E21A2EAA1BBB1BFD010DC0AA1F01
:10581000BB1FEE1FFF1FA217B307E407F50720F019
:10582000A21BB30BE40BF50B661F771F881F991F94
:105830001A9469F760957095809590959B01AC01DD
:10584000BD01CF0108952F923F924F925F926F92C8
:105850007F928F929F92AF92BF92CF92DF92EF9200
:10586000FF920F931F93CF93DF93CDB7DEB7CA1B81
:10587000DB0B0FB6F894DEBF0FBECDBF09942A88AC
:10588000398848885F846E847D848C849B84AA8454
:10589000B984C884DF80EE80FD800C811B81AA81E1
:1058A000B981CE0FD11D0FB6F894DEBF0FBECDBFAC
:1058B000ED010895FB01DC0102C005900D924150FD
:1058C0005040D8F70895FB01DC0104C08D91019090
:1058D000801921F441505040C8F7881B990B089556
:1058E000AEE0B0E0E6E7FCE20C94312C0D891E89B5
:1058F00086E08C831A8309838FEF9FE79E838D83D5
:10590000AE01475E5F4F6F89788DCE0101960E9490
:10591000932C2F813885020F131FF80110822E96C9
:10592000E4E00C944D2CABE0B0E0E9E9FCE20C942F
:10593000232C7C013B018A01FC01178216828381A2
:1059400081FFB9C19AE0292ECE0101965C01F701D1
:105950009381F30193FD859193FF81913F0188230A
:1059600009F446C1853239F493FD859193FF819105
:105970003F01853229F4B70190E00E94742EE7CFF1
:10598000912C412C512CFFE1F51538F08B3209F1A7
:1059900088F4803201F1833221F157FC3AC020EDC6
:1059A000280F2A3040F556FE1FC0929C200D11246E
:1059B000922E06C08D3291F0803379F7689450F8BA
:1059C000F30193FD859193FF81913F018111DBCF1D
:1059D00020C0689451F8689452F8F2CF689453F854
:1059E000EFCF689454F8ECCF429C200D1124422E46
:1059F000689455F8E5CF8E3229F456FCF9C06894C6
:105A000056F8DECF8C3619F4689457F8D9CF88361B
:105A1000B9F2982F9F7D95549330C0F08336A1F151
:105A20008337C1F1833509F05BC0F801C190D19093
:105A30008F01692D70E056FC02C06FEF7FEFC60149
:105A40000E945E2E4C01689457F80AC00C5F1F4FED
:105A50002FE3298388248394912C6501E89457F8D7
:105A600053FC04C04814190409F018F5342C8114AF
:105A7000910431F5332009F46ACFB70180E290E058
:105A80000E94742E3A94F6CFF801808189830E5FCC
:105A90001F4FE0CFF801C190D1908F01692D70E0C8
:105AA00056FC02C06FEF7FEFC6010E94692E4C01C9
:105AB000D5CFB70180E290E00E94742E4A94D2CFF5
:105AC000F60157FC859157FE81916F01B70190E077
:105AD0000E94742E31103A94F1E08F1A9108C7CFCA
:105AE000843619F0893609F074C0F80157FE6AC08F
:105AF00061917191819191918F01252D2F76D22EF7
:105B000097FF09C090958095709561957F4F8F4F55
:105B10009F4F6894D7F82AE030E0A5010E94A42E98
:105B2000C82ECA188C2C5D2CD6FE0CC0E89450F8F8
:105B3000C91440F4D4FE05C0D2FC03C0FD2DFE7E86
:105B40005F2E892C54FE8FC0FE01EC0DF11D80816B
:105B5000803309F081C0252D297E522E852D887035
:105B6000382E53FC8FC050FE89C09C2C841418F42E
:105B70004C0C942C981854FE8BC0B70180E390E035
:105B80000E94742E52FE09C088E790E051FE02C0C8
:105B900088E590E0B7010E94742EC91408F484C00F
:105BA000CA94D12C9FEFC91AD90ACA0CDB1CF60182
:105BB00082916F01B70190E00E94742EAC14BD0475
:105BC000B1F758CF61917191072E000C880B990B9A
:105BD00093CFD52CE894D4F82AE030E0853739F11A
:105BE000952D997FD92E8F3601F148F48835A9F08B
:105BF000F701868197812B96E2E10C943F2C803748
:105C000049F08837A9F7D4FE02C06894D2F820E1A1
:105C100030E00DC06894D4F8F6CF54FE03C0E92FED
:105C2000E660DE2E20E132E002C028E030E0F8013C
:105C3000D7FE0DC061917191819191918F01A50164
:105C40000E94A42EC82ECA18E894D7F86BCF619191
:105C5000719190E080E0F2CF52FC02C083947ECF3D
:105C6000839483947BCF852D867809F477CFF6CF04
:105C7000B70180E290E00E94742E83948414C0F3F4
:105C8000312C79CF342C3818841408F474CFF8CF21
:105C9000852D867809F481CF8BE251FE80E257FC96
:105CA0008DE2B70190E077CFB70180E390E00E94EA
:105CB000742E9A9472CF8FEF9FEF9DCFFC010590C9
:105CC000615070400110D8F7809590958E0F9F1FFE
:105CD0000895FC016150704001900110D8F7809543
:105CE00090958E0F9F1F08950F931F93CF93DF936F
:105CF000182F092FEB018B8181FD09C01FEF0FEFDA
:105D0000812F902FDF91CF911F910F91089582FFE6
:105D100014C02E813F818C819D81281739073CF466
:105D2000E881F981CF0101969983888310838E8160
:105D30009F8101969F838E83E3CFE885F985812F2C
:105D40000995892BA1F3DACFFA01AA27283051F15E
:105D5000203181F1E8946F936E7F6E5F7F4F8F4F9C
:105D60009F4FAF4FB1E03ED0B4E03CD0670F781FFB
:105D7000891F9A1FA11D680F791F8A1F911DA11DE0
:105D80006A0F711D811D911DA11D20D009F4689419
:105D90003F912AE0269F11243019305D3193DEF6C1
:105DA000CF010895462F4770405D4193B3E00FD077
:105DB000C9F7F6CF462F4F70405D4A3318F0495D62
:105DC00031FD4052419302D0A9F7EACFB4E0A69545
:105DD0009795879577956795BA95C9F70097610567
:105DE000710508959B01AC010A2E069457954795BD
:105DF00037952795BA95C9F7620F731F841F951FB2
:105E0000A01D0895F999FECF92BD81BDF89A9927FA
:105E100080B50895A8E1B0E042E050E00C94362F40
:105E2000262FF999FECF92BD81BDF89A019700B453
:105E3000021639F01FBA20BD0FB6F894FA9AF99AF3
:105E40000FBE08950396272F0E94112F0E94102F36
:105E5000252F0E94112F242F0C94112F0196272FEC
:105E60000E94112F0C94102FDC01CB01FC01F99939
:105E7000FECF06C0F2BDE1BDF89A319600B40D9296
:105E800041505040B8F708955058BB27AA270E94A8
:105E90005C2F0C9472310E94393138F00E944031ED
:105EA00020F039F49F3F19F426F40C940F310EF4CE
:105EB000E095E7FB0C940931E92F0E94973158F3E4
:105EC000BA17620773078407950720F079F4A6F5DF
:105ED0000C94B9310EF4E0950B2EBA2FA02D0B01C6
:105EE000B90190010C01CA01A0011124FF27591B1F
:105EF00099F0593F50F4503E68F11A16F040A22F25
:105F0000232F342F4427585FF3CF46953795279595
:105F1000A795F0405395C9F77EF41F16BA0B620B94
:105F2000730B840BBAF09150A1F0FF0FBB1F661FDB
:105F3000771F881FC2F70EC0BA0F621F731F841F1E
:105F400048F4879577956795B795F7959E3F08F044
:105F5000B0CF9395880F08F09927EE0F9795879506
:105F600008950E94393160F080E891E009F49EEFD5
:105F70000E94403128F040E851E071F45EEF0CC01F
:105F80000C940F310C94B931E92FE0780E949731CD
