:100000000C946D030C94B4030C94B4030C946B28FF
:100010000C94B4030C94B4030C94B4030C94B40384
:100020000C94B4030C94B4030C94E5220C94A12218
:100030000C94E0230C94B4030C94B4030C94B40318
:100040000C94B4030C94B4030C94B4030C94B40354
:100050000C94B4030C94BC230C94B4030C94B4031C
:100060000C94B4030C94B4030C94B4030C94B40334
:100070000C94B4030C94B4030C94B4030C94B40324
:100080000C94B4030C94B4030C94B4030C94B40314
:100090000C94B4030C94B4030C94B4030C94B40304
:1000A0000C94B4030C94B4030C94B403000000004B
:1000B0000000000000000000000000000000000040
:1000C0000000000000000000000000000000000030
:1000D0007E0F00D4FFFFFFC7000000780000000083
:1000E000000000002A2B2800000000000000000093
:1000F0000000000000000029000000002C1E342039
:10010000212224342627252E362D3738271E1F205E
:100110002122232425263333362E37381F040506A3
:100120000708090A0B0C0D0E0F10111213141516E7
:100130001718191A1B1C1D2F3130232D35040506E5
:100140000708090A0B0C0D0E0F10111213141516C7
:100150001718191A1B1C1D2F3130354C29001E0091
:100160001F002000210022002B0014001A000800AC
:1001700015001700350004001600070009000A00EA
:10018000E1001D001B00060019000500A800025335
:10019000E200E300E0002C43CB5CCA5CC45CC75CBB
:1001A000C65CC35C4C00130012000C0018001C005D
:1001B000340033000F000E000D000B00E500380086
:1001C0003700360010001100295D6500E600286246
:1001D0002A440000290035001E001F0020002100D5
:1001E00000002B0014001A00080015000000000099
:1001F00004001600070009000000E1001D001B00BC
:1002000006001900010000000000000000002C00A2
:100210002D00270026002500240023004C00130099
:1002200012000C0018001C00340033000F000E00F8
:100230000D000B00010038003700360010001100DF
:1002400001000100010001000100000000000000A9
:10025000000000000000000000000000000000009E
:10026000000000000000000000000000000000008E
:10027000000000000000000000000000010001007C
:10028000010001000100010000000000000000006A
:1002900000000000000000002600250024000000EF
:1002A00000000000230022002100000000000000E8
:1002B00020001F001E0000000100010027000100B7
:1002C0000100000001003A003B003C003D003E0000
:1002D000000000000000000000000000010000001D
:1002E000000000000000000001002E002D002E0282
:1002F0002F02300201000100010001000100010095
:10030000440043004200410040003F00450000001F
:1003100000000000000000003102000000000000AA
:1003200000000000010031000000000030002F003C
:1003300001000100010001000100010000000000B7
:1003400000000000C35CCA5C000000000000000068
:1003500000000000000000000000390053004700CA
:10036000010000000000000000000000010001008A
:100370000100010001000100000030002F0000001A
:1003800000000153010000004D0052004A004B00E4
:10039000000000004F00510050004E00010000001E
:1003A0004F0900005009000000000000010001009A
:1003B0000100010068747470733A2F2F73746172B6
:1003C000742E6475636B6475636B676F2E636F6DFA
:1003D0000A00514D4B20697320617765736F6D651D
:1003E0002E0000047F3F1F643214643214783C1ED8
:1003F0001E140A05000101010101010101010202AF
:1004000002020202020202030303030303030304C2
:10041000040404040404050505050506060606068D
:10042000070707070708080808090909090A0A0A47
:100430000B0B0B0C0C0C0D0D0D0E0E0E0F0F0F10E9
:100440001011111112121313141415151616171773
:10045000181819191A1A1B1B1C1D1D1E1E1F2020DF
:10046000212222232424252626272829292A2B2C29
:100470002D2D2E2F30313232333435363738393A4C
:100480003B3C3D3E3F404142434445464748494A44
:100490004C4D4E4F50515354555658595A5B5D5E12
:1004A0005F616264656668696B6C6D6F70727375AD
:1004B00077787A7B7D7E8082838587888A8C8E8F11
:1004C00091939596989A9C9EA0A2A3A5A7A9ABAD3F
:1004D000AFB1B3B5B7BABCBEC0C2C4C6C9CBCDCF2D
:1004E000D1D4D6D8DBDDDFE2E4E7E9EBEEF0F3F5DB
:1004F000F8FAFDFFFFAA7F55402223252628292A46
:100500002C2D2F3032333536383A3B3D3E40424376
:100510004547494A4C4E5051535557595A5C5E60B5
:1005200062646668696B6D6F71737577797B7D7FC7
:1005300081838587898A8C8E90929496989A9C9EC6
:100540009FA1A3A5A7A8AAACAEAFB1B3B4B6B8B9E2
:10055000BBBCBEBFC1C2C3C5C6C7C9CACBCCCDCE4A
:10056000D0D1D2D2D3D4D5D6D7D7D8D9D9DADADB2D
:10057000DBDBDCDCDCDCDCDDDDDDDDDCDCDCDCDCB9
:10058000DBDBDBDADAD9D9D8D7D7D6D5D4D3D2D2F8
:10059000D1D0CECDCCCBCAC9C7C6C5C3C2C1BFBEE0
:1005A000BCBBB9B8B6B4B3B1AFAEACAAA8A7A5A34B
:1005B000A19F9E9C9A98969492908E8C8A8987850A
:1005C00083817F7D7B79777573716F6D6B696866E9
:1005D0006462605E5C5A5957555351504E4C4A49BB
:1005E00047454342403E3D3B3A3836353332302F63
:1005F0002D2C2A29282625232205010980A10185E1
:100600000319012AB700150126B70095017510815D
:1006100000C0050C0901A101850419012AA00215D9
:100620000126A002950175108100C005010906A1EF
:1006300001050719E029E7150025019508750181D5
:10064000029501750881010507190029FF1500268B
:10065000FF00950675088100050819012905950513
:1006600075019102950175039101C009023B0002D9
:100670000100A0FA09040000010301010009211191
:100680000100012240000705810308000A09040156
:1006900000010300000009211101000122320007BE
:1006A00005820320000A120100020000000832FC4B
:1006B00087020100010200010A0352006F0073006B
:1006C0006500000010034B006500790068006900B8
:1006D0007600650000000403090411241FBECFEF5B
:1006E000DAE0DEBFCDBF04B603FE27C08091E90388
:1006F0009091EA03A091EB03B091EC038730904B0B
:10070000A740B04BD1F41092E9031092EA03109283
:10071000EB031092EC0314BE84B7877F84BF0FB63F
:10072000F894A89580916000886180936000109291
:1007300060000FBEE0E0F8E3099511E0A0E0B1E051
:10074000E2E2F6E502C005900D92AC3DB107D9F7A3
:1007500023E0ACEDB1E001C01D92A93EB207E1F784
:100760000E9407240C94EB2A0C940000E8EDF0E0C2
:1007700080818E7F80831092E2001092DA001092C6
:10078000E100A0EEB0E08C9181608C9380818F7746
:10079000808319BCA7EDB0E08C918E7F8C93808113
:1007A0008F7E80831092CF0308952091E4003091D2
:1007B000E50095E6A9012091EC00822F817020FFD1
:1007C00006C08091E80080FF06C080E00895209177
:1007D000E80022FD1AC08091DC03882389F085306F
:1007E00089F08091EB0085FD0FC02091E4003091ED
:1007F000E50042175307F9F29150E1F684E00895BD
:1008000082E0089583E0089581E00895EF92FF92D9
:100810000F931F93CF937C018B010E94D503C82FA8
:10082000811117C08091E80085FD0BC08091E80020
:100830008E778093E8000E94D503882399F3C82F10
:1008400008C0F70181917F018093F10001501109E7
:1008500049F78C2FCF911F910F91FF90EF90089542
:100860008091DE0387FF13C08091E80082FF06C0FD
:100870008091E8008B778093E80004C08091DC03CE
:100880008111F2CF08958091DC038823D9F3809100
:10089000E80080FFF8CF8091E8008E77ECCF982FAA
:1008A0009093E900242F762F50E0891731F0709152
:1008B000EC002091ED005091F00021FD07C09F5FFA
:1008C000973071F78093E90081E008953091EB0053
:1008D0003E7F3093EB003091ED003D7F3093ED0093
:1008E0003091EB0031603093EB007093EC0020937B
:1008F000ED005093F0002091EE0027FDE0CF80E066
:100900000895CF92DF92EF92FF920F931F93CF93B0
:10091000DF93C8EDD0E088818F7E8883E7EDF0E03B
:1009200080818160808384E082BF81E08093CF03F7
:1009300088818E7F888302EE10E0F8011082109289
:10094000DA0081EEC82ED12CF601108288818F77D3
:10095000888388818068888388818F7D888319BC9B
:100960001092DC031092DD031092DB031092DA0385
:1009700090EEE92EF12CF70180818B7F80838881B6
:100980008160888342E060E080E00E944F04F601CD
:1009900080818E7F8083F801808181608083808167
:1009A00088608083F70180818E7F80838881806169
:1009B0008883DF91CF911F910F91FF90EF90DF908F
:1009C000CF900895FC018091E4039091E503861790
:1009D0009707A0F06115710529F49091E8009E77C2
:1009E0009093E80090E06115710551F4911108C0F1
:1009F0008091E80082FF34C080E00895BC01F2CF0E
:100A00008091DC038823C1F18530C1F18091E80039
:100A100083FD30C08091E80082FDEACF8091E8003C
:100A200080FFE1CF8091F3002091F200382F611513
:100A3000710519F02830310558F091E02830310562
:100A400009F090E02091E8002E772093E800CBCFCA
:100A500081918093F100615071092F5F3F4FE7CF83
:100A60008091DC03882341F0853041F08091E800DB
:100A700083FFBECF81E0089582E0089583E008956A
:100A8000089508958091D10308959C014FB7F8947B
:100A90008091C8039091C903A091CA03B091CB0380
:100AA0004FBF821B930B08952FB7F8946091C80332
:100AB0007091C9038091CA039091CB032FBF089511
:100AC0002FB7F8948091C8039091C903A091CA03ED
:100AD000B091CB032FBF08959C01FC0132969FEF8C
:100AE00080E04191461751F09F3F19F4411101C038
:100AF000982F8F5F8630A9F79F3F09F40895290F3B
:100B0000311D97FD3A95F901628308952091C10343
:100B10003091C2032817390771F09093C203809374
:100B2000C103E091BF03F091C003309721F000842E
:100B3000F185E02D099408952091BD033091BE0305
:100B40002817390771F09093BE038093BD03E0919D
:100B5000BF03F091C003309721F00680F781E02DAC
:100B600009940895FC01680F791F8FEF91E321919B
:100B7000822728E030E087FF09C0880F89272150AD
:100B80003109C9F7E617F70791F70895880FF7CFEE
:100B9000FA01811101C0FB010994E4EDF2E0118238
:100BA00082818460828308958091B803982F9E7F0C
:100BB00061F4817082608093B8038091BB038D33B0
:100BC00018F08CE38093BB0308958A34B0F38170EE
:100BD0008864F1CFAF92BF92DF92EF92FF920F93B2
:100BE0001F93CF93DF93082F162FE901E42FF0E036
:100BF000EC50FC4F611110C0E4915E2F4E2F4983E1
:100C0000E8835A83DF91CF911F910F91FF90EF906E
:100C1000DF90BF90AF900895E62EF12C4491D42E32
:100C2000E42FF0E026E0829FC00111242FEF30E096
:100C3000B9010E94F329802F90E0880F991F55E594
:100C4000569FD001579FB00D11248A1B9B0B982FE4
:100C5000990F890F5901AE18BF08AE9ED001AF9E03
:100C6000B00DBE9EB00D11245B2F189F8001112482
:100C7000012F11275901A01AB10AAE9E8001AF9E23
:100C8000100DBE9E100D11245901A81AB108AE9C7A
:100C9000C001AF9C900DBE9C900D1124892F992707
:100CA000281B390B2E9FC0012F9F900D3E9F900D4A
:100CB0001124E92F62307105A1F050F4611571051E
:100CC00009F49DCF6130710581F0EB2F512F97CF43
:100CD0006430710569F080F06630710509F48FCFDA
:100CE000F4CFE42F4B2F592F8ACFE42F412F87CFFA
:100CF000EB2F542F492F83CF4B2F5D2DE12F7FCF2B
:100D000080E0089578940895F894E82FE295EF70C4
:100D1000F0E031A1282F2F7081E090E001C0880F12
:100D20002A95EAF7982F9095932391A392A1892B66
:100D300082A30C94820690919E0292FF06C0282FF7
:100D400028712830F9F4877F846093FF06C0282F2C
:100D500028712831F1F4877E846120919F0220FF61
:100D600006C0382F38713830D9F4877F816021FF71
:100D700006C0282F28712831D1F4877E816194FD27
:100D8000877E0895282F24712430F9F68B7F8860A0
:100D9000DCCF282F2471243101F78B7E8861DDCFD1
:100DA000382F3171313019F78E7F8860E0CF282FCE
:100DB0002171213121F78E7E8861E1CFCF93DF93BE
:100DC000EC0182389105A9F1D8F58133910509F438
:100DD00096C048F58932910509F48AC08A9709F4CA
:100DE00095C0C11522E5D20708F0B6C0C11531E59E
:100DF000D30708F026C1C83ED10508F09CC0C03E0C
:100E0000D10560F5C83AD10508F087C0C53AD105CB
:100E100008F0EFC0C130D10509F12097F9F0C430D6
:100E2000D105E0F440C08533910509F45AC0C99753
:100E3000C1F680919E02837089F0C0EED0E00EC0B2
:100E4000833E910599F170F4803E910501F1823E57
:100E5000910539F680919E0282FD21C0CE01DF917D
:100E6000CF910895863E910561F1873E910571F11C
:100E7000843E910509F0B5CF80919F0281FFEECFAE
:100E800080919E02C7EED0E084FD0DC0E7CF809137
:100E90009E0280FD07C190919F0290FFDFCFC3EEBD
:100EA000D0E084FFDBCFD0E0C0E0D8CF80919E02BD
:100EB00082FDFBC090919F0290FDBFCF84FFCECFFB
:100EC000F2CF80919E0283FDDDCFC8CF80919E023C
:100ED00083FDEEC090919F0291FFF0CFC4EED0E071
:100EE000BDCF80919E0285FFB9CFC9E2D0E0B6CFD9
:100EF00080919E0285FFB2CFC5E3D0E0AFCF809155
:100F00009E0286FFABCFCAE2D0E0A8CF80919E02BE
:100F100086FFA4CFC1E3D0E0A1CFCF3BD10518F627
:100F2000C85AD0E0CC0FDD1FCA58DE4F0990D881D7
:100F3000C02DD46493CFC11540E5D40708F064C038
:100F4000C11580E4D80708F05CC0CE019A958115E0
:100F50009F4108F483CFA7CFC11536E5D30718F515
:100F6000C11545E5D40708F084C0C11584E5D8074C
:100F700008F07AC09C2F969596959E012370332792
:100F8000C115D34508F462C0C1E0D0E002C0CC0F67
:100F9000DD1F2A95E2F730E2939FC0011124C82B90
:100FA000D92BDA685BCFC1158AE5D80778F4C1156B
:100FB00099E5D90708F068C0C11528E5D20708F4FB
:100FC00072CFDC2FCC27C06FD06A48CFCE019056AD
:100FD0008115904208F067CF8D2F8F710E949B067C
:100FE00090E0982F882788279F719C012C2BE9017E
:100FF00049C0C55AD0E0CD58DE4FC881D0E0D0649A
:101000002DCFDF70D06A2ACFCE01E4E09695879588
:10101000EA95E1F783702C2F26952695237040E200
:10102000249F90011124382B8C2F8370C1E0D0E0D5
:1010300002C0CC0FDD1F8A95E2F7C22BD32BDC68F0
:101040000DCFDC2FCC27C16FD06A08CFC1E0D0E034
:1010500002C0CC0FDD1F2A95E2F720E2929FC0016B
:101060001124C82BD92BEBCFDC2FCC27C46FD06A2F
:10107000F5CE8C2F0E949B06C82FD0E0DC2FCC270A
:10108000CC27DF71D062EACE8C2F8F700E949B0636
:1010900034E0D695C7953A95E1F7CF709C2FEC01D7
:1010A000D069DCCEC9E3D0E0D9CEC2EED0E0D6CE56
:1010B000C6EED0E0D3CE0C94540580914E0281113F
:1010C00010924E02089580914D0290914C02892B0E
:1010D00090914B02892B8093DE0190914E029923CF
:1010E00091F0892B8093DE0120E080EE91E0FC01FD
:1010F0003191CF0131112F5FF1E0863E9F07B9F7A3
:1011000021110E945D08E091BF03F091C003309768
:1011100031F00280F381E02D8EED91E00994089585
:101120008091490290911802981301C008958F5F31
:101130008770FACFAF92BF92CF92DF92EF92FF9279
:101140000F931F93CF93DF93C0909A02D0909B028E
:10115000E0909C02F0909D0240914F02509150020D
:101160006091510270915202C42AD52AE62AF72AC8
:10117000CFE1D0E0082F10E026E0929F000D111D76
:1011800011249CE3A92EBC2ED701C6010C2E04C04D
:10119000B695A795979587950A94D2F780FD0FC0CD
:1011A000219788F7B12C8B2DDF91CF911F910F9153
:1011B000FF90EF90DF90CF90BF90AF900895AC9EDE
:1011C000F001AD9EF00D1124E00FF11FEE0FFF1F97
:1011D000E45AFE4F859194910E94DE06019701F337
:1011E000E2CFCF93DF93EC010E949A08EC2FF0E05E
:1011F00096E0D99FE00DF11D11249CE3899FE00D3D
:10120000F11D1124EE0FFF1FE45AFE4F85919491BA
:10121000DF91CF910C94DE06E92FEE0FE90FEE0F70
:101220008E0F982F977086958695869525E0829FDC
:10123000F0011124E651FE4F50E040E080E02191A2
:1012400030E0092E02C0369527950A94E2F7217006
:101250003327042E01C0220F0A94EAF7822B4F5F36
:101260005F4F4530510559F70895E92FEE0FE90F0B
:10127000EE0F8E0F982F977041E001C0440F9A95A2
:10128000EAF786958695869595E0899FF001112469
:10129000E651FE4F30E020E070E05191DF01119700
:1012A000CB01022E02C0969587950A94E2F78170D1
:1012B00081958527842385278C932F5F3F4F253089
:1012C000310559F70895E92FE295EF70E250EE30BD
:1012D00070F4F0E0E351F54D0C943D2A803F19F095
:1012E00020F4883E20F481E00895843FE1F380E01B
:1012F0000895883EC0F3813FD1F7F5CF93FB88274F
:1013000080F90895FC01808191810E94F1080C947C
:10131000630990E080E00E949C0590E080E00E94DC
:10132000860510924C0210924B020C946308609355
:101330009A0270939B0280939C0290939D020C945E
:1013400089090F931F9341E050E060E070E004C012
:10135000440F551F661F771F8A95D2F7CB01BA013C
:10136000609570958095909500919A0210919B02DE
:1013700020919C0230919D0260237123822393234C
:101380001F910F910C94970990914A02809589239F
:1013900080934A02282F277039F4282F082E000C3A
:1013A000330B9217130621F490919F0292FF07C00E
:1013B0008595859585950E94A10910924A02089508
:1013C0000F931F9341E050E060E070E004C0440FD1
:1013D000551F661F771F8A95D2F780919A029091C8
:1013E0009B02A0919C02B0919D028A019B01082B57
:1013F000192B2A2B3B2BC901B8011F910F910C947B
:10140000970960934F02709350028093510290931A
:1014100052020C948909882341F0809590914D02E5
:10142000892380934D020C9463080895882339F032
:1014300090914D02982B90934D020C94630808955F
:101440008823B1F19CEF980F913A70F4E0EEF1E04F
:101450009191891303C0DF0111971C9241E0E63E90
:10146000F407B1F70C94630890E2980F983088F471
:10147000877021E030E0A90102C0440F551F8A9512
:10148000E2F7CA01809590914D02892380934D0225
:10149000E9CF9BE5980F933020F490E080E00C9426
:1014A0009C05885A873120F490E080E00C948605F2
:1014B0000895CF93C82F882309F44EC08CEF8C0F6A
:1014C000813AF8F4E0EEF1E086EE91E0DF012D9153
:1014D000C21759F08A179B07D1F76C2F8EED91E058
:1014E0000E946C05CF910C9463082191C21303C034
:1014F000DF0111971C928E179F07B9F70E946308AE
:10150000ECCF80E28C0F883068F4C77021E030E0C7
:1015100001C0220FCA95EAF780914D02822B809379
:101520004D02E0CFEBE5EC0FE33040F4F0E0ED5896
:10153000FE4F808190E0CF910C949C05C85AC73132
:1015400058F4EC2FF0E0EE0FFF1FEA58FE4F8081B9
:101550009181CF910C948605CF9108958091660278
:10156000882369F082E090E090935B0280935A02B6
:101570000E9460059093590280935802089583E079
:1015800090E0F2CF9091DC03943031F58093CC035E
:101590007093CE036093CD0382E08093E9008FEFD8
:1015A0009091E800815095FD06C095ED9A95F1F770
:1015B00000008111F5CF8091E80085FF0DC050E05B
:1015C00040E063E070E08CEC93E00E9406048091C0
:1015D000E8008E778093E8000895BC0184E00C94C5
:1015E000C20ABC0183E00C94C20ACF93DF93EC01E2
:1015F00081E08093E9008FEF9091E800815095FDA4
:1016000006C095ED9A95F1F700008111F5CF809114
:10161000E80085FF14C050E040E068E070E0CE01D3
:101620000E9406048091E8008E778093E80088E0AD
:10163000FE01A2EDB3E001900D928A95E1F7DF91F2
:10164000CF910895609168018091B80380FF20C018
:101650008091670143E0849FC001112486529D4F11
:10166000539A2BB1277F3BB138605FB7F894FC01E8
:10167000649FE00DF11D1124BF0168177907D1F4B3
:101680005FBF8FE594E00197F1F700C00000089577
:101690008091690190916A0123E0829FF0011124F9
:1016A000E652FD4F8917A0F61182108212828F5FD9
:1016B0003396F8CFFC014191CF01E8E03BB900003F
:1016C00000C047FF2BB9440F000000C000C000C09D
:1016D0002BB900C0EA9591F7D0CF0F931F93CF930A
:1016E000DF93EC0110E000E090916B019017110680
:1016F00009F06CF40E94220B8C8190E001968170BD
:1017000099278C83DF91CF911F910F91089520919C
:101710006901A801420F511D9A01220F331F240FA6
:10172000351F26523D4F4C816091BA038091B90319
:1017300096959017110669F064F0442361F040918A
:10174000BB034D3308F04CE30E94EA050F5F1F4FC7
:10175000CBCF4423A1F340E0F7CF8F929F92AF927B
:10176000BF92CF92DF92EF92FF920F931F93CF938E
:10177000DF93EC014C81042F10E09801D8010E9406
:101780004B2A9B01AC010E94612A4B015C01E0E203
:10179000F0E0E01BF10BA5E5B0E0AC019B010E947D
:1017A000612A6B017C019F01DF010E94432A9B019A
:1017B000AC010E946C2A9B01AC01280D391D4A1D09
:1017C0005B1DC701B6010E941B2AF22E822F90E0FA
:1017D00039E23F1560F143E0249F900111243595D3
:1017E0002795122F109500E085E5E82EEF188091DF
:1017F0006B01081758F10E94220B9C8181E099230C
:1018000019F0903219F48FEF809366018091660190
:10181000890F8C83DF91CF911F910F91FF90EF90F3
:10182000DF90CF90BF90AF909F908F90089525E567
:1018300030E0B901681B790B9B01220F331F260F83
:10184000371F37FFCCCF2F5F3F4FC9CF8E2D01FD04
:101850008F2D20916901622F600F7727771F9B01E1
:10186000220F331F260F371F26523D4F412F1D33A6
:1018700008F04CE36091BA030E94EA050F5FB7CF0E
:10188000EF92FF920F931F93CF93DF93EC018C8124
:10189000811109C081E08C831092D80292E090936C
:1018A0006501809364018091690190916A0123E050
:1018B000829FF0011124E652FD4F891768F110E074
:1018C00003E060916B01161768F10E94220B809172
:1018D00064012091D802280F2093D80290916501CD
:1018E000980F90936501191654F4022E000C330BD7
:1018F00040916B014150550B2417350734F0819509
:1019000080936401813009F41C82DF91CF911F9193
:101910000F91FF90EF9008951182108212828F5FD5
:101920003396CBCFE12EF12C70E0C7010E94072A3D
:1019300020916901820F482F50E02091D802022E99
:10194000000C330BE216F306D4F020916501022E51
:10195000000C330B2E153F0594F0809F900111244D
:1019600026523D4F4091BB034D3308F04CE360914C
:10197000BA038091B9030E94EA051F5FA2CFFA0162
:10198000EE0FFF1FE40FF51FE652FD4F118210828C
:101990001282F3CF8F929F92AF92BF92CF92DF923B
:1019A000EF92FF920F931F93CF93DF93EC018A8105
:1019B000BB24BA9480FD02C0BB24B394A0906B01F9
:1019C0008C81811109C081E0B81228C08FEF8A0D87
:1019D0008093D70281E08C83F12CE12C4AE4842EA1
:1019E000EA14F8F00E94220B8091D70291E0B9121C
:1019F00062C081115BC080916B0181508093D702DE
:101A00001C82DF91CF911F910F91FF90EF90DF909B
:101A1000CF90BF90AF909F908F9008951092D70273
:101A2000D9CF009169010E0D1F2D111DC801880F1E
:101A3000991F080F191F06521D4FF80111821082BD
:101A4000128234E0C32ED12C912C8091D702890DC3
:101A50008B3444F1682D0E94E529892F082E000C53
:101A6000990B8E159F05A9F48091BB038C9DA00155
:101A70008D9D500D112455954795559547954D339E
:101A800008F04CE398016091BA038091B9030E9479
:101A9000EA059B0CF1E0CF1AD108B9F68FEFE81AEE
:101AA000F80A9ECF87FFDACF8A0DD8CF8150809376
:101AB000D702BC82A6CF90E0019660916B0170E0E6
:101AC0000E94072A8093D7028C839BCFEF92FF92CC
:101AD0001F93CF93DF93EC0110E0EE24EA94F12CF6
:101AE00060916B01161770F00E94220B9A818C8115
:101AF00090FF2AC08F5F8C83DF91CF911F91FF9061
:101B0000EF90089520916901422F410F5527551FED
:101B1000CA019A01220F331F280F391F26523D4F49
:101B20004091BB034D3308F04CE370E0C7010E94C5
:101B3000072A962F8C816091BA03199F800D11247A
:101B40000E94EA051F5FCCCF8150D5CF9091B8039A
:101B500090FF14C09091690120916A0133E0939F36
:101B6000F0011124E652FD4F921710F00C94220B55
:101B70008183608342839F5F3396F6CF08950F93EE
:101B80001F93CF93DF9300D00F92CDB7DEB78C01B8
:101B90008091D90281110AC09E012F5F3F4F4CE313
:101BA0006FEF0E94EA058A818093D902F80164816F
:101BB000613069F08091D90240E0662361F040E035
:101BC000623011F44091D90280E060E004C060917D
:101BD000D90240E080E00E94A60DF801848190E0E7
:101BE000019663E070E00E94072A84830F900F90B3
:101BF0000F90DF91CF911F910F910895CF93DF93B5
:101C000000D00F92CDB7DEB79091B80390FF0DC012
:101C10004D3308F04CE39E012F5F3F4F0E94EA05D1
:101C20004B8169818A810E94A60D0F900F900F90C1
:101C3000DF91CF910895CF93DF93EC01E8EBF3E0D0
:101C4000438162818C810E94FE0D8C818F5F8C8329
:101C5000DF91CF910895CF93DF93EC01EC81F0E019
:101C6000E750FB4F4491E8EBF3E0628181810E94F1
:101C7000FE0D8C818F5F8C83DF91CF910895E8EB0F
:101C8000F3E080818E7F80830E94CD05E4EDF2E059
:101C90008281816082832FEF80E792E02150804033
:101CA0009040E1F700C000000C94220B9F92AF928D
:101CB000BF92CF92DF92EF92FF920F931F93CF9339
:101CC000DF937C015B016A018091990201E010E0E1
:101CD0008A3010F40AE010E0C1E0D0E0F894B501D9
:101CE000C701F6010995982E0E948206911004C042
:101CF00021960C171D076CF4892DDF91CF911F9150
:101D00000F91FF90EF90DF90CF90BF90AF909F909A
:101D10000895CC9F9001CD9F300D300D112490E09F
:101D200080E045E34A95F1F700000196821793079A
:101D3000C1F7D4CF80916F02811110C08091D8007B
:101D400080618093D8008AE18A95F1F700C0809184
:101D5000D90080FF0AC081E080936F0281E09091FA
:101D60006F02913009F080E0089582E080936F0265
:101D70000E94B6031092DC03F1CF0F931F930E94D1
:101D80009A0E882321F01F910F910C9454050E9404
:101D900054050091C3031091C4032091C5033091F1
:101DA000C603600F711F821F931F1F910F9108952B
:101DB0000E949A0E81110C9460050E94BD0ECB0109
:101DC00008950E949A0E882351F0E091BF03F0918C
:101DD000C003309721F00190F081E02D099480E05C
:101DE00008951F93CF93DF93182FCAE0D0E0893373
:101DF00011F4C0E5D0E0812F0E94590A8FE99FE0DD
:101E00000197F1F700C000002197C1F7812FDF9102
:101E1000CF911F910C94200A0F931F93CF93DF93C0
:101E2000C62FD42F022FFC0182818823A1F060935A
:101E3000E8030E9460059093E7038093E603C77070
:101E400081E001C0880FCA95EAF7DF91CF911F9119
:101E50000F910C94160A8091E803681335C08091A5
:101E6000E6039091E7030E944505883C910560F5E3
:101E700010E21D0FCD17B9F080E28C0F883040F4CE
:101E8000C77081E001C0880FCA95EAF70E940B0A6B
:101E9000183048F481E09D2F977001C0880F9A9503
:101EA000EAF70E94160A802F0E94F10E183098F46B
:101EB000D77081E001C0880FDA95EAF7DF91CF9102
:101EC0001F910F910C940B0AC77081E001C0880F1D
:101ED000CA95EAF7F3CFDF91CF911F910F91089543
:101EE000AF92BF92CF92DF92EF92FF920F931F9328
:101EF000CF93DF93EC018AE0A82EFE0124912223E8
:101F000009F494C0213009F03EC0319684918130AB
:101F100031F42296FE0184910E94F10E07C08230B6
:101F200039F42296FE0184910E94590A2196E5CF48
:101F3000833031F42296FE0184910E94200AF6CF6C
:101F4000843009F071C02296FE01249190E080E077
:101F5000FE0131962053330B2A30310548F00197AA
:101F600028F3EFE9FFE03197F1F700C00000F7CF69
:101F7000A89EA001A99E500D1124C901840F951F90
:101F80002491EF01E5CFE22FF0E0E452FF4FB4904F
:101F9000822F86958695869590E0FC01E453FF4F4D
:101FA000E4902770F12C022E02C0F594E7940A9475
:101FB000E2F731E0E322FF24FC01E454FF4FC49038
:101FC000D12C022E02C0D594C7940A94E2F7E1E026
:101FD000CE22DD24FC01E455FF4F049110E002C045
:101FE000159507952A95E2F701701127E114F10480
:101FF00019F081EE0E94590AC114D10419F086EE3D
:102000000E94590A8B2D0E94F10ECD2819F086EE00
:102010000E94200AEF2819F081EE0E94200A012B6D
:1020200009F484CF8CE278CFEF0180CFDF91CF919C
:102030001F910F91FF90EF90DF90CF90BF90AF90E6
:1020400008956091B803669570E04BE050E089E533
:1020500091E00E94C82A892B19F481E08093D5026F
:102060000E94D80E9093CF028093CE028091D60228
:1020700084608093D6020895CF92DF92EF92FF9210
:102080006B017C010E94D405B701A60188E090E0B5
:10209000FF90EF90DF90CF900C94A62AAF92BF9262
:1020A000CF92DF92EF92FF920F931F93CF93DF9324
:1020B00000D00F92CDB7DEB7082FF62E142FE22EE8
:1020C0009091B80390FF3FC0E92FE695AE2FB0E0A6
:1020D000AA54BE4F8C918093D4029E7F923009F017
:1020E00040C04D3308F04CE39E012F5F3F4F6F2DF2
:1020F000802F0E94EA054B8169818A810E94A60D8A
:102100008091B903801308C08091BA038F1104C075
:102110008091BB03811729F08091D6028260809361
:10212000D6020093B903F092BA031093BB03EE20DA
:1021300051F06091B8037091B9038091BA03909106
:10214000BB030E943C100F900F900F90DF91CF9136
:102150001F910F91FF90EF90DF90CF90BF90AF90C5
:102160000895823019F41091BB03CACF863019F458
:102170000091B903C5CF8930D9F3893109F6E95106
:102180008E2F8170D82EE695F0E0EC50FB4FA59095
:10219000B490C12CBB2460916B01C61618F00E944C
:1021A000220BAECF2C2D30E0A29EC001A39E900D3D
:1021B000B29E900D112470E00E94F329802FD1105F
:1021C00016C0860F40916901420F532F511D9A018D
:1021D000220F331F240F351F26523D4F412F1D3331
:1021E00008F04CE36F2D0E94EA05C394D4CF861B00
:1021F000E9CFE8EBF3E0438121E1421B08F440E042
:1022000021E0628181810C944E10E8EBF3E0438180
:1022100021E1420F08F44FEF21E0628181810C94AB
:102220004E10E8EBF3E0628121E1621B08F460E00C
:1022300021E0438181810C944E10E8EBF3E0628150
:1022400021E1620F08F46FEF21E0438181810C945A
:102250004E10E8EBF3E0818121E0438162818850F8
:102260000C944E10E8EBF3E0818121E04381628120
:10227000885F0C944E108091BC03882319F0815024
:102280008093BC036091B8037091B9038091BA0345
:102290009091BB030C943C108091BC03833018F4E4
:1022A0008F5F8093BC036091B8037091B9038091F4
:1022B000BA039091BB030C943C109091B80390FF2B
:1022C0003BC0917081112EC092609093B8038091B1
:1022D000D60281608093D602662351F06091B803E4
:1022E0007091B9038091BA039091BB030E943C1096
:1022F0006091B803669570E04BE050E089E591E0AD
:102300000E94C82A892BA9F00E94CD0581E0809304
:10231000D10220E04091BB036091BA038091B903E0
:102320000C944E10853210F09864CFCF880F982B04
:10233000CCCF0E942110EACF08958091B8038695F2
:10234000815009F484E261E00C945D118091B8033E
:1023500086958F5F853208F081E061E00C945D1115
:102360009091B80390FF07C09695981720F09617A4
:1023700010F40C94A61161E00C945D11E8EBF3E00D
:1023800083E080838FE781838FEF82838CE3838375
:102390001482A4EDB2E012968C911297836012968B
:1023A0008C9360817181828193810C943C10CF93D6
:1023B00084E090E00E94802AC82F82E290E00E9490
:1023C000802A982F8C2FCF910895CF93DF93CDB78C
:1023D000DEB728970FB6F894DEBF0FBECDBF85E0FD
:1023E000E8EBF3E0DE01119601900D928A95E1F79A
:1023F0008091D4029091D502A091D6028E839F83C2
:10240000A887288540919502509196026091970285
:10241000709198023FB7F8948091C8039091C903D6
:10242000A091CA03B091CB033FBF841B950BA60BB1
:10243000B70B84369105A105B10510F4222319F1DB
:1024400080913501909136018F579D4F4091340115
:1024500050E04930510510F048E050E0BE016F5F98
:102460007F4F0E94E22A85E090E00E943129892B6B
:10247000B1F40E9454056093950270939602809384
:102480009702909398021092D60281E028960FB698
:10249000F894DEBF0FBECDBFDF91CF91089580E0ED
:1024A000F5CFCF93DF9300D000D0CDB7DEB740910A
:1024B0007D0250917E0260917F02709180022FB761
:1024C000F8948091C8039091C903A091CA03B09178
:1024D000CB032FBF841B950BA60BB70B843691053E
:1024E000A105B10568F10E94BD0E6E5F7F4F8F4F51
:1024F0009F4F69837A838B839C8380912B0190917A
:102500002C018F579D4F40912A0150E045305105D5
:1025100010F044E050E0BE016F5F7F4F0E94E22A5E
:1025200084E090E00E943129892B61F40E945405D7
:1025300060937D0270937E0280937F02909380026D
:1025400081E001C080E00F900F900F900F90DF911D
:10255000CF9108956F927F928F929F92AF92BF9288
:10256000CF92DF92EF92FF920F931F93CF93DF935F
:102570000F92CDB7DEB7862E5A016901682E880FFB
:102580007708C3010E943129892B09F088C08AE0AD
:10259000869DF001879DF00D1124E050FF4F45818D
:1025A00050E04115510511F041E050E08AE0869D70
:1025B000F001879DF00D1124E050FF4F6681778177
:1025C0006F577D4FCE0101960E94E22AF5014081AE
:1025D0005181628173812FB7F8948091C8039091E3
:1025E000C903A091CA03B091CB032FBF841B950BE5
:1025F000A60BB70B84369105A105B10540F4B701D0
:10260000C8010E94B2059981891709F44FC0082CAE
:10261000000C9908C4010E943129892B91F0B12C3A
:102620008B2D0F90DF91CF911F910F91FF90EF9025
:10263000DF90CF90BF90AF909F908F907F906F90E2
:1026400008958AE0889DF001899DF00D1124E050E5
:10265000FF4F458150E0E416F50608F4A7018AE033
:10266000889DF001899DF00D1124E050FF4F668197
:1026700077816F577D4FC6010E94E22AB701C801DA
:102680000E94B20599818913CACF0E945405F501B1
:102690006083718382839383BB24B394C1CFB12CB5
:1026A000A701B801C6010E94E22ABACFBB24B394A5
:1026B000F7CFCF92DF92EF92FF920F931F93CF93BA
:1026C000DF930F92CDB7DEB7EE24E394F12C08E848
:1026D00012E09E012F5F3F4F49E752E063E082E046
:1026E0000E94AA12D82E882341F10091AD02802FBA
:1026F00090E09C0123543D4F79011981F9018081BB
:10270000181BC12E80E00EC0CA94F70180818F5F34
:1027100080838AEA002319F0013019F48BE40E94C7
:10272000F10E8D2D1C1484F3912F17FD90E0191BD1
:1027300011110EC081110E945B088D2D0F90DF9149
:10274000CF911F910F91FF90EF90DF90CF90089560
:102750001F5FF70180818150808389EA002319F08F
:10276000013019F48EE40E94F10E8D2DE1CFCF924D
:10277000DF92EF92FF920F931F93CF93DF9300D0DE
:1027800000D00F92CDB7DEB76B0185E0E82EF12CBB
:1027900002E812E09E012F5F3F4F45E752E061E003
:1027A00080E00E94AA12882349F095E0FE0131964C
:1027B000A0E7B2E001900D929A95E1F795E0E0E78D
:1027C000F2E0D60101900D929A95E1F70F900F90EB
:1027D0000F900F900F90DF91CF911F910F91FF906D
:1027E000EF90DF90CF9008959F92AF92BF92CF92DB
:1027F000DF92EF92FF920F931F93CF93DF93CDB7AA
:10280000DEB72F970FB6F894DEBF0FBECDBF8E0197
:102810000F5F1F4F8AE0D8011D928A95E9F782E485
:10282000C82E81E0D82EF12CE12CAA24A394B12C3F
:10283000F60181916F018F3F09F44AC0F894E82FA7
:10284000E295EF70F0E021A18F70A50102C0440F66
:10285000551F8A95E2F7CA01922F982B91A392A156
:102860008095892382A30E94820600C0ECE3F1E0F8
:1028700030E020E0912C41914F3F09F47EC0A42F1D
:10288000A295AF70B0E090968C9190E04F7002C02E
:10289000959587954A95E2F780FD6FC08A2D022EA7
:1028A00001C0880F0A94EAF7982A2F5F3F4F26301D
:1028B000310509F7F601319780818F3F11F00E94B1
:1028C000840650EA5A95F1F7F801EE0DFF1D90824B
:1028D0008FEFE81AF80A95E0E916F10409F0A8CF9D
:1028E0004AE050E0B80180EA92E00E94D52A7C01DB
:1028F000892B41F08AE0F801A0EAB2E001900D9244
:102900008A95E1F71091AB02E114F104C1F181E085
:10291000809355020E946005909354028093530265
:1029200080915302909154020E944505059778F0DA
:10293000A0EAB2E0E12FF0E0E055FD4F85EA92E039
:102940002D9121938A179B07D9F71092550281E0A8
:1029500090E0EF28C1F02F960FB6F894DEBF0FBEBF
:10296000CDBFDF91CF911F910F91FF90EF90DF903E
:10297000CF90BF90AF909F90089580E095CF8091C9
:1029800055028111CDCF0E949A0EB82EE091AB0274
:102990008E01055F1F4F882309F4F1C085E0D8013F
:1029A0001D928A95E9F7F0E09F0120553D4F79018E
:1029B00080919902AE01405F5F4F6A018A3008F052
:1029C000B6C047EB53E1B801C7010E94560E8823F9
:1029D00009F4C4C049E553E1B801C7010E94560E8D
:1029E000882309F4BBC041E552E1B801C7010E9448
:1029F000560E882309F4B2C045EE51E1B801C70173
:102A00000E94560E882309F4A9C010929902E09101
:102A1000AA02F0E0AF0140555D4FD80110E0FA0185
:102A20009191AF018D91981731F09F01215031099B
:102A3000F90180831B2DCA16DB0689F780916A0293
:102A4000882309F45FC080916902882309F45AC081
:102A500080916702909168020E944505853F9140F0
:102A600008F450C010926A021092660280915C02D3
:102A700090915D020997F9F480915E0290915F0256
:102A80002091600230916102822B932B209162028F
:102A900030916302822B932B209164023091650266
:102AA000822B932B892B61F582ED93E00E94700FAE
:102AB00081E08093660280915C0290915D020797AD
:102AC000F9F480915E0290915F020797C9F48091BA
:102AD0006002909161020A9799F48091620290914C
:102AE00063022091640230916502822B932B892B23
:102AF00039F484EB93E00E94700F81E080936602CA
:102B00000E94AE0A80915A0290915B02892B69F073
:102B100080915802909159020E944505893893414D
:102B200020F010925B0210925A02812F14CF8091F4
:102B30005602909157020E944505843F914008F04B
:102B400040CFE091AA02F0E0E055FD4FD80111928C
:102B50001D92CA16DB06D9F71B2D70CF8091990202
:102B60008F3F31F08F5F809399028A3008F44FCF06
:102B70000E9460059093570280935602E2CFF0E0E6
:102B8000E055FD4FF89485E0A2E8B2E001900D9287
:102B90008A95E1F765E070E082E892E00E94B20574
:102BA000809381020E948206F894E091C002F0E0D6
:102BB000E354FD4F80818B878093880261E070E051
:102BC000C8010E94B205809387020E948206F89491
:102BD000C0908902D0908A02E0908B02F0908C0223
:102BE00080916B0290916C02A0916D02B0916E0287
:102BF000C816D906EA06FB06D1F0C0926B02D09245
:102C00006C02E0926D02F0926E020E949A0E8111A7
:102C10000EC00E945405C61AD70AE80AF90AC092E3
:102C2000C303D092C403E092C503F092C6030E948E
:102C30008206F89480919402882379F180FF0DC078
:102C400080918D0280FF2DC09091B8039160909388
:102C5000B80360E086950E945D118091940281FF27
:102C600009C020E04091900260918F0280918E0215
:102C70000E944E108091940282FF06C080919302C0
:102C8000882391F00E9421108091940283FF03C059
:102C900081E08093D102109294020E94820680E02B
:102CA0005ACE0E943F0ED9CF0E94CD05EDCF69EEDE
:102CB0007EEF90E080E00E94B22A60E082E090E047
:102CC0000E94942A60E083E090E00E94942A10928F
:102CD0004F0210925002109251021092520260E084
:102CE00084E090E00E94942A60E082E290E00E94FA
:102CF000942A60E085E090E00E94942A60E086E0FB
:102D000090E00E94942A6FEF87E090E00E94942A5E
:102D100040E050E0BA0188E090E00E94A62A60E01E
:102D20008DE090E00E94942A40E050E0BA0188E1F2
:102D300090E00E94A62A60E087E190E00E94942A39
:102D400040E050E0BA018CE190E00E94A62A70E0D9
:102D500060E080E290E00E94B22A40E050E0BA01D8
:102D600088E190E00E94A62A40E050E0BA018FE09E
:102D700090E00E94A62A40E050E0BA0183E190E092
:102D80000C94A62ACF93C0919F02C2FB992790F979
:102D9000981781F080FBC2F9C0939F0260919E0258
:102DA00084E090E00E94942A6C2F82E290E0CF9120
:102DB0000C94942ACF91089510924D02E0EEF1E028
:102DC00086E0DF011D928A95E9F70C9489091F932B
:102DD000CF93DF93CDB7DEB7AA970FB6F894DEBFD7
:102DE0000FBECDBF8EED93E02091F100FC01219349
:102DF000CF01F3E0863E9F07B9F78091DF03833070
:102E000009F46FC0B8F4813009F446C0823009F487
:102E1000B0C08091E80083FF7BC28091DE03909177
:102E2000DF039A3008F074C2E92FF0E0E550F54D69
:102E30000C943D2A8A3009F48BC08B3009F46EC0A3
:102E4000893039F78091DE03813219F78091E203EE
:102E50009091E3030297E8F68091E800877F8093E2
:102E6000E8008091E80082FF37C09091F3008091E4
:102E7000F200029729F48091F1008B7F813021F4D8
:102E80008091F1008093D1038091E8008B7780934B
:102E9000E8000E943004BDCF8091DE03813A09F042
:102EA000B8CF8091E800877F8093E8008091E203AB
:102EB0009091E303892B61F468E082ED93E070E088
:102EC0000E94E2048091E8008B778093E800A1CF14
:102ED00060E090E080E0F3CF8091DC038111C1CF0E
:102EE00098CF8091DE03813A09F093CF8091E2037D
:102EF0009091E303892B09F08CCF8091E800877FC4
:102F00008093E8008091E80080FFFCCF80916C0105
:102F10008093F1008091E8008E77B9CF8091DE0335
:102F2000813209F076CF8091E2039091E303892BFF
:102F300009F06FCF8091E800877F8093E8000E94BE
:102F400030048091E00380936C010E94DC1661CF15
:102F50008091DE03813209F05CCF8091E800877FA9
:102F60008093E8000E9430048091E1038093D003B5
:102F700050CF8091DE03813A09F04BCF8091E80079
:102F8000877F8093E8008091E80080FFFCCF8091EC
:102F9000D003BECF803899F0823809F0B9C1809152
:102FA000E2038F70873008F0B3C18093E90080910D
:102FB000EB0085FB882780F91092E90006C080911C
:102FC000DA039091DB03911182609091E800977F82
:102FD0009093E8008093F1001092F1008091E80056
:102FE0008E7792C1882309F480C1823009F090C1A4
:102FF0008091E003811183C18091E2038F702FEFF4
:10300000280F263008F084C18093E9002091EB005E
:1030100020FF75C1933031F48091EB008062809382
:10302000EB006DC19091EB0090619093EB0021E07B
:1030300030E001C0220F8A95EAF72093EA0010924F
:10304000EA008091EB008860EACF811161C11091A4
:10305000E0031F778091E3008078812B8093E30069
:103060008091E800877F8093E8000E94300480917F
:10307000E80080FFFCCF8091E30080688093E3004C
:1030800082E0111183E08093DC0342C180588230DA
:1030900008F03EC18091E0039091E1038C3D23E074
:1030A0009207A1F583E08A838AE289834FB7F89477
:1030B000DE01139620E03EE051E2E32FF0E0509372
:1030C0005700E49120FF03C0E295EF703F5FEF707F
:1030D0008E2F90E0EA30C0F0C7968D939D932F5FBE
:1030E000243159F74FBF8091E800877F8093E80033
:1030F0006AE270E0CE0101960E94E2048091E8004D
:103100008B778093E80004C1C096E7CF4091E2033B
:103110005091E303292F33272330310509F444C0AC
:1031200078F52130310509F46FC08BE390E0EBE6D0
:10313000F6E02230310509F0EBC02091E800277F4E
:103140002093E8002091E4033091E5038217930770
:1031500008F49C0140E02115310509F064C04111DB
:1031600062C08091E80082FDC9CF8091DC03882392
:1031700029F2853019F28091E80083FFF2CFBECFAB
:1031800021323105A9F12232310509F0C1C04115C2
:10319000510509F443C04130510509F0B9C082E33B
:1031A00090E0E9EFF5E0C9CF992781309105C1F0B2
:1031B000009759F0029709F0ABC0E8EBF6E0E49114
:1031C0008E2F90E0E8EBF6E007C0E6EDF6E0E49144
:1031D0008E2F90E0E6EDF6E0009709F499C0ADCFB0
:1031E000E4ECF6E0E4918E2F90E0E4ECF6E0F4CF2E
:1031F0004115510571F04130510509F089C089E050
:1032000090E0E6E9F6E099CF82E190E0E6EAF6E0C8
:1032100094CF89E090E0EDE7F6E08FCF80E490E096
:10322000EBE2F6E08ACF8091DC03882309F466CFD5
:10323000853009F463CF8091E80083FD5FCF8091F2
:10324000E80082FD8ECF8091E80080FF84CF9091CE
:10325000F3008091F2002115310519F088309105B5
:1032600050F041E0089709F040E08091E8008E7747
:103270008093E80070CF44914093F1003196215043
:1032800031090196E8CF803809F042C08091E8000A
:10329000877F8093E8008091DD038093F1009ECECC
:1032A000811136C01091E003123090F58091E80052
:1032B000877F8093E8001093DD030E943004112380
:1032C00011F084E005C08091E30087FDFACF81E032
:1032D0008093DC0342E061EC81E00E944F0442E213
:1032E00061EC82E00E944F0413C08091E0038130C2
:1032F00079F481E0933009F080E08093DB03109251
:10330000E9008091E800877F8093E8000E94300404
:103310008091E80083FF0AC08091E800877F809356
:10332000E8008091EB0080628093EB00AA960FB6D4
:10333000F894DEBF0FBECDBFDF91CF911F910895EE
:103340004F925F926F927F928F929F92AF92BF92B5
:10335000CF92DF92EF92FF920F931F93CF93DF9361
:1033600000D000D00F92CDB7DEB77C01DC01139600
:103370008D919C911497892B41F01C911196DC90B2
:10338000812F8D218F3F09F034C50F900F900F9042
:103390000F900F90DF91CF911F910F91FF90EF90C1
:1033A000DF90CF90BF90AF909F908F907F906F9065
:1033B0005F904F9008950E949A08082F682F898186
:1033C0009A810E943509E12FF0E0B6E0DB9EE00D26
:1033D000F11D11242CE3029FE00DF11D1124EE0FCD
:1033E000FF1FE45AFE4F059114919801D7011296E0
:1033F0008C91882309F4B8C080916A02882309F46B
:1034000049C0C80190568115B0E29B0720F0905E3C
:103410008115904110F4980133278091690285301D
:10342000A0F5E82FF0E0EE0FFF1FE45AFD4F3183C7
:1034300020838F5F809369020E94600590936802E9
:103440008093670280914A02877009F49ECFD7016A
:1034500012968C91882309F498CF82E00F900F90F8
:103460000F900F900F90DF91CF911F910F91FF90D0
:10347000EF90DF90CF90BF90AF909F908F907F9014
:103480006F905F904F900C94C40910926A020E9452
:10349000AE0AD2CF0932FDE51F0709F065C081E011
:1034A00090E090935B0280935A0280936A020E949C
:1034B0006005909368028093670210926902ECE5C0
:1034C000F2E08AE0DF011D928A95E9F7D7011296B2
:1034D0008C91882309F4A0C41092E8030230BCE563
:1034E0001B0708F454C10631ECE51E0730F0C80193
:1034F0008B5F9C45099708F04AC10E94D7119093B1
:103500009F0280939E020031FCE51F0709F40EC163
:1035100008F0A1C008303CE5130709F4FDC008F02D
:1035200070C004308CE5180709F4EEC008F056C0EE
:103530000230ACE51A0709F4E1C080919E02826076
:1035400003301C4509F4DDC060919E0210919F027A
:1035500084E090E00E94942A612F82E290E00E9431
:10356000942A0E94DC166ECF043FBCE51B0739F19C
:1035700088F4093DFCE51F07F1F00A3D2CE5120730
:1035800051F1083D3CE5130709F0A0CF26E241EEDA
:1035900061EE0DC0063F4CE51407C9F0A0F027E22C
:1035A00045EE66EE073F9CE5190709F08FCFC7018E
:1035B0000E940C0F47CF27E245EE65EEF8CF26E2DA
:1035C00041EE60EEF4CF27E245EE64EEF0CF26E266
:1035D00041EE62EEECCF28E241E0EFCF80919E0217
:1035E00080610630ECE51E0709F48BC080919E02D5
:1035F000886007301C4508F484C080919E02806278
:1036000080C080919E028D7F0C302CE5120709F45A
:1036100078C070F480919E028C600A304CE51407EB
:1036200009F46FC008F47CC080919E028E7F69C04F
:1036300080919E02877F0E309CE5190709F461C0D6
:1036400080919E028B7F0F301C4508F45AC08091F8
:103650009E028F7E56C00C3FBCE51B0709F458C084
:1036600030F50331FCE51F0709F468C078F4013137
:103670003CE5130709F45EC002311C4509F064CF34
:103680000E94DC1680919E028F773BC005318CE54D
:10369000180709F45BC008F46FC080919F02816035
:1036A0000B3F1C4509F050CF80939F024DCF011571
:1036B000BDE51B0709F446C088F480919F028D7F09
:1036C0000E3FFCE51F0781F380919F028E7F0F3F25
:1036D0001C4550F380919F028360E6CF02303DE5A8
:1036E000130709F452C0F0F160E003301D4509F002
:1036F0002BCF8EE090E00E94942A26CF80919E02EC
:10370000816080939E0220CF80919E028460F9CFD9
:1037100080919F028260C8CF80919E028064F1CF29
:103720000E94DC1680919E028068EBCF80919E0201
:103730008F7DE7CF80919E028F7BE3CF80919E02A9
:10374000837FDFCF80919F028C7FAECF80919E02DE
:1037500082FB992790F921E0922790FB82F990FB58
:1037600083F9CFCF80919F02982F909591708E7F93
:10377000892B90FB81F998CF0E94DC1690919E02D4
:10378000892F97FB87F98058BCCF61E0B2CF063113
:103790009CE5190709F0E8C380914D028A7A91E00F
:1037A00009F490E09093E70169E2811165E38EED01
:1037B00091E00E946C050E94630844CE8091E7016D
:1037C00081110FC089E2E0EEF1E026EE31E0919147
:1037D000891303C0DF0111971C922E173F07B9F719
:1037E000EACF85E3F0CF81608093B80361E08695EE
:1037F0000E945D1127CE4DE951E166EA71E10E9418
:10380000C80520CE46EA51E16DE971E1F8CF42E307
:1038100051E169E271E1F3CF41E151E16DE171E123
:10382000EECF49EF50E165E071E1E9CF45E051E1CC
:1038300069EF70E1E4CF4CE451E16BE371E1DFCF7C
:1038400061E081E0D5CF65E082E00E94B011FACD61
:1038500068E086E0FACF64E18FE0F7CF67E185E1C9
:10386000F4CF62E289E1F1CF61E083E2C1CF0E944F
:10387000DC16FFEF24E33CE0F15020403040E1F75C
:1038800000C0000087E797E7909301088093000845
:1038900088E19AE00FB6F894A895809360000FBE77
:1038A00090936000FFCF81E07FC380E07DC3812FD4
:1038B000902F0E940C09D82E8AC3E02FEF709E2E05
:1038C000802F807F19F0929420EF9222DD20C9F0A2
:1038D000992069F080E2810F883010F081100BC0D0
:1038E00080914D02982A90924D020E946308812F88
:1038F0000E94590A19C080914C02982A90924C0259
:10390000F4CF812F0E94200A992071F0909480E2D8
:10391000810F883010F0811051C080914D029822A3
:1039200090924D020E9463082A2D2850330B2430B8
:10393000310510F40E94E10E812F902F0E9463093F
:10394000811145C21092E9011092E801BB20B1F04B
:1039500080914A0280FD12C0D70112961C92859573
:10396000859585950E94E009C7010E94A019809164
:103970004A028595859585950E94A10985E0F70104
:10398000DE01119601900D928A95E1F789819A8165
:103990000E940C099A81E981F0E0B6E09B9FE00D5E
:1039A000F11D11242CE3829FE00DF11D1124EE0F77
:1039B000FF1FE45AFE4F85919491E7CC80914C0211
:1039C000982290924C02AECFF02FFF709F2E802F46
:1039D000807F803219F0929490EF9922882099F09C
:1039E000662463948614B1F1DD2009F440C0CC2034
:1039F000B9F1D70115968C91159780FF78CF8F700C
:103A000015968C932DC0DD20B9F090914E02892D32
:103A1000892BC11003C00E94160A86CF77247394A5
:103A2000C710F9CF20919F0222FD7ECF981709F48D
:103A30007BCF80934E0278CFC11006C00E945D08F4
:103A4000892D0E940B0A70CF88248394C81409F42E
:103A50006BCFF4CFDD2031F025E02C1508F464CFD6
:103A6000892DD9CF34E03C1508F45ECFE9CFCC20C6
:103A700039F3B9E38B120DC0EFEFF7EE23E0E1501D
:103A8000F0402040E1F700C00000812F0E94200A92
:103A90004BCF8FE39CE90197F1F7F5CF802F869507
:103AA0008695837069F0813009F03ECF812F902F89
:103AB0009370D11002C090E080E00E94860534CF60
:103AC000812F902F9370D11002C090E080E00E946F
:103AD0009C052ACF802F837009F067C0D11024CFB6
:103AE000212F229526952770220F220F412F4F70EC
:103AF00050E070E060E0022E04C0440F551F661FC6
:103B0000771F0A94D2F780E090E0DC0114FF0FC029
:103B10008FE090E0A0E0B0E004C0880F991FAA1FDA
:103B2000BB1F2A95D2F780959095A095B095202F30
:103B3000269526952370223029F1D8F440904F0223
:103B4000509050026090510270905202213069F002
:103B5000842B952BA62BB72BBC01CD01642175219D
:103B6000862197210E94010ADFCE44295529662922
:103B700077293A014B01682A792A8A2A9B2AC401AB
:103B8000B301F0CF842B952BA62BB72B40904F027F
:103B9000509050026090510270905202BC01CD01D1
:103BA0006425752586259725DDCF8695DD2011F0C6
:103BB000802F8170882309F4B7CE212F2295269576
:103BC0002770220F220F412F4F7050E070E060E00D
:103BD000022E04C0440F551F661F771F0A94D2F7A8
:103BE00080E090E0DC0114FF0FC08FE090E0A0E0E7
:103BF000B0E004C0880F991FAA1FBB1F2A95D2F7F7
:103C000080959095A095B095202F269526952370A8
:103C1000223029F1D8F440909A0250909B02609093
:103C20009C0270909D02213069F0842B952BA62B6D
:103C3000B72BBC01CD0164217521862197210E94FB
:103C4000970972CE44295529662977293A014B01F3
:103C5000682A792A8A2A9B2AC401B301F0CF842BCF
:103C6000952BA62BB72B40909A0250909B02609008
:103C70009C0270909D02BC01CD01642575258625AE
:103C80009725DDCF202F2F70922EDD2029F0822F57
:103C90000E94E009812FBFCE812F0E940B0A892D3F
:103CA0000E94A10941CE812F32EF831609F457C03B
:103CB000381578F040EF841649F191EF891609F430
:103CC00046C0DD2009F46FC0C11011CE802F8F7166
:103CD00043C0A3EF8A1609F447C0B4EF8B12F1CFAB
:103CE000DD2009F455C0202F2F71922E822F0E94C3
:103CF000E00980919F0282FD07C038E0939EC001D9
:103D00001124836080934A02892D26C0DD20D1F0E2
:103D1000E4E0EC1508F408CE202F2F7161E070E08C
:103D200080E090E004C0660F771F881F991F2A95D6
:103D3000D2F740909A0250909B0260909C02709043
:103D40009D029BCFF5E0FC1508F4EECDE5CF802F6A
:103D50008F71DD2009F4A4CF0E94E009E5CD802F0A
:103D60008F71DD20C9F39CCF60E070E0CB01DD20D6
:103D700009F465CF202F2F7161E070E080E090E0C2
:103D800004C0660F771F881F991F2A95D2F757CF57
:103D900081E00E94C40941E04C1508F0C5CD82E0E5
:103DA0000E94C409C1CDCC2079F0893341F48FEF52
:103DB00097EEA3E081509040A040E1F764CEEFE39E
:103DC000FCE93197F1F75FCE802F8F7169CFDD204D
:103DD00019F0C110B7CDBACDC110B4CD8091E801B2
:103DE0009091E901029709F0ADCD812F0E94F10E6B
:103DF000A9CD85E0F701DE01119601900D928A951B
:103E0000E1F7D70112962C9189819A812111D3CAA9
:103E10000E940C09082FD7CA0631BCE51B0709F41C
:103E2000CDCC80914D0282720D3CECE51E0709F469
:103E300002CD08F064C0073C2CE5120709F4E7CC7A
:103E4000E0F5043C4CE5140709F4D5CC40F5033CFF
:103E50001C4509F0ABC08091B80380FFC4CC8E7FB5
:103E60008093B8036091B8037091B9038091BA034D
:103E70009091BB030E943C100E94CD058091D60218
:103E800081608093D602AFEFB0E7E2E0A150B0408E
:103E9000E040E1F700C000000E94220BD3CA053CBD
:103EA000BCE51B0709F4AECC49E251E162E371E1E4
:103EB000063C1C4509F4A3CC79C00A3CFCE51F076D
:103EC00009F4AFCC70F4083C3CE5130709F4A4CC2A
:103ED000093C1C4509F06AC04DE151E161E171E125
:103EE0008ECC0B3C9CE5190709F4A0CC4BE351E1C7
:103EF0006CE471E10C3C1C4509F481CC57C0023DD7
:103F0000BCE51B0709F4A7CC98F40F3CFCE51F07A0
:103F100009F499CC08F494CC003D3CE5130709F46E
:103F200097CC6EE089E0013D1C4509F48ECC3EC083
:103F3000053D8CE5180709F494CC60F4033DACE52D
:103F40001A0709F48BCC61E088E1043D1C4509F4B3
:103F50004FCC2CC0063DECE51E0709F485CC0E3590
:103F60001D4509F46FCA22C00B352DE5120709F46F
:103F70009ACC58F401154CE5140709F478CC0F3DA0
:103F80001C45A1F40E9457165DCA0C359DE5190722
:103F900009F48BCC0D351D4549F480919F0282FBBD
:103FA000882780F991E089270E94C216F701828153
:103FB00010810181882309F47ACC812F902F0E94EF
:103FC0009A08D82E682F812F902F0E943509E12F53
:103FD000F0E026E0029FE00DF11D11243CE3D39EAA
:103FE000E00DF11D1124EE0FFF1FE45AFE4F8591E5
:103FF00094910E94DE06182F092F882ED701129661
:10400000DC9012971596CC90C2945FE0C522809107
:104010004A028770A1F0BD2CDD2091F0892F807FAE
:10402000803421F080E2810F883048F082E00E94E5
:10403000C40980914A028770BB24B3948111B12CCA
:10404000A02EA2943FE0A322BBE0BA1508F46CCCEA
:10405000EA2DF0E0EB5FF44D0C943D2A1F93CF93D3
:10406000DF9380911702807FA9F480911402882346
:1040700089F080914902D0911802609112027091EA
:104080001302A0911502B0911602C62FC72316E0A5
:10409000D81304C0DF91CF911F91089590E010973D
:1040A00011F0CF3F19F401968770F2CF189F90015D
:1040B000199F300D1124F901E75EFD4F418147132F
:1040C000F2CF40814613EFCF42814111ECCF4381C3
:1040D00054814A1B5B0B483C510528F7809117021D
:1040E0008F70806180931702F901E25EFD4F80813D
:1040F0008F708061808382E192E00E94A019DF913D
:10410000CF911F910C949008AF92BF92CF92DF9203
:10411000EF92FF920F931F93CF93DF93CDB7DEB74C
:1041200061970FB6F894DEBF0FBECDBF8C0185E05E
:10413000F801DE011D9601900D928A95E1F7F801D4
:10414000E28082E1A82E82E0B82E60911502709183
:1041500016026115710509F432C190911202409165
:104160001302892F84238F3F09F429C120813181D3
:10417000C380D480F0901402F601E61BF70BFF20F9
:1041800009F4E8C080911702582F507FE83CF105F0
:1041900008F0ABC0511177C0FE2C431321C092131D
:1041A0001FC0E1101DC08F70806180931702C50190
:1041B0000E94A01980911702F80185838F2D6196C6
:1041C0000FB6F894DEBF0FBECDBFDF91CF911F9128
:1041D0000F91FF90EF90DF90CF90BF90AF90089538
:1041E000CD2829F0822F83238F3F09F003C180E07F
:1041F000F82FF170DF2E80FF3CC080914902409182
:10420000180256E0841315C02D873E878D859E8544
:104210000E94F108292F22952F702230F0F02430CF
:1042200018F59F70F1F0F8019581907FD1F4D12CB1
:104230001EC090E0589FF001599FF00D1124E75ED9
:10424000FD4F6181361306C06081261303C0628171
:10425000E6120FC001968770D5CF9F7011F08823AA
:1042600031F3805E883018F3C8010E94A019FD2C3C
:10427000A5CFEE2009F4A2CF809117028160809330
:104280001702F12C9BCF431306C0921304C0F80110
:10429000EE2009F479C0C8010E948209882309F13F
:1042A000EE20F9F080911702803270F02091120216
:1042B0003091130238872F831986DB86CA868C8754
:1042C000CE0107960E94A01986E0F801A2E1B2E0B3
:1042D00001900D928A95E1F70E942E20FF24F3941D
:1042E0006DCFC8010E94A019F9CF51110AC082E117
:1042F00092E00E94A01986E0F50111928A95E9F7F3
:10430000C0CF43130FC092130DC0E1100BC0F801D2
:104310008583C8010E94A01986E0F50111928A9553
:10432000E9F74CCFC8010E9482098823D1F2EE2020
:10433000C1F280911702803238F22091120230913E
:1043400013023A8329831B82DD82CC828E83CE01C5
:104350000196B8CFE83CF105F8F6FE2CEE2009F204
:1043600043131FC092131DC08091170280FD10C01F
:10437000982F907F69F0F8018583903F31F0982F56
:10438000907F905F8F70892B8583C8010E94A01950
:1043900086E0F801A2E1B2E001900D928A95E1F782
:1043A0000DCFC8010E94820981118ECF8091170222
:1043B000816080931702C8010E94A019FFCEEE20F1
:1043C00009F48FCFC8010E948209F82E882309F4CE
:1043D00088CF86E0F801A2E1B2E001900D928A95C3
:1043E000E1F780911202909113020E94F1080E945D
:1043F0002E20E4CE81E08E25FBCE1F93CF93DF935A
:10440000CDB7DEB767970FB6F894DEBF0FBECDBF4E
:104410004B8B5C8B6D8B7E8B8F8B8E899F89892BD1
:1044200029F0CA0189238F3F09F081C08D8981114C
:1044300010924C021A8A198A85E0FE017396DE01F9
:104440001D9601900D928A95E1F786E0FE013D965A
:10445000DE01179601900D928A95E1F7CE0107963D
:104460000E948420882389F016E08091490290916F
:104470001802891349C067960FB6F894DEBF0FBEC5
:10448000CDBFDF91CF911F91089586E0FE01379651
:10449000DE01119601900D928A95E1F78A859B8540
:1044A000892B11F38F81988589238F3FE9F2209121
:1044B000180230E0C901019687709927409149029E
:1044C0004817190671F40E94DC1610921802109217
:1044D000490286E0E2E1F2E0DF011D928A95E9F708
:1044E000C3CF96E0929FD001939FB00D1124A75E99
:1044F000BD4FFE01319601900D929A95E1F78093A0
:1045000018020E949008B0CF819FC0011124875EDD
:104510009D4F0E948420882309F4ADCF80914902E9
:1045200090E0019687709927809349029ECF8091F1
:10453000E8019091E90101969093E9018093E801E7
:1045400075CF1F920F920FB60F9211242F933F93A6
:104550004F935F936F937F938F939F93AF93BF938B
:10456000CF93DF93EF93FF93D091E900DF708091B9
:10457000EC00C82FC17080FDC0E81092E900809166
:10458000F000877F8093F00078940E94E7161092E5
:10459000E9008091F00088608093F000CD2BCF700F
:1045A000C093E900FF91EF91DF91CF91BF91AF915F
:1045B0009F918F917F916F915F914F913F912F913B
:1045C0000F900FBE0F901F9018951F920F920FB66D
:1045D0000F9211242F933F934F935F936F937F9389
:1045E0008F939F93AF93BF93EF93FF938091E100DD
:1045F00082FF09C08091E20082FF05C08091E10046
:104600008B7F8093E1008091DA0080FF24C080914D
:10461000D80080FF20C08091DA008E7F8093DA007E
:104620008091D90080FF9BC080E189BD82E189BD76
:1046300009B400FEFDCF81E08093DC038091CF03BD
:10464000811109C00E94B6030E9481048091E2009A
:1046500084608093E2008091E10080FF17C0809128
:10466000E20080FF13C08091E2008E7F8093E20021
:104670008091E20080618093E2008091D8008062A6
:104680008093D80019BC85E08093DC038091E10021
:1046900084FF29C08091E20084FF25C080E189BDAC
:1046A00082E189BD89B5982F917080FFFBCF809101
:1046B000D8008F7D8093D8008091E1008F7E809319
:1046C000E1008091E2008F7E8093E2008091E20021
:1046D00081608093E2008091DD03882309F445C066
:1046E00084E08093DC038091E10083FF27C0809108
:1046F000E20083FF23C08091E100877F8093E10087
:1047000082E08093DC031092DD038091E1008E7FD4
:104710008093E1008091E2008E7F8093E20080919F
:10472000E20080618093E20042E060E080E00E946D
:104730004F048091F00088608093F000FF91EF912A
:10474000BF91AF919F918F917F916F915F914F91A9
:104750003F912F910F900FBE0F901F90189519BC8D
:104760001092DC031092CF0376CF8091E30087FD97
:1047700093E09093DC03B7CF78941F921FB61F92FB
:1047800011248F939F93AF93BF938091C80390910F
:10479000C903A091CA03B091CB030196A11DB11D1D
:1047A0008093C8039093C903A093CA03B093CB032B
:1047B000BF91AF919F918F911F901FBE1F90189531
:1047C0001F921FB61F9211248F939F93AF93BF9395
:1047D0008091C703811113C08091C8039091C903D0
:1047E000A091CA03B091CB034196A11DB11D809346
:1047F000C8039093C903A093CA03B093CB03BF919E
:10480000AF919F918F911F901FBE1F901895CDB7AC
:10481000DEB760970FB6F894DEBF0FBECDBF84B78A
:10482000877F84BF0FB6F894A89580916000886157
:1048300080936000109260000FBE80E890E00FB699
:10484000F89480936100909361000FBE85B78068F3
:1048500085BF85B7806885BF80E896E09093DD01CD
:104860008093DC010E94B6030E9481048091E200E3
:1048700084608093E20078948091DC038823A1F027
:104880001091E9001F709091EC00892F817090FDCC
:1048900080E8182B1092E9008091E80083FD0E94C7
:1048A000E7161F701093E90082E084BD93E095BD88
:1048B0009AEF97BD80936E001092C3031092C403C9
:1048C0001092C5031092C6030E949A0E91E08927A8
:1048D00080934C0180914C01882309F466C21092A8
:1048E000670185E2809368010E949A0E81110E94FF
:1048F000242880914C0181112EC0FE01359686E05E
:10490000DF011D928A95E9F786E6898387E98A8324
:1049100086EC8B8384E38C8385E38D833497A2E4D8
:10492000B1E0CE010B9621912D938E179F07D9F7F9
:1049300026E0EDE6F1E0DE011B9601900D922A954E
:10494000E1F7FC01ACE3B1E0CE01419621912D935A
:104950008E179F07D9F780914C0195E0811190E067
:104960009093AB0285E0891B8093AA0202E411E0D8
:1049700097E4E92E91E0F92EF80181918F018F3FA4
:1049800011F00E948406E016F106B1F70CE311E085
:1049900082E4E82E81E0F82ED8018D918D018F3FC1
:1049A00011F00E948406E016F106B1F7E0EAF2E0A9
:1049B0008AEA92E0A0EBB2E011921D928E179F0757
:1049C000D9F790E080E00E948E2A893E9E4F11F038
:1049D0000E94571682E090E00E94802A8093C302D2
:1049E0000E94D71190939F0280939E0283E090E0F3
:1049F0000E94802A682F70E090E080E00E94010A07
:104A00000E949A0E811102C00E9427288091AC0258
:104A100081113BC090E080E00E948E2A893E9E4F2B
:104A200021F00E9457160E94BE1188E090E00E947B
:104A3000882A6093B8037093B9038093BA03909364
:104A4000BB038091D60283608093D6026E7F71F49F
:104A50000E94BE1188E090E00E94882A6093B8030B
:104A60007093B9038093BA039093BB030E94D4055B
:104A70000E94CD058091B80380FF04C060E0869558
:104A80000E945D1181E08093AC0280914C01811104
:104A900006C084EF8093580185EF809357012091E1
:104AA0005801A22FA295AF70B0E091963C919197DA
:104AB0002F7081E090E0BC01022E01C0660F0A94C5
:104AC000EAF7462F4095432391964C9391979296FF
:104AD0003C919297362B92963C9392974091570136
:104AE000E42FE295EF70F0E031A14F70042E01C089
:104AF000880F0A94EAF7982F9095932391A392A197
:104B0000892B82A390968C9190E002C09595879511
:104B10002A95E2F7817020A130E002C035952795F3
:104B20004A95E2F792E020FF90E0892B8093C10242
:104B300090914C0181E098279093C002891B80934B
:104B4000AD028DE491E09093C0038093BF03F8E140
:104B5000EF2EF12CA0E46A2E77247394BAEBCB2EBF
:104B6000B2E0DB2E8091DC0300E112E1853009F434
:104B700063C10E94F41381110E945405E4ECF2E039
:104B8000A0EBB2E010E000E0802EAD9081918A159C
:104B900009F472C18A25912CBB24B3949B2D9823D0
:104BA00009F465C10E949A0E882399F099828A823D
:104BB000AB2081E009F480E08B830E946005816076
:104BC000782F9D838C8349815A816B818D810E94CE
:104BD000FD21F801EC53FD4F8081B826B082809111
:104BE000D502882309F463C08091D402E091B80310
:104BF000E695E81BE093D002823009F054C1F0E062
:104C0000E051FC4FE4910E2F10E0EBE2AE2EEEE00F
:104C1000BE2E8091D102882361F01092D1020E94B1
:104C2000D80E9093CF028093CE021092D3021092AE
:104C3000D2020E94D80EE091CE02F091CF029C01E8
:104C40002E1B3F0B2F3F3F4790F52091BC022223A4
:104C5000B1F01092BC022091BA023091BB02821BCB
:104C6000930B8F3F9F4758F4205D3A483093BB0227
:104C70002093BA028091D60288608093D6028090F9
:104C8000D2029090D302E00FF11FF093CF02E09395
:104C9000CE028EEC92E0F50109958091D2029091BE
:104CA000D302892B21F4892811F07092BC028091E3
:104CB000C102E82FEE0FEE0F90915801A92FA29597
:104CC000AF70B0E090962C9130E09F7002C03595A7
:104CD00027959A95E2F72170332790915701A92FD4
:104CE000A295AF70B0E090964C9150E09F7002C0DA
:104CF000559547959A95E2F7CA018170992740FF2B
:104D000002C082E090E0822B8E2B8093C102109132
:104D1000C0028F70E82FF0E0EA55FE4F808190913D
:104D2000BF02890F8093BF0220E0843084F0E12F1E
:104D3000F0E0E354FD4F80818F5F80838AEA112386
:104D400019F0113019F48BE40E94F10E21E08091EA
:104D5000BF028D3F84F4E12FF0E0E354FD4F8081EA
:104D60008150808389EA112319F0113019F48EE4FF
:104D70000E94F10E21E08091BF02082E000C990BD9
:104D800064E070E00E94072A8093BF0221110E9414
:104D90005B080E94E10E9091C202891709F4E2CEED
:104DA0000E94E10E8093C202DDCE85E2809367010E
:104DB00099CD8091DC03843009F430C00E94CD0588
:104DC0008091AF02811109C07092AF028091B80347
:104DD00081708093AE020E943F0E1092C7030FB6FF
:104DE000F894A895E09260000FBE6092600083B7CF
:104DF000817F846083BF83B7816083BF7894889507
:104E000083B78E7F83BF0FB6F894A895809160001A
:104E1000886180936000109260000FBE8091DB0378
:104E2000882351F00E94F413E0EBF2E081918111AC
:104E300094C0CE16DF06D1F78091DC03853009F4EB
:104E4000B8CF0E94DC160E94E10E1092AF02809152
:104E5000AE02882349F08091B80381608093B80343
:104E600060E086950E945D110E94211082CE93948D
:104E7000BB0C26E0921292CE0F5F1F4F0A30110535
:104E800009F082CE8FEF8B878C871D860E9460058C
:104E90008160782F9F878E874B855C856D858F8598
:104EA0000E94FD219CCE863059F4F0E0E351FC4F86
:104EB000E4910E2F10E07BE1A72E7EE0B72EA9CE65
:104EC000893061F4E695F0E0E651FC4FE4910E2F55
:104ED00010E066E6A62E6DE0B62E9BCE8F3061F414
:104EE000E695F0E0E951FC4FE4910E2F10E05AEC0A
:104EF000A52E5CE0B52E8DCE853159F4F0E0EC5155
:104F0000FC4FE4910E2F10E040E4A42E4CE0B42EB0
:104F100080CE08E210E09DEAA92E9BE0B92E8831F0
:104F200009F477CE833249F4E2EEF3E0059114916F
:104F30003FEBA32E3DE0B32E6CCE04EF11E02DE647
:104F4000A22E2BE0B22E843209F463CE00ED17E0DE
:104F500080E4A82E85E0B82E5CCE09BD19BD09B449
:104F600000FEFDCF8091D8008F7D8093D800809186
:104F7000E00082608093E0008091E00081FDFCCF42
:104F80000E94DC1659CF8EE14A9B02C08150E1F7A6
:104F90004A9BFECF08955A9880E28A95F1F75A9A73
:104FA0000895FC013BE03A95F1F798E020E080E0BD
:104FB00031E040E14A95F1F7880F4A9B02C08160D9
:104FC000232742E04A95F1F7000040E14A95F1F7C6
:104FD000915079F790E19A95F1F799B132E03A95CD
:104FE000F1F7000040E14A95F1F792FB992790F91B
:104FF00092272081920F90830895EF92FF920F9352
:105000001F93CF93DF930F92CDB7DEB719828C0138
:105010007C01E60EF11C0E151F0561F481E09981FB
:10502000911180E00F90DF91CF911F910F91FF9030
:10503000EF9008950E94C327CE0101960E94D127C8
:10504000F80181938F01E7CF529A5A9A08955298A6
:105050005A9AEA9AE9E6F0E080818F7C808308958D
:105060006150770B91E001C0990F6A95EAF720E053
:1050700031E0911108C0222391F05A9A80E28A957A
:10508000F1F75A980895492F482339F05A9A23275F
:1050900040E24A95F1F79695ECCF5A98F9CF5A9895
:1050A000EDCFFF920F931F93CF93DF93EC018C0111
:1050B000060F111DC017D10731F4DF91CF911F9159
:1050C0000F91FF900895F9900E94CB2768E08F2DF3
:1050D0000E943028EFCF1F920F920FB60F9211242B
:1050E000EF92FF920F931F932F933F934F935F93F2
:1050F0006F937F938F939F93AF93BF93EF93FF93A0
:10510000CF93DF930F92CDB7DEB719820E94C327EA
:10511000CE0101960E94D127A82FA695A695A69507
:10512000282F229525709A2F9570290F922F937012
:1051300026952695920F982797708981982B09F0CC
:1051400075C0A73008F072C080E18A95F1F75A9ACD
:10515000529AB2E0BA95F1F700C05A98EA2EF12CB3
:10516000EAE0AE9FD0011124A050BF4F1896ED91F8
:10517000FC9119973097B1F06091A4017091A5014D
:1051800016962D913C911797260F371F13968D91E8
:105190009C911497680F791F15964C91159712964C
:1051A0008C9109958AE08E9DF0018F9DF00D112460
:1051B000E050FF4F6581662351F02091A4013091AA
:1051C000A50186819781820F931F0E9451280E941A
:1051D000CB27F0E1FA95F1F75A9852985A9A80E164
:1051E0008A95F1F78AE08E9D80018F9D100D112424
:1051F00000501F4FD80112966C911297662371F1DF
:105200002091A4013091A50113968D919C91820F5C
:10521000931F0E94FD27D801ED91FC91882311F086
:1052200088E001C082E080830E94C3270F90DF9155
:10523000CF91FF91EF91BF91AF919F918F917F910E
:105240006F915F914F913F912F911F910F91FF901F
:10525000EF900F900FBE0F901F901895ED91FC915D
:10526000DFCF0F931F93CF93DF93EC0107970CF0E1
:10527000A9C08AE08C9FF0018D9FF00D1124E050B1
:10528000FF4F80819181892B09F49CC0F894529A38
:105290005A9885E08A95F1F700008C2F86958570E5
:1052A0009C2F9570890F982F937086958695890FFE
:1052B0008E0193E0000F111F9A95E1F7082B0E94D1
:1052C000CB2700C068E0802F0E943028A0E1AA957B
:1052D000F1F752985A9A4A9B27C087E090E04A9982
:1052E00025C08AE08C9F80018D9F100D11240050F5
:1052F0001F4FF80165816623A1F12091A40130912F
:10530000A50186819781820F931F0E94FD2781113D
:1053100028C0529A5A9AD801ED91FC9182E080837C
:10532000789482E090E016C000C0D5CF0197B9F420
:10533000529A5A9A8AE08C9FF0018D9FF00D1124A9
:10534000E050FF4F0190F081E02D81E08083789460
:1053500081E090E0DF91CF911F910F91089500C0FF
:10536000BECF0E94C327B0E2BA95F1F75A98529A7D
:10537000E0E1EA95F1F78AE08C9FF0018D9FF00D56
:105380001124E050FF4F6281662351F02091A40167
:105390003091A50183819481820F931F0E9451282F
:1053A0000E94CB278AE08C9FF0018D9FF00D112485
:1053B000E050FF4F0190F081E02D1082789490E052
:1053C00080E0C8CF84E090E0C5CF87FB082E06269A
:1053D00087FD819567FD61950E94742A0EF4919571
:1053E00007FC81950895AA1BBB1B51E107C0AA1FAA
:1053F000BB1FA617B70710F0A61BB70B881F991F76
:105400005A95A9F780959095BC01CD01089597FB19
:10541000072E16F4009407D077FD09D00E94F329D7
:1054200007FC05D03EF4909581959F4F08957095A7
:1054300061957F4F0895A1E21A2EAA1BBB1BFD01A7
:105440000DC0AA1FBB1FEE1FFF1FA217B307E40763
:10545000F50720F0A21BB30BE40BF50B661F771FBB
:10546000881F991F1A9469F760957095809590959B
:105470009B01AC01BD01CF010895EE0FFF1F059008
:10548000F491E02D09940E944B2A332312F48A1BD5
:105490009B0B0C945C2AA29FB001B39FC001A39FF9
:1054A000700D811D1124911DB29F700D811D11245D
:1054B000911D08950E944B2AB7FF0895821B930BFC
:1054C00008950E944B2AA59F900DB49F900DA49F14
:1054D000800D911D11240895B7FF0C94612A0E943C
:1054E000612A821B930B0895991B79E004C0991FD0
:1054F000961708F0961B881F7A95C9F7809508952E
:10550000F999FECF92BD81BDF89A992780B508958B
:10551000A6E1B0E044E050E00C94BA2AA8E1B0E083
:1055200042E050E00C94BA2A262FF999FECF92BDA2
:1055300081BDF89A019700B4021639F01FBA20BD58
:105540000FB6F894FA9AF99A0FBE08950396272F8A
:105550000E94952A0E94942A252F0E94952A242F82
:105560000C94952A0196272F0E94952A0C94942A30
:10557000DC01CB01FC01F999FECF06C0F2BDE1BD13
:10558000F89A319600B40D9241505040B8F7089502
:10559000FC014150504030F001900616D1F7319790
:1055A000CF010895882799270895FB01DC0104C0E5
:1055B0008D910190801921F441505040C8F7881B0B
:1055C000990B0895FB01DC0102C001900D9241503E
:1055D0005040D8F70895F894FFCF6E096E09770907
:1055E000770979097709770977096E096E097E09C4
:1055F000770977097E09CA17F2178819F2178819EF
:10560000251846188819431950195D1C5D1CE41CA7
:10561000E41C4E1D941C941C941C6A1D421E531EB7
:02562000531E17
:10562200E6010000000100000000E60100000005A4
:1056320001000000E6010000000106000000E60192
:105642000000000107000000E6010408000000005D
:105652000000E601080C0000000000003632333181
:10566200F7F66697C634350000000000014205F5E2
:105672000A4105F10AED0AF4F501191A1B1C1D1E57
:105682001F202122010201004A004A4A01F6F73195
:10569200333236818283E200E900EA00B500B600C7
:1056A200B700CD008301CC008A019201940121024E
:1056B200230224022502260227022A02B300B40092
:1056C2006F007000810200FF0100010000FFFF0077
:1056D20000010001FF0000010202020206060609A3
:1056E20009090909090F0F0F0F0F0F1515151819C1
:0C56F20019191919191919191923240084
:00000001FF
